:020000040800F2
:100000000000012029620008DD5B0008E35B0008B6
:10001000E95B0008EF5B0008F55B000800000000EA
:1000200000000000000000000000000001D60008F1
:10003000FB5B000800000000F1D60008075C000828
:100040007162000871620008716200087162000844
:1000500071620008215C000871620008716200088A
:100060007162000871620008716200087162000824
:100070007162000871620008716200087162000814
:100080007162000871620008716200087162000804
:1000900071620008716200087162000871620008F4
:1000A00071620008716200087162000871620008E4
:1000B000716200082D5C000871620008716200081E
:1000C00071620008716200087162000871620008C4
:1000D00071620008716200087162000871620008B4
:1000E000716200087162000871620008000000007F
:1000F0000000000000000000000000000000000000
:100100000000000000000000716200087162000839
:100110007162000871620008716200087162000873
:100120007162000871620008716200087162000863
:1001300071620008415C0008716200087162000889
:100140007162000871620008716200087162000843
:10015000000000000000000000000000000000009F
:10016000000000000000000000000000000000008F
:10017000000000000000000000000000000000007F
:10018000000000000000000000000000000000006F
:10019000000000000000000000000000000000005F
:1001A000000000000000000000000000000000004F
:1001B000000000000000000000000000000000003F
:1001C000000000000000000000000000000000002F
:1001D000000000000000000000000000000000001F
:0401E0005FF8E0F1F3
:1001F00010B5054C237833B9044B13B10448AFF361
:1002000000800123237010BDA80000200000000022
:10021000B0D9010808B5034B1BB103490348AFF33C
:10022000008008BD00000000AC000020B0D901082B
:1002300010F8012B11F8013B012A28BF9A42F7D090
:10024000D01A7047034613F8012B002AFBD1181A65
:100250000138704753B94AB9002908BF00281CBFAC
:100260004FF0FF314FF0FF3000F076B9ADF1080CE0
:100270006DE904CE00F006F8DDF804E0DDE90223C4
:1002800004B070472DE9F047089E0D4604468846A5
:10029000002B4DD18A42944668D9B2FA82F252B10B
:1002A00001FA02F3C2F1200120FA01F10CFA02FC7A
:1002B00041EA030894404FEA1C41B8FBF1F71FFAEA
:1002C0008CFE01FB178807FB0EF0230C43EA084362
:1002D00098420AD91CEB030307F1FF3580F01E8119
:1002E000984240F21B81023F63441B1AB3FBF1F0BA
:1002F00001FB103300FB0EFEA4B244EA0344A64502
:100300000AD91CEB040400F1FF3380F00981A645F3
:1003100040F20681644402380021A4EB0E0440EA56
:1003200007401EB10023D440C6E90043BDE8F08772
:100330008B4208D9002E00F0EE800021C6E90005AE
:100340000846BDE8F087B3FA83F100294AD1AB42F1
:1003500002D3824200F2FC80841A65EB0303012081
:100360009846002EE2D0C6E90048DFE702B9FFDE7A
:10037000B2FA82F2002A40F09180A1EB0C00012138
:100380004FEA1C471FFA8CFEB0FBF7F307FB130084
:10039000250C45EA00450EFB03F0A84208D91CEBEA
:1003A000050503F1FF3802D2A84200F2CE80434691
:1003B0002D1AB5FBF7F007FB10550EFB00FEA4B29B
:1003C00044EA0544A64508D91CEB040400F1FF35B6
:1003D00002D2A64500F2B6802846A4EB0E0440EAFD
:1003E00003409EE7C1F120078B4022FA07FC4CEA4C
:1003F000030C25FA07FA4FEA1C49BAFBF9F820FA70
:1004000007F309FB18AA8D401FFA8CFE1D4300FA62
:1004100001F308FB0EF02C0C44EA0A44A04202FA55
:1004200001F20BD91CEB040408F1FF3A80F088803C
:10043000A04240F28580A8F102086444241AB4FB6B
:10044000F9F009FB104400FB0EFEADB245EA04448E
:10045000A64508D91CEB040400F1FF356CD2A64573
:100460006AD90238644440EA0840A0FB0295A4EB34
:100470000E04AC42C846AE4656D353D0002E69D0C7
:10048000B3EB080264EB0E0422FA01F304FA07F757
:100490001F43CC40C6E90074002147E70CFA02FC78
:1004A000C2F1200125FA01F34FEA1C4720FA01F1BD
:1004B00095400D43B3FBF7F107FB11331FFA8CFE98
:1004C000280C40EA034001FB0EF3834204FA02F4D5
:1004D00008D91CEB000001F1FF382FD283422DD93F
:1004E00002396044C01AB0FBF7F307FB1300ADB24A
:1004F00045EA004503FB0EF0A84208D91CEB0505B0
:1005000003F1FF3816D2A84214D9023B6544281AD9
:1005100043EA014138E73146304607E72F46E4E633
:100520001846F9E64B45A9D2B9EB020865EB0C0E6B
:100530000138A3E74346EAE7284694E74146D1E776
:10054000D0467BE76444023847E7023B65442FE727
:10055000084606E73146E9E6704700BF80B485B03B
:1005600000AF78600B467B804DF27F73FB817B8808
:100570005A1E7A80002B14BF01230023DBB2002B0C
:1005800025D07B685A1C7A601B781B021AB2B7F917
:100590000E3053401BB2FB810023BB60BB68072BAE
:1005A000E5DCB7F90E30002B0ADAFB895B00FB8132
:1005B000FB8983F4FF4383F07A03DB43FB8102E092
:1005C000FB895B00FB81BB680133BB60E6E7FB890D
:1005D00018461437BD4680BC704780B586B000AF62
:1005E000F8600B467A607B817B89072B01D800235A
:1005F00052E0FB681B78FD2B01D000234CE0FB6828
:1006000001331B781B021AB2FB6802331B781BB242
:1006100013431BB29BB2033B9AB27B681A817B687F
:100620001B8903F108027B899A4201D0002333E041
:100630007B89023BFA6813441B781B021AB27B8940
:10064000013BF9680B441B781BB213431BB2FB82BE
:100650007B89023B9BB21946F868FFF77FFF034690
:100660001A46FB8A934214BF01230023DBB2002BFE
:1006700001D0002310E0FB68DA787B685A70FB68D1
:100680001A797B681A70FB685A797B689A70FB68E4
:100690009A1D7B685A60012318461837BD4680BDF5
:1006A00080B483B000AF78607B6800221A817B68D9
:1006B00018460C37BD4680BC704780B586B000AF89
:1006C000F860B96011461A460B46FB8013467B71F1
:1006D000FB681B89DA1DFB889A4201DB00238AE054
:1006E000BB68FD221A70FB681B8903331A12BB68B2
:1006F0000133D2B21A70FB681B89DAB2BB680233CD
:100700000332D2B21A70BB680333FA6852781A7097
:10071000BB680433FA6812781A70BB680533FA684C
:1007200092781A70FB681B89002B08D0BB68981D53
:10073000FB685968FB681B891A461BF001FDFB68C2
:100740001B8906339BB21946B868FFF707FF0346BB
:100750007B827B8A1B0A99B2FB681B890633BA68C5
:100760001344CAB21A70FB681B890733BA68134472
:100770007A8AD2B21A70FB681B890833FB827B79B4
:10078000002B37D00123BB82BA8AFB8A9A4231D22E
:10079000BB8ABA6813441B78FC2B05D0BB8ABA68A5
:1007A00013441B78FD2B21D1BB8A0133BA68D018C2
:1007B000BB8ABA68D118FA8ABB8AD31A1A461BF0C8
:1007C000CDFCBA68BB8A591CB9821344FC221A704A
:1007D000BB8ABA6813441A78BB8AB9680B4402F022
:1007E0007F02D2B21A70FB8A0133FB82BB8A0133CB
:1007F000BB82C9E7FB8A18461837BD4680BD00009A
:1008000080B584B000AF7860154B1B785A1C154B2F
:1008100083FB02139910D317C91A0B465B000B44D4
:10082000DB00D11ACAB20E4B1A700023FB73FB7B9C
:10083000022B11D8FB7B0C4A52F82330002B0AD034
:10084000FB7B094A52F82330184600F0BFF8FB7BC7
:100850000133FB73EBE700BF7D200BF01FFED3E7F6
:10086000C4000020ABAAAA2AC800002080B582B02C
:1008700000AF786039600E4A3B681360786804F016
:10088000C8FE024613461B029B1A0A4A13600A4B13
:100890001B68002B07D1094A002109480AF04EF8CD
:1008A0000346054A136000BF0837BD4680BD00BF40
:1008B000D8000020DC000020D4000020B40D020885
:1008C0000108000880B485B000AF78600B467B80DB
:1008D0000023FB73FB7B022B12D8FB7B0B4A52F8E5
:1008E0002330002B08D1FB7B08497A6841F823208C
:1008F0007B687A885A8003E0FB7B0133FB73E9E76E
:100900007B6818461437BD4680BC7047C80000207D
:1009100080B582B000AF78600B46FB707B68FA78D8
:100920001A70786800F052F800BF0837BD4680BDE5
:1009300080B483B000AF78600B46FB707B685B8847
:10094000002B0CD1FB78002B03D01E4B1B681A46E2
:1009500000E000221C4B1B681B685A632DE07B687B
:100960005B88042B0CD1FB78002B03D0154B1B6844
:100970001A4600E00022144B1B681B689A631CE0B7
:100980007B685B88082B0CD1FB78002B03D00D4BC8
:100990001B681A4600E000220B4B1B681B68DA63D9
:1009A0000BE0FB78002B03D0064B1B681A4600E0D7
:1009B0000022054B1B681B681A6400BF0C37BD463C
:1009C00080BC7047DC000020D800002080B582B0D9
:1009D00000AF78607B681B78052B4FD801A252F8D6
:1009E00023F000BFFD090008070A0008110A0008EB
:1009F0002D0A0008490A0008650A000800217868E5
:100A0000FFF796FF3AE001217868FFF791FF35E0A4
:100A10001C4B1B7803F00403002B0CBF01230023A5
:100A2000DBB219467868FFF783FF27E0154B1B7888
:100A300003F00403002B14BF01230023DBB219468B
:100A40007868FFF775FF19E00E4B1B7803F0010380
:100A5000002B0CBF01230023DBB219467868FFF797
:100A600067FF0BE0074B1B780B2B94BF0123002380
:100A7000DBB219467868FFF75BFF00BF00BF08379D
:100A8000BD4680BDC400002080B483B000AF786054
:100A90007B6800229A607B6818460C37BD4680BC94
:100AA000704780B483B000AF78607B689B68002B90
:100AB0000CBF01230023DBB218460C37BD4680BCB7
:100AC000704780B582B000AF786039607B681846A7
:100AD000FFF7DAFF386800F03CF80346002B0DD032
:100AE0003B689B6878683968022298473B68DA68F7
:100AF0007B68DA603B689A687B689A607B68184616
:100B00000837BD4680BDF0B585B000AFF860B9606C
:100B10001346FB80FB681846FFF7C3FF0346002B14
:100B200001D01BF0A3F9FB68DC68FD6807F108033E
:100B3000184600F01EF80646BB1D184600F023F8C4
:100B400003461A4631462846A04700BF1437BD4623
:100B5000F0BD80B582B000AF78607B681846FFF7C3
:100B6000A0FF034683F00103DBB218460837BD46F9
:100B700080BD80B483B000AF78607B6818460C37C6
:100B8000BD4680BC704780B483B000AF78607B689E
:100B900018460C37BD4680BC7047000080B400AFDB
:100BA000BFF34F8F00BF064BDB6803F4E0620449DC
:100BB000044B1343CB60BFF34F8F00BF00BFFDE773
:100BC00000ED00E00400FA05B0B594B000AF07F105
:100BD00018033822002118461BF0DAFA0123BB6102
:100BE0004FF480333B6204237B620123FB624FF4AA
:100BF0008033FB610223BB634FF48033FB634FF40C
:100C0000E0133B6402237B644FF4C063BB64402366
:100C1000FB6407F11803184607F0C2F90346002BDE
:100C200014BF01230023DBB2002B01D000F0F2FC43
:100C3000114B3C1D1D460FCD0FC42B6823603B1D7F
:100C40000221184607F0C2FC0346002B14BF012303
:100C50000023DBB2002B01D000F0DCFC00224FF0BF
:100C6000C061002007F09CFD044B01221A6000BF08
:100C70005037BD46B0BD00BFD8D901087000424210
:100C800080B58EB000AF554B554A1A60534B0022C9
:100C90005A60524B00229A60504B4FF6FF72DA6056
:100CA0004E4B00221A614D4B00229A614B4807F0CF
:100CB000DDFE0346002B14BF01230023DBB2002B13
:100CC00001D000F0A7FC07F1280300221A605A6047
:100CD0009A60DA604FF48053BB6207F1280319462B
:100CE0003E4808F0DBF90346002B14BF0123002324
:100CF000DBB2002B01D000F08DFC384807F005FF77
:100D00000346002B14BF01230023DBB2002B01D0CC
:100D100000F080FC00233B6200237B6207F120038C
:100D200019462E4808F05AFD0346002B14BF012334
:100D30000023DBB2002B01D000F06CFC3B1D002235
:100D40001A605A609A60DA601A615A619A61602387
:100D50007B600223FB603B1D002219461F4808F000
:100D6000DFF80346002B14BF01230023DBB2002B66
:100D700001D000F04FFC3B1D04221946174808F033
:100D8000CFF80346002B14BF01230023DBB2002B56
:100D900001D000F03FFC3B1D082219460F4808F027
:100DA000BFF80346002B14BF01230023DBB2002B46
:100DB00001D000F02FFC094804F032FE0021074862
:100DC00007F0FCFE0421054807F0F8FE082103485F
:100DD00007F0F4FE00BF3837BD4680BDE0000020BC
:100DE0000004004080B500AF134B144A1A60124B48
:100DF0004FF4E1325A60104B00229A600E4B0022F1
:100E0000DA600D4B00221A610B4B0C225A610A4B1F
:100E100000229A61084B0022DA61074808F056FD6B
:100E20000346002B14BF01230023DBB2002B01D0AB
:100E300000F0F0FB00BF80BD280100200038014019
:100E400080B588B000AF424B9B69414A43F0100324
:100E500093613F4B9B6903F01003FB60FB683C4BC5
:100E60009B693B4A43F020039361394B9B6903F034
:100E70002003BB60BB68364B9B69354A43F00403D3
:100E80009361334B9B6903F004037B607B68304BB9
:100E90009B692F4A43F0080393612D4B9B6903F034
:100EA00008033B603B68002242F23021294807F0EA
:100EB0005EF8002240F20721274807F058F8012287
:100EC00044F24001244807F052F807F110030022D1
:100ED0001A605A609A60DA6042F230233B61012363
:100EE0007B610023BB610223FB6107F110031946FC
:100EF000184806F0A1FE01233B6100237B6101231A
:100F0000BB6107F110031946124806F095FE44F242
:100F100047233B6101237B610023BB610223FB610B
:100F200007F1100319460C4806F086FE4FF4807353
:100F30003B6102237B610223FB6107F11003194629
:100F4000064806F079FE00BF2037BD4680BD00BFD1
:100F50000010024000100140000C01400008014058
:100F600080B582B000AF7860094B93F83B309B109E
:100F7000DBB203F00103002B01D0064B00E0064B6F
:100F8000194606481BF0E8F900BF0837BD4680BD8A
:100F9000340A0020ECD90108F0D90108F8D9010879
:100FA00080B500AF00224FF48041084806F0DFFF13
:100FB000322005F0C1F901224FF48041034806F0C8
:100FC000D6FFFA2005F0B8F900BF80BD000C014043
:100FD00080B584B000AF3B4600221A605A609A6028
:100FE000DA6008233B6001237B600023BB6002239F
:100FF000FB603B461946074806F01EFE002208210A
:10100000044806F0B4FFFFF7CBFF00BF1037BD4622
:1010100080BD00BF0008014080B588B000AFF86017
:10102000B9607A603B6001212B4806F089FF0346D6
:10103000002B0CBF01230023DBB2002B48D0022180
:10104000B868FFF765FC0023FB7705F06BF9B86122
:101050004FF47A73FB8201211F4806F071FF0346AB
:10106000002B0CBF01230023DBB2002B2CD005F09A
:1010700059F938613A69BB69D21AFB8A9A42EAD9AE
:10108000FB7F0133FB773B69BB61FB7F032B03D9FC
:101090000421B868FFF73CFCFB7F062BDBD900215D
:1010A000B868FFF735FC01213868FFF731FC0121F2
:1010B0007868FFF72DFCF86804F01EFA4FF4FA7018
:1010C00005F03AF9FFF76AFD0021B868FFF720FC48
:1010D00000BF2037BD4680BD0010014080B483B002
:1010E00000AF7860044A7B681A607B6818460C374A
:1010F000BD4680BC704700BF040E020880B582B0B8
:1011000000AF78607B681846FFF7E8FF134A7B68FA
:101110001A607B68043300221A605A60C3F8072003
:101120007B6800221A617B6800225A617B68183351
:1011300000221A605A609A60DA601A615A611A765F
:101140007B68313300221A809A707B68002283F812
:1011500034207B6818460837BD4680BD380E02082B
:1011600080B5CCB002AF07F59473A3F59273186005
:1011700097481BF08BF907F18403184604F016F921
:1011800007F1840207F180031146184605F01AF8AA
:1011900007F17C0300211846FFF794FB07F1780361
:1011A00004211846FFF78EFB07F174030821184647
:1011B000FFF788FB07F1840386491846FFF756FBC3
:1011C00007F17C0300211846FFF7A2FB07F1780323
:1011D00000211846FFF79CFB07F174030021184615
:1011E000FFF796FB07F1740307F1780207F17C0122
:1011F00007F18400FFF710FF07F17803022118467A
:10120000FFF786FB74481BF041F9FFF7E1FE07F199
:101210008403184608F024FE704B93F83B309B1073
:10122000DBB203F00103002B02D16D481BF02EF955
:1012300007F18403184604F08FF9034619466948FC
:101240001BF08AF868481BF021F907F17C0307F1CD
:10125000740207F1780107F1640000F0F5FF07F16F
:101260006403184601F040F860481BF00FF9604B2A
:101270001B68184600F0E0FE07F18403184604F0EE
:101280006BF94FF41673019350230093022300224D
:10129000584900F0C3FB07F18403184604F05CF9D9
:1012A0004FF4167301934FF43C6300930323002221
:1012B000514900F0B3FB07F18403184604F04CF9E0
:1012C0004FF4167301937B230093032300224B49B1
:1012D00000F0A4FB4A481BF0D9F807F114031846A4
:1012E000FFF70CFF07F114034649184602F003F814
:1012F00007F1640207F114031146184602F008F8DA
:1013000007F11403184602F0CCFF034687F8273193
:1013100097F82731002B00F0898097F82731042BAC
:1013200009D0042B0FDC012B09D0032B0BD136483D
:101330001BF0ACF80BE035481BF0A8F807E0344888
:101340001BF0A4F803E033481BF0A0F800BF07F13E
:101350001403184602F06EFF034619462E481AF091
:10136000FBFF07F11403184602F085FF03461946F8
:101370002A481AF0F1FF07F11403184602F065FF3E
:101380000346194626481AF0E7FF07F114031846EA
:1013900002F066FF0346194622481AF0DDFF07F106
:1013A0001403184602F072FFC7F82001D7F8203165
:1013B0001B781946D7F8203101331B781A46D7F825
:1013C000203102331B7818481AF0C6FF31E000BF05
:1013D00014DA0108E000002028DA0108340A0020AD
:1013E00038DA010850DA010860DA010880DA010809
:1013F000B89D002090DA010898DA0108A4DA010803
:10140000ACDA010828010020CCDA0108E8DA01088A
:1014100000DB010818DB010838DB010848DB0108A4
:1014200058DB010874DB010890DB01086F481AF0F3
:1014300093FF07F16403184600F0C2FF6C481BF0ED
:1014400025F807F1640207F110031146184603F06E
:1014500099F807F11003184603F03AFB65481BF0B2
:1014600015F807F18003184604F0BCFE07F1840369
:10147000184604F07CF80346002B0CBF0123002320
:10148000DBB2002B07D05C4819F094FC03461946E8
:101490005A481AF061FF07F1780300211846FFF758
:1014A00037FA07F1740302211846FFF731FA54485E
:1014B0001AF0ECFF4FF47A700AF0F0FF07F10C031A
:1014C0001A4601214F4805F08CFC0346002B0CBF47
:1014D00001230023DBB2002B5DD007F59473A3F545
:1014E0008E731B6803F00403002B1FD1464B93F847
:1014F0003B309B10DBB203F00103002B4BD007F114
:101500008403184604F033F80346012B0CBF012373
:101510000023DBB2002B02D03B4816F0BBFC3A485C
:101520000EF09AFD38480EF0EFFD34E0364B93F89C
:101530003B309B10DBB203F00103002B2BD107F1F2
:101540008403184604F013F80346012B07D12E48F4
:1015500017F05EFB0346002B01D1012300E00023BE
:10156000002B02D0294B00221A6027480EF09EFD66
:1015700025480EF01BFD07F18403184603F0F7FF22
:101580000346012B0CBF01230023DBB2002B02D04A
:101590001D4815F0A3FF07F18403184603F0E7FF89
:1015A0000346012B07D1184817F032FB0346002BE6
:1015B00001D0012300E00023002B3FF47BAF0E4855
:1015C00019F0F8FBC7F81C01104B1B68D7F81C2159
:1015D0009A423FF46FAFD7F81C110D481AF0BCFEC9
:1015E0000A4AD7F81C31136064E700BFB0DB01087A
:1015F000D4DB0108F0DB0108380A002000DC010818
:1016000010DC0108E0520020340A002070010020A4
:1016100028DC010880B400AF72B600BFFEE700000E
:1016200080B500AF04F026FEFFF7CEFAFFF708FC06
:10163000FFF7D8FB084803F043FDFFF721FB09F053
:10164000EFF8064A0021064809F078F90346054AF2
:10165000136009F017F9FEE728010020D80D0208F1
:10166000611100086C01002080B586B000AFF86001
:10167000B9607A60BB685A1CBA601B783B613B69F1
:1016800003F0C003C02B16D13B691B0203F47C534B
:101690003B61BB685A1CBA601B781A463B6913430E
:1016A0003B613B69FA6813447A681946F868FFF7AA
:1016B000DBFFBB682EE03B6903F0C003002B05D0C5
:1016C000396916481AF048FEBB6823E000237B61A5
:1016D0000AE0BA68531CBB607B68591C79601278B9
:1016E0001A707B6901337B617A693B699A42F0DB4E
:1016F0003B69002B05D17B685A1C7A6000221A7066
:1017000004E07B685A1C7A602E221A703B69002B19
:10171000B0DCBB6818461837BD4680BD38DC010810
:1017200080B58AB000AFF860B9607A6000233B6290
:101730000023FB613B6ABB6102E03B6A01333B6211
:101740003B6AFA6813441B782E2B05D03B6AFA6873
:1017500013441B78002BF0D13A6ABB69D31A7B6122
:10176000FB695A1C7B6913447A689A4209DAFB695F
:101770005A1C7B69134419461B481AF0EDFD0023DF
:101780002EE0BB685A1CBA607A69D2B21A70FB6943
:101790000133FB6100237B620DE0BA697B6A13446D
:1017A0001A46FB681A44BB68591CB96012781A7053
:1017B0007B6A01337B627A6A7B699A42EDDBFA6964
:1017C0007B691344FB613B6AFA6813441B782E2B38
:1017D00002D13B6A01333B627B69002BAADCFB69C7
:1017E00018462837BD4680BD58DC010880B586B054
:1017F00000AFF860B9607A603B607A68B968F868F1
:10180000FFF732FFB860BB681B683B613B8A184634
:101810000DF076FD03461A463B6A1A807B8A18460D
:101820000DF06EFD0346FB82FB8ADB0B9BB2DAB246
:101830007B6A1A70FB8AC3F30E039AB23B681A8064
:10184000BB68043318461837BD4680BD80B588B0E4
:1018500000AFF8607A603B600B467B81F868FEF76A
:10186000F1FC03460133FB613A8DFB6913441033ED
:10187000BB61BB6918461AF043FC03467B617B6978
:10188000002B04D1B96916481AF066FD23E07B6984
:101890007A899A807B697A689A60FB699AB27B69D7
:1018A0009A817B693A8DDA817B691033FA69F9682C
:1018B00018461AF045FCFB6910337A6913443A8DD7
:1018C000396818461AF03CFC064B1A687B691A60A6
:1018D000044A7B69136000BF2037BD4680BD00BF4E
:1018E0007CDC01087801002080B598B002AFF86078
:1018F000B9607A6007F11403402219467868FFF74F
:101900000FFF03467B657B6D002B0AD07B6D9BB27E
:1019100007F1140200931346BA680C21F868FFF728
:1019200095FF00BF5837BD4680BD80B59AB002AF65
:10193000F860B9603B601346FB800023BB82002344
:10194000FB82FB8818460DF0DBFC03463B8307F166
:1019500014030633402219463868FFF7E1FEF865A4
:10196000FB6D002B0CDDFB6D9BB206339BB207F1C8
:10197000140200931346BA682121F868FFF766FF46
:1019800000BF6037BD4680BD80B588B002AFF8604B
:10199000B9607A607868FEF755FC0346FB82FB8AE3
:1019A000FF2B05D9FB8A194612481AF0D5FC1EE018
:1019B000FB8A013318461AF0A3FB03463B61FB8AFE
:1019C000DAB23B691A703B690133FA8A79681846C2
:1019D0001AF0B6FBFB8A01339BB200933B69BA68ED
:1019E0001021F868FFF732FF38691AF091FB1837B9
:1019F000BD4680BDA8DC010880B586B002AFF860A6
:101A0000B9607A60042300937B68BA680121F868A2
:101A1000FFF71CFF00BF1037BD4680BD80B58EB0FC
:101A200002AFF860B9607A60FB70B868FEF70AFC34
:101A300003460C33FB62FB6A013318461AF060FB65
:101A40000346BB62F868FEF7FDFB0246FB6A1344DF
:101A500001337B627B6A013318461AF051FB03465F
:101A60003B62F868FEF7EEFB03460733FB61FB6958
:101A7000013318461AF044FB0346BB61FB6A591C4C
:101A8000FB7803F00103002B01D0264B00E0264B2E
:101A90000093BB68254AB86A1AF0B2FE7B6A591CEB
:101AA000BB6A0093FB68224A386A1AF0A9FEFB69F8
:101AB000591CFB681F4AB8691AF0A2FE7B68002B0C
:101AC00004D07A68F96B386AFFF75EFF00237B6108
:101AD00007F114031A46F96BB869FFF78DFF3A8FC7
:101AE000BB69F96B386AFFF720FF3A6AF96BB86A8D
:101AF000FFF7FAFEFB7803F00203002B04D0BA6A6A
:101B0000F96B0D48FFF7F0FEB86A1AF001FB386A6E
:101B10001AF0FEFAB8691AF0FBFA00BF3037BD467A
:101B200080BD00BFC8DC0108D0DC0108D8DC01089A
:101B3000E8DC0108F0DC0108FCDC010880B584B0B9
:101B400000AF78600B467B80104B1B68FB6013E096
:101B5000FB689B887A889A4202D07B88FF2B08D149
:101B6000FB681033796818461AF0E2FE0346002B32
:101B700006D0FB681B68FB60FB68002BE8D100E027
:101B800000BFFB6818461037BD4680BD78010020B5
:101B900080B58AB000AFF860B9607A607B68C3F541
:101BA000A0737B62FB6803F110007B68BA68134482
:101BB0007A6A1946FFF7B4FD03463B623B6A002B85
:101BC00001D17B6854E0FB68DB891A463B6A134409
:101BD0000A337A6A9A420BD2FB68DB891A463B6A5F
:101BE00013440A33194624481AF0B6FB7B683FE0D9
:101BF0007A683B6A13447B60FB689B8818460DF04B
:101C00007FFB0346BB8201200DF07AFB0346FB827B
:101C1000FB689B6818460DF080FB0346BB61FB68C0
:101C2000DB8918460DF06CFB0346BB837B68BA6802
:101C300013441A4607F1140303CB106051601B884C
:101C400013817B680A337B607B68BA68D018FB68B5
:101C50009B891033FA68D118FB68DB891A461AF0A1
:101C60006FFAFB68DB891A467B6813447B607B68EC
:101C700018462837BD4680BD1CDD010880B58AB0F6
:101C800002AFF860B9607A607B689BB200221946A7
:101C900000200EF0C9FAF861FB69002B25D0FB6922
:101CA0005B687A68B96818461AF04AFA134BBB6148
:101CB000134B5B687B61134B18687B69009341F29F
:101CC000E943BA69F96914F085FE0346FB7497F994
:101CD0001330002B05D097F9133019460A481AF033
:101CE0003BFBF8690EF018FE03E0796807481AF02C
:101CF00033FB00BF2037BD4680BD00BF080E020881
:101D0000886500207401002044DD010860DD0108C1
:101D100080B5B4B002AF786039603B68C7F8B430C2
:101D20004FF4A0701AF0ECF90346C7F8B030D7F8BA
:101D3000B030002B05D14FF4A07199481AF00CFB7C
:101D40002AE1D7F8B030C7F8AC303B681B889AB2AC
:101D5000D7F8AC301A80D7F8AC3084229A70D7F814
:101D6000AC300022DA70D7F8AC3000221A710022B1
:101D70005A71D7F8AC3000229A710022DA71D7F884
:101D8000AC3000221A7200225A72D7F8AC3000220E
:101D90009A720022DA720C23C7F8C0300023C7F809
:101DA000BC30D7F8B4300C33C7F8B8303B689B88E8
:101DB0009BB218460DF0A4FA0346C7F8A8300023DA
:101DC000C7F8C43092E007F1920107F10C0207F165
:101DD0008F03019307F1900300930B46D7F8B810D7
:101DE000D7F8B400FFF702FDC7F8B800B7F8923093
:101DF000012B03D0B7F89230FF2B72D1B7F89020A7
:101E000007F10C0311461846FFF798FEC7F89C002F
:101E1000D7F89C30002B64D0D7F89C309B88012BDE
:101E20000FD1604B5B68C7F89830D7F89C309B891E
:101E30001033D7F89C201344D7F898200432126846
:101E40001A60D7F8C020D7F8B010D7F89C00FFF779
:101E50009FFE0346C7F89430D7F8C030D7F89420D7
:101E60009A4215D9D7F8AC30DB889BB218460DF0F2
:101E700047FA034601339BB218460DF041FA034678
:101E80001A46D7F8AC30DA80D7F89430C7F8C030AB
:101E9000B7F890300C2B10D1D7F89C301B68002B72
:101EA0001FD0D7F89C301B689B88212B19D1D7F8FD
:101EB0009C301B68C7F8BC3013E0B7F89030212B7A
:101EC0000FD1D7F89C301B68002B0AD0D7F89C3074
:101ED0001B689B88012B04D1D7F89C301B68C7F87E
:101EE000BC30D7F8C4300133C7F8C430D7F8C420A9
:101EF000D7F8A8309A42FFF666AFD7F8C0300C2B5F
:101F000046DDD7F8BC30002B3BD0D7F8BC309B88DF
:101F1000012B0FD1234B5B68C7F8A430D7F8BC3036
:101F20009B891033D7F8BC201344D7F8A42004327F
:101F300012681A60D7F8C020D7F8B010D7F8BC00E4
:101F4000FFF726FE0346C7F8A030D7F8C030D7F811
:101F5000A0209A4215D9D7F8AC305B899BB21846BD
:101F60000DF0CEF9034601339BB218460DF0C8F9C7
:101F700003461A46D7F8AC305A81D7F8A030C7F8D4
:101F8000C030D7F8C020D7F8B0107868FFF776FED9
:101F9000D7F8B0001AF0BCF8C837BD4680BD00BF06
:101FA00084DD01088865002080B588B000AFF86046
:101FB000B9607A603B607B681B89FB61FB69B3F5A4
:101FC000A07F30DCFB691B2B2DDDFB6918461AF066
:101FD00097F80346BB61BB69002B04D1F96915482A
:101FE0001AF0BAF91FE0FB699AB20023B969786860
:101FF0000EF09CFE03461A46FB69934210D1BB6962
:102000007B617B699B7803F0FA03002B08D17B6925
:102010009B889BB2002B03D079693868FFF778FE64
:10202000B8691AF075F878680EF076FC00BF2037B2
:10203000BD4680BDA8DD010880B584B000AF7860E2
:102040007B68002B37D07B6893F83B3003F020038C
:10205000002B1FD17B6893F83B3043F02003DAB2AA
:102060007B6883F83B20786817F0B4FE0346FB7367
:1020700097F90F30002B0DD07B6893F83C30194650
:102080007B6893F83D301A4697F90F3024481AF0D0
:1020900063F941E02349786818F002F80346FB73BE
:1020A00097F90F30002B06D097F90F3019461E48CC
:1020B0001AF052F930E07B68002B03D11B481AF06C
:1020C000E5F929E02E2014F0A9FE0346184A136012
:1020D000174B1B68002B03D116481AF0D7F91BE0E9
:1020E000134B1B6841F2E9421349184614F066FD90
:1020F0000346FB7397F90F30002B06D097F90F308A
:1021000019460E481AF028F906E0094B1B68002210
:102110000B49184614F024FE1037BD4680BD00BFA1
:10212000CCDD0108080E0208FCDD010820DE0108F4
:102130007401002040DE0108CC14020860DE0108B2
:10214000A91F000880B483B000AF78607B68184690
:102150000C37BD4680BC704780B483B000AF786058
:102160007B6818460C37BD4680BC704780B582B08E
:1021700000AF78607B689B68002B05D07B689B680C
:1021800078687968032298477B6818460837BD4607
:1021900080BD80B483B000AF03463960FB713B68FB
:1021A0005AB297F9073013405BB2DBB218460C37CE
:1021B000BD4680BC7047000080B500AF144B154A87
:1021C0001A60134B4FF4E1325A60114B00229A60AF
:1021D0000F4B0022DA600E4B00221A610C4B0C22CE
:1021E0005A610B4B00229A61094B0022DA610022EE
:1021F0000021074807F0B7FB0346002B14BF01235B
:102200000023DBB2002B01D0FFF704FA00BF80BD32
:102210007C0100200050004080B582B000AF7860A3
:10222000786800F001F900BF0837BD4680BD80B571
:1022300082B000AF78607B681846FFF797FF7B6835
:1022400018460837BD4680BDB0B590B002AFF86003
:10225000B9607A603B60FB68BA681A60FB687A68AC
:102260005A60FB683A689A60FB680C330021184694
:1022700000F0C5F9184BFB6200233B63FB687B63EE
:1022800007F1200007F1340207F12C01134B0093F2
:10229000134B00F0C3F907F1200207F110031146B8
:1022A000184600F0DDF907F1100540F61C0019F0A2
:1022B000C9FD03461C462A460021204603F0CAFCFD
:1022C000084B1C6007F110031846FFF7B0FFFB68CE
:1022D00018463837BD46B0BDAD250008E3140208E6
:1022E000E2140208C401002080B582B000AF78601B
:1022F000FFF762FF074A0021074808F01FFB03466B
:10230000064A1360786800F05BF800BF0837BD46E6
:1023100080BD00BF0C0E020819220008C001002079
:1023200080B584B000AFF860B9601346FB71FB68FC
:102330000C33B968184600F0BBF9054B1B68FA79F5
:102340001146184603F0AAFD00BF1037BD4680BDF8
:10235000C401002080B582B000AF78600846114605
:102360001A460346FB700B46BB7013467B707B68B6
:102370001A68FB78002B01D0012300E000231946E6
:102380001046FEF7C5FA7B685A68BB78002B01D06F
:10239000012300E0002319461046FEF7B9FA7B68D6
:1023A0009A687B78002B01D0012300E000231946B6
:1023B0001046FEF7ADFA00BF0837BD4680BD0000ED
:1023C00080B582B000AF78600B481AF05FF8002249
:1023D00040210A4805F0CBFD32200AF05FF80122C7
:1023E0004021064805F0C3FD32200AF057F800BF2F
:1023F0000837BD4680BD00BF98DE0108000C0140D3
:1024000080B584B000AFF860B9601346FB80FA88ED
:102410004FF6FF73B968034807F015FB00BF10378C
:10242000BD4680BD7C01002080B5C4B000AF07F57B
:102430008873A3F586731860002387F8083107F5C1
:102440008873A3F5847300221A600433FB220021F1
:10245000184619F09DFE0123A7F80E31514B1B6859
:102460001B6803F02003202B0CBF01230023DBB2E9
:10247000012B0CBF01230023DBB2002B00F08B806B
:1024800007F584710A230122464807F06EFB97F88E
:102490000831FD2B79D107F58873A3F58473FD22EC
:1024A0001A7007F584710A2301223E4807F05DFB8C
:1024B00097F808315B4287F80B3197F8082107F548
:1024C0008873A3F584735A7007F584710A23012277
:1024D000344807F04AFB97F80B319BB21B029AB2C3
:1024E00097F808319BB213449AB2B7F80E311344EF
:1024F000A7F80E3197F8082107F58873A3F58473C0
:102500009A7007F584710A230122264807F02DFBF3
:1025100097F8082107F58873A3F58473DA70002310
:10252000A7F80C31B7F80C21B7F80E319A4216D241
:1025300007F584710A2301221A4807F016FBB7F841
:102540000C31043397F8081107F58872A2F58472EC
:10255000D154B7F80C310133A7F80C31E2E7124B34
:102560001868B7F80E3104339AB207F10803194618
:1025700003F062FC07F10803FF220021184619F05E
:1025800007FE002387F8083168E7074B1B681846E9
:1025900003F06FFC62E7044B1B68184603F069FC0C
:1025A0004AE700BF7C010020C401002080B586B04E
:1025B00000AFF860B9601346FB80FB680C33184627
:1025C00000F084F878617B69002B06D07B691B687A
:1025D0001B68FA88B9687869984700BF1837BD4604
:1025E00080BD80B483B000AF786039607B683A68A2
:1025F0001A607B6818460C37BD4680BC704780B5B2
:1026000082B000AF786039607B6839681846FFF7A0
:10261000E8FF7B6818460837BD4680BDF0B587B037
:1026200002AFF860B9607A603B60B86800F05BF8B0
:102630000446786800F061F80546386800F067F8ED
:102640000646B86A00F06DF80346009333462A4602
:102650002146F86800F06FF8F8681437BD46F0BD01
:1026600090B583B000AF786039607B681846FEF79C
:102670000BFA386800F088F80346002B0ED07C680F
:10268000386800F08BF803461946204600F090F8B1
:102690007B68054ADA607B68044A9A607B68184662
:1026A0000C37BD4690BD00BFD52700080B28000899
:1026B00080B582B000AF78603960052239687868EB
:1026C00000F0C2F800BF0837BD4680BD80B582B0BB
:1026D00000AF78600521786800F0C7F80346184617
:1026E0000837BD4680BD80B483B000AF78607B689A
:1026F00018460C37BD4680BC704780B483B000AF2D
:1027000078607B6818460C37BD4680BC704780B443
:1027100083B000AF78607B6818460C37BD4680BC3C
:10272000704780B483B000AF78607B6818460C3780
:10273000BD4680BC7047F0B585B000AFF860B960A9
:102740007A603B60B86800F0A0F80246FB6892E847
:10275000030083E80300FB6803F108047868FFF7CF
:10276000CCFF05463868FFF7D2FF0646B86AFFF788
:10277000D8FF034632462946204600F090F8FB6811
:1027800018461437BD46F0BD80B483B000AF786002
:10279000012318460C37BD4680BC704780B483B017
:1027A00000AF78607B6818460C37BD4680BC704728
:1027B00090B583B000AF786039603868FFF7EEFFFE
:1027C000034622461946786800F0B0F800BF0C377F
:1027D000BD4690BDB0B584B000AFF860B9607A6016
:1027E000F86800F0BFF80446B868FEF7C2F905467D
:1027F0007868FEF7C8F903461A462946204600F0D5
:10280000BEF800BF1037BD46B0BD90B585B000AF73
:10281000F860B9601346FB71FB79012B09D1B868E8
:1028200000F0A0F80446F86800F0C4F803461C6005
:1028300005E0FB791A46B968F86800F0C7F800238C
:1028400018461437BD4690BD80B584B000AFF8601F
:10285000B9601346FB71FB791A46B968F86800F055
:10286000E0F800BF1037BD4680BD80B582B000AF34
:1028700078600B46FB70FB781946786800F0F2F838
:10288000034618460837BD4680BD80B483B000AF0C
:1028900078607B6818460C37BD4680BC7047F0B541
:1028A00085B000AFF860B9607A603B60FC68B868DA
:1028B000FFF723FF05467868FFF729FF06463868CB
:1028C000FFF72FFF034632462946204600F0E6F880
:1028D000FB6818461437BD46F0BD80B582B000AF26
:1028E000786039607B683A681146184600F0F8F85D
:1028F0007B6818460837BD4680BD80B582B000AF02
:10290000786039607B683A6892E8030083E80300E6
:102910007B6803F108023B68083319461046FFF74D
:10292000DCFF7B6818460837BD4680BDB0B584B073
:1029300000AFF860B9603A71B868FFF72FFF05463D
:102940000C2019F07FFA03461C4629462046FFF763
:10295000D4FFF86800F02EF803461C6000BF103763
:10296000BD46B0BD80B582B000AF7860786800F039
:10297000DAF803461B6818460837BD4680BDF0B537
:1029800085B000AFF860B9607A60F86800F0D7F8F9
:102990000446B868FEF7EDF805467868FEF7F3F8E8
:1029A00003462A462146304600F0D3F800BF1437CC
:1029B000BD46F0BD80B582B000AF78607868FFF7A3
:1029C000C1FB034618460837BD4680BDB0B584B08C
:1029D00000AFF860B9601346FB71FB79032B16D08A
:1029E000032B19DC012B02D0022B0AD014E0B868AB
:1029F000FFF7B8FF0446F868FFF7DCFF03461C60EA
:102A00000AE02A46B968F86800F0BFF804E02146F9
:102A1000F86800F0D8F800BF002318461037BD460C
:102A2000B0BD80B588B000AFF860B9601346FB71E7
:102A3000FB68FB61BB68BB61FB79FB75FB7D4FF6F7
:102A4000FF711846FFF7A5FB0346BB75FB69BA6922
:102A5000BFF35B8F1A60BFF35B8F00BF00BF2037EF
:102A6000BD4680BD80B584B000AF78600B46FB707A
:102A70007B68FB60FB78FB72FB7A4FF6FF711846B0
:102A8000FFF787FB0346BB72FB68BFF35B8F1B68D6
:102A9000BFF35B8F18461037BD4680BD90B585B03B
:102AA00000AFF860B9607A603B607868FFF72FFE8E
:102AB00004463868FFF735FE03461A462146F86893
:102AC00000F095F8FC68B868FFF717FE0346194652
:102AD000204600F09FF8FB6818461437BD4690BDAD
:102AE00090B583B000AF78603960386800F0A3F823
:102AF0000346184600F0A9F803461946786800F026
:102B0000BBF87C68386800F0AAF803461846FFF75F
:102B1000F4FD03461946204600F07CF87B68184611
:102B20000C37BD4690BD80B582B000AF7860786844
:102B3000FFF712FB034618460837BD4680BD80B438
:102B400083B000AF78607B6818460C37BD4680BC08
:102B50007047B0B584B000AF3873B9607A603B603D
:102B6000B868FFF7ECFF04467868FEF702F8054600
:102B70003868FEF708F803461A462946204600F052
:102B80009DF800BF1037BD46B0BDB0B584B000AFF2
:102B9000F860B9603A71B86800F0AFF803461D6894
:102BA0000C2019F04FF903461C4623462A4607CA53
:102BB00083E80700F868FFF7FDFE03461C6000BFCE
:102BC0001037BD46B0BD80B582B000AF78603970B7
:102BD0007868FFF7EFFE03461B68002B03D00C213B
:102BE000184619F02DF900BF0837BD4680BD80B5E5
:102BF00084B000AFF860B9607A607968F86800F076
:102C000088F8B968F86800F092F8FB681846103741
:102C1000BD4680BD80B582B000AF7860396038684D
:102C2000FFF76BFD03461A687B681A607B681846DD
:102C30000837BD4680BD80B483B000AF78607B6844
:102C400018460C37BD4680BC704780B483B000AFD7
:102C500078607B6818460C37BD4680BC704780B5ED
:102C600082B000AF78607B68184600F06BF80346CE
:102C700018460837BD4680BD80B582B000AF786089
:102C80003960386800F068F80346184600F06EF8BE
:102C900003461946786800F089F8386800F070F843
:102CA0000346184600F078F803461946786800F0A5
:102CB00093F87B6818460837BD4680BDB0B586B02E
:102CC00000AFF860B9607A60B868FDF752FF04465B
:102CD0007868FDF758FF024607F1100321461846B1
:102CE00000F087F807F110032A461946F86800F04B
:102CF00097F800BF1837BD46B0BD80B582B000AFB1
:102D000078607868FFF728FA034618460837BD460A
:102D100080BD80B582B000AF78603960396878686E
:102D200000F0B5F87B6818460837BD4680BD80B412
:102D300083B000AF786039607B6818460C37BD46B9
:102D400080BC704780B483B000AF78607B68184661
:102D50000C37BD4680BC704780B483B000AF78604C
:102D60007B6818460C37BD4680BC704780B483B082
:102D700000AF78607B6818460C37BD4680BC704752
:102D800080B582B000AF7860786800F08BF80346B9
:102D900018460837BD4680BD80B483B000AF786068
:102DA0007B6818460C37BD4680BC704780B582B042
:102DB00000AF78603960386800F07EF80346184646
:102DC00000F086F803461946786800F08BF87B68B7
:102DD00018460837BD4680BD80B582B000AF786028
:102DE00039603868FFF7D8FF7B6818460837BD465A
:102DF00080BD90B585B000AFF860B9607A60B86802
:102E0000FDF7B7FE04467868FDF7BDFE03461A4697
:102E10002146F86800F073F8F8681437BD4690BD95
:102E2000F0B589B000AFF860B9603A71FC68FB6832
:102E30000833184600F07CF8014607F11403BA681D
:102E4000184600F082F80546FB680833184600F083
:102E50008AF8014607F11803BA68184600F08FF89F
:102E60000646FB680833184600F09BF8014607F158
:102E70001C03BA68184600F0A0F8034632462946FB
:102E8000204600F0ACF800BF2437BD46F0BD80B44A
:102E900083B000AF786039607B6818460C37BD4658
:102EA00080BC704780B483B000AF78607B68184600
:102EB0000C37BD4680BC704780B582B000AF7860EB
:102EC000786800F0B0F8034618460837BD4680BD64
:102ED00080B483B000AF78607B6818460C37BD467D
:102EE00080BC704780B582B000AF786039603868C8
:102EF000FFF7EEFF7B6818460837BD4680BDB0B5CA
:102F000084B000AFF860B9607A60FC68B868FDF71B
:102F100030FE05467868FDF736FE03461A46294618
:102F2000204600F08AF8FB6818461037BD46B0BD51
:102F300080B582B000AF78607B68184600F09BF8DF
:102F4000034618460837BD4680BD80B584B000AF43
:102F5000F860B9607A60B86800F099F803461846DE
:102F60001037BD4680BD80B582B000AF786078680C
:102F700000F097F8034618460837BD4680BD80B577
:102F800084B000AFF860B9607A60786800F095F8B6
:102F90000346184600F09BF8034618461037BD4616
:102FA00080BD80B582B000AF7860786800F09FF88F
:102FB000034618460837BD4680BD80B584B000AFD3
:102FC000F860B9607A60786800F077F803461846D0
:102FD00000F099F8034618461037BD4680BD2DE92C
:102FE000F04186B002AFF860B9607A603B60F86883
:102FF00000F099F80446B86800F049F8054678688A
:10300000FDF7B7FD06463868FDF7BDFD03460093A2
:1030100033462A462146404600F08FF800BF10375D
:10302000BD46BDE8F08180B483B000AF78607B68B6
:1030300018460C37BD4680BC704790B585B000AFD0
:10304000F860B9607A60FC687868FDF79CFD03461B
:103050001946204600F0A5F8FB681C1DB868FDF76E
:1030600088FD03461946204600F0AEF8FB68184676
:103070001437BD4690BD80B582B000AF78607868E7
:10308000FFF7EDFD034618460837BD4680BD80B406
:1030900083B000AF78607B6818460C37BD4680BCB3
:1030A000704780B582B000AF78607868FFF768FE3F
:1030B000034618460837BD4680BD80B483B000AFD4
:1030C00078607B6818460C37BD4680BC704780B579
:1030D00082B000AF7860786800F086F80346184642
:1030E00000F08FF8034618460837BD4680BD80B50E
:1030F00082B000AF78607868FFF7DEFE03461846BE
:103100000837BD4680BD80B582B000AF7860786872
:1031100000F081F80346184600F08AF80346184686
:103120000837BD4680BD80B483B000AF78607B684F
:1031300018460C37BD4680BC7047F0B585B000AF6F
:103140003873B9607A603B607868FFF7A0FF034688
:103150001B68BA68526802F00102002A02D1BA68FC
:10316000146808E0BA68526852101A441268B968C4
:1031700009680A441468BA68526852109D18386881
:10318000FDF7F7FC03461E68B86AFDF7FCFC034632
:103190001B881A4631462846A04700BF1437BD4653
:1031A000F0BD90B583B000AF786039607C68386856
:1031B000FDF7E9FC03461946204600F043F87B681A
:1031C00018460C37BD4690BD80B582B000AF786020
:1031D00039603868FDF7CDFC02467B681A607B6871
:1031E00018460837BD4680BD80B582B000AF786014
:1031F0007B68184600F036F8034618460837BD4687
:1032000080BD80B483B000AF78607B6818460C370F
:10321000BD4680BC704780B582B000AF78607B68E7
:10322000184600F02BF8034618460837BD4680BD07
:1032300080B483B000AF78607B6818460C37BD4619
:1032400080BC704780B582B000AF78603960386864
:10325000FDF799FC02467B681A607B6818460837C0
:10326000BD4680BD80B582B000AF7860786800F060
:1032700011F8034618460837BD4680BD80B582B0B8
:1032800000AF7860786800F013F8034618460837F6
:10329000BD4680BD80B582B000AF78607B680433E6
:1032A000184600F012F8034618460837BD4680BDA0
:1032B00080B582B000AF78607B68184600F010F8E7
:1032C000034618460837BD4680BD80B483B000AFC2
:1032D00078607B681B6818460C37BD4680BC704719
:1032E00080B483B000AF78607B681B6818460C37E9
:1032F000BD4680BC704780B483B000AF7860396051
:103300007B683A68DA6400BF0C37BD4680BC704702
:1033100080B584B002AF786039607B683A689A649F
:103320007B6800229A637B680022DA637B68002254
:103330001A647B68002283F83420032200210120D4
:1033400008F03DF902467B685A647B689B6C79689B
:1033500001221846FEF7E4FF7B689B6B002B45D1EA
:103360007B68DB6B022B41DC7B681B6C591C7A6829
:103370001164D9B200230193002300930123FE229C
:10338000786800F09BFF7B685B6C40F6B8311846AC
:1033900008F02EFC0346012B14BF01230023DBB2EF
:1033A000002BD9D07B681B6C591C7A681164D9B288
:1033B000002301930023009300230022786800F08B
:1033C0007DFF7B685B6C40F6B831184608F010FC56
:1033D0000346012B14BF01230023DBB2002BBBD01B
:1033E0007B68DB6B5A1C7B68DA63B5E77B6800227D
:1033F000DA637B689B6B0A2B45D17B68DB6B022B06
:1034000041DC7B681B6C591C7A681164D9B20023BB
:103410000193002300930123FE22786800F04EFF01
:103420007B685B6C40F6B831184608F0E1FB034658
:10343000012B14BF01230023DBB2002BD9D07B6802
:103440001B6C591C7A681164D9B2002301930023C4
:10345000009300230022786800F030FF7B685B6CEB
:1034600040F6B831184608F0C3FB0346012B14BFE1
:1034700001230023DBB2002BBBD07B68DB6B5A1C23
:103480007B68DA63B5E77B689B6B472B00F39A8018
:10349000002BC0F22D81472B00F22A8101A252F8A5
:1034A00023F000BFC9350008F1360008F1360008E6
:1034B000F1360008F1360008F1360008F136000850
:1034C000F1360008F1360008F1360008C935000869
:1034D000F1360008F1360008F1360008F136000830
:1034E000F1360008F1360008F1360008F136000820
:1034F000F1360008D1350008F1360008F136000831
:10350000F1360008F1360008F1360008F1360008FF
:10351000F1360008F1360008F1360008F1350008F0
:1035200091360008F1360008F1360008F13600083F
:10353000F1360008F1360008F1360008F1360008CF
:10354000F136000811360008F1360008F13600089F
:10355000F1360008F1360008F1360008F1360008AF
:10356000F1360008F1360008F1360008313600085F
:10357000F1360008F1360008F1360008F13600088F
:10358000F1360008F1360008F1360008F13600087F
:10359000F136000851360008B1360008F13600084F
:1035A000F1360008F1360008F1360008F13600085F
:1035B000F1360008F1360008F136000871360008CF
:1035C000D1360008FF2B93E07B68FF229A638FE0DF
:1035D0007B681B6C591C7A681164D9B20023019373
:1035E0000023009309230122786800F067FE7FE042
:1035F0007B681B6C591C7A681164D9B20023019353
:103600000023009302230122786800F057FE6FE048
:103610007B681B6C591C7A681164D9B20023019332
:103620000023009301230222786800F047FE5FE048
:103630007B681B6C591C7A681164D9B20023019312
:10364000002300930423FE22786800F037FE4FE049
:103650007B681B6C591C7A681164D9B200230193F2
:103660000023009308230322786800F027FE3FE040
:103670007B681B6C591C7A681164D9B200230193D2
:103680000023009307230322786800F017FE2FE041
:103690007B681B6C591C7A681164D9B200230193B2
:1036A0000023009302230022786800F007FE1FE049
:1036B0007B681B6C591C7A681164D9B20023019392
:1036C0000023009310230122786800F0F7FD0FE03B
:1036D0007B681B6C591C7A681164D9B20023019372
:1036E000002300930B230022786800F0E7FD00BF61
:1036F0007B689B6BFF2B09D07B685B6C40F6B83115
:10370000184608F075FA0346012B01D0012300E0AA
:103710000023002B00D1B6E600BF7B689B6C002223
:1037200000211846FEF7FCFD00BF0837BD4680BDEE
:103730002DE9F04196B00AAFF861B9611346FB82FA
:10374000FB69D86C4FF6FF731222B64906F07BF97D
:10375000FB69D86CFA8A4FF6FF73B96906F073F902
:10376000FB69D86C4FF6FF730122AF4906F06BF985
:1037700007F120031846FCF793FF07F12002FB8AAC
:103780001946B869FCF729FF034683F00103DBB251
:10379000002B40F02C85FB699B6B472B00F2458585
:1037A00001A252F823F000BFC93800082B420008DC
:1037B0002B4200082B4200082B4200082B42000835
:1037C0002B4200082B4200082B4200082B42000825
:1037D000373B00082B4200082B4200082B42000810
:1037E0002B4200082B4200082B4200082B42000805
:1037F0002B4200082B420008B53D00082B42000870
:103800002B4200082B4200082B4200082B420008E4
:103810002B4200082B4200082B4200082B420008D4
:10382000FD3D0008194100082B4200082B4200080A
:103830002B4200082B4200082B4200082B420008B4
:103840002B4200082B4200084B3E00082B42000888
:103850002B4200082B4200082B4200082B42000894
:103860002B4200082B4200082B4200082B42000884
:10387000B53E00082B4200082B4200082B420008EE
:103880002B4200082B4200082B4200082B42000864
:103890002B4200082B420008054000085F41000849
:1038A0002B4200082B4200082B4200082B42000844
:1038B0002B4200082B4200082B4200082B42000834
:1038C000CD400008AB41000897F82130FE2B14D101
:1038D00097F82230052B10D13B8D0C2B0DD17B6A34
:1038E0001B78012B09D17B6A01330B224F49184603
:1038F00019F045F80346002B13D097F82130FE2B22
:103900001AD197F82230002B16D13B8D0B2B13D1F7
:103910007B6A0B224549184619F031F80346002B03
:103920000AD1FB690A229A63FB69586C00230022C2
:10393000002107F063FFFDE097F82130002B14D140
:1039400097F82230042B10D13B8D0A2B0DD17B6AC6
:103950001B78022B09D17B6A0133092234491846AE
:1039600019F00DF80346002B13D097F82130002BE7
:103970001AD197F82230002B16D13B8D092B13D189
:103980007B6A09222A49184618F0F9FF0346002BE2
:103990000AD1FB690A229A63FB69586C0023002252
:1039A000002107F02BFFC5E097F82130FE2B14D142
:1039B00097F82230052B10D13B8D0E2B0DD17B6A51
:1039C0001B78012B09D17B6A01330D221949184656
:1039D00018F0D5FF0346002B13D097F82130FE2BAB
:1039E0002AD197F82230002B26D13B8D0D2B23D1E5
:1039F0007B6A0D220F49184618F0C1FF0346002BC1
:103A00001AD1FB691B6C591CFA691164D9B20023E5
:103A10000193002300930223FE22F86900F04EFC7C
:103A200088E000BFACDE0108C0DE0108C4DE01088A
:103A3000D0DE0108DCDE010897F82130FE2B14D11E
:103A400097F82230052B10D13B8D0D2B0DD17B6AC1
:103A50001B78012B09D17B6A01330C228F49184650
:103A600018F08DFF0346002B13D097F82130FE2B62
:103A70001FD197F82230002B1BD13B8D0C2B18D176
:103A80007B6A0C228549184618F079FF0346002B03
:103A90000FD1FB691B6C591CFA691164D9B2002360
:103AA0000193002300930223FE22F86900F006FC34
:103AB00040E097F82130002B14D197F82230042BE6
:103AC00010D13B8D0B2B0DD17B6A1B78022B09D1BA
:103AD0007B6A01330A227249184618F050FF0346E8
:103AE000002B17D097F82130002B40F0828397F8F5
:103AF0002230002B40F07D833B8D0A2B40F07983F0
:103B00007B6A0A226649184618F039FF0346002BE3
:103B100040F06F83FB691B6C591CFA691164D9B2C0
:103B2000002301930023009303230022F86900F08F
:103B3000C5FB5EE35DE397F82130FE2B14D197F8C7
:103B40002230052B10D13B8D0C2B0DD17B6A1B78BD
:103B5000012B09D17B6A01330B225249184618F018
:103B60000EFF0346002B13D097F82130FE2B1FD1F8
:103B700097F82230002B1BD13B8D0B2B18D17B6A81
:103B80000B224849184618F0FAFE0346002B0FD1C5
:103B9000FB691B6C591CFA691164D9B200230193AB
:103BA000002300930323FE22F86900F087FB00E165
:103BB00097F82130002B14D197F82230042B10D124
:103BC0003B8D0A2B0DD17B6A1B78022B09D17B6AB6
:103BD000013309223449184618F0D1FE0346002B60
:103BE00013D097F82130002B1FD197F82230002BEB
:103BF0001BD13B8D092B18D17B6A09222A49184613
:103C000018F0BDFE0346002B0FD1FB691B6C591C3D
:103C1000FA691164D9B200230193002300930323AE
:103C20000022F86900F04AFBC3E097F82130FE2B30
:103C300014D197F82230052B10D13B8D0E2B0DD1CE
:103C40007B6A1B78012B09D17B6A01330D2217494E
:103C5000184618F094FE0346002B13D097F8213035
:103C6000FE2B25D197F82230002B21D13B8D0D2B37
:103C70001ED17B6A0D220D49184618F080FE0346BE
:103C8000002B15D1FB6914229A63FB69586C002341
:103C90000022002107F0B2FD8BE000BFECDE01083E
:103CA000FCDE0108C4DE0108D0DE0108DCDE01080C
:103CB00097F82130FE2B14D197F82230052B10D124
:103CC0003B8D0D2B0DD17B6A1B78012B09D17B6AB3
:103CD00001330C227449184618F051FE0346002B9C
:103CE00013D097F82130FE2B1AD197F82230002BF1
:103CF00016D13B8D0C2B13D17B6A0C226A491846D6
:103D000018F03DFE0346002B0AD1FB6914229A638A
:103D1000FB69586C00230022002107F06FFD48E08A
:103D200097F82130002B14D197F82230042B10D1B2
:103D30003B8D0B2B0DD17B6A1B78022B09D17B6A43
:103D400001330A225949184618F019FE0346002B80
:103D500017D097F82130002B40F04D8297F8223091
:103D6000002B40F048823B8D0A2B40F044827B6A56
:103D70000A224E49184618F002FE0346002B40F076
:103D80003A82FB691F229A63FB6918334849184637
:103D900018F06AFDFB6900225A61FB69032283F86F
:103DA0003420FB69586C00230022002107F026FD17
:103DB00021E220E297F82130012B40F01E8297F893
:103DC0002230042B40F019823B8D022B40F01582EB
:103DD0007B6A1B78012B40F010827B6A01331A78D2
:103DE000FB6983F83420FB691E229A63FB69586CD7
:103DF00000230022002107F001FDFEE197F82130A9
:103E0000012B40F0FC8197F82230042B40F0F78121
:103E10003B8D0A2B40F0F3817B6A1B78012B40F02D
:103E2000EE81FB6903F131007B6A013303221946FD
:103E300018F086F9FB6928229A63FB69586C002305
:103E40000022002107F0DAFCD9E197F82130022B9B
:103E500040F0D78197F82230062B40F0D2813B8D7D
:103E6000042B40F0CE817B6A1B78012B40F0C98186
:103E70007B6A01331B781A047B6A02331B781B02AE
:103E800013437A6A0332127813431A46FB695A6164
:103E9000FB6932229A63FB69586C002300220021DF
:103EA00007F0ACFCADE100BFECDE0108FCDE010870
:103EB00008DF010897F82130FE2B40F0AB8197F81E
:103EC0002230052B40F0A6813B8D0D2B40F0A281C6
:103ED0007B6A1B78012B40F09D81FB6903F1180080
:103EE0007B6A01331B789C467B6A02331B789E46B3
:103EF0007B6A03331B781A467B6A04331B781946A6
:103F00007B6A05331B781C467B6A06331B781D468B
:103F10007B6A07331B781E467B6A08331B783B613C
:103F20007B6A09331B78FB607B6A0A331B78BB60B2
:103F30007B6A0B331B787B607B6A0C331B7809939D
:103F4000D7F80480CDF82080D7F80880CDF81C8001
:103F5000D7F80C80CDF818803B690593049603953B
:103F600002940191009273466246A74918F07CFCC6
:103F7000FB6993F83430012B01D0042B36D17B6AD6
:103F80000B331B781B0243F47F037A6A0C321278DE
:103F900013431A46FB691A61FB691B696FF07F4284
:103FA000934202D1FB69994A1A61FB69181D7B6A29
:103FB00008331B781C467B6A09331B781D467B6AD5
:103FC0000A331B781A467B6A0B331B7819467B6AC7
:103FD0000C331B780293019100922B4622468C49A8
:103FE00018F042FCFB693C229A6303E0FB693C2227
:103FF0009A6300BFFB69586C00230022002107F080
:10400000FDFB07E197F82130032B37D197F82230D9
:10401000012B33D13B8D042B30D17B6A1B78012BD4
:104020002CD17B6A01331B781A047B6A02331B781C
:104030001B0213437A6A033212781343FB62FB6A52
:10404000002B08D0FB6A9BB24FF6FF72934202D05E
:10405000FB69FA6A1A61FB6993F83430032B01D0CB
:10406000462200E0FF22FB699A63FB69586C00233B
:104070000022002107F0C2FB00BFCDE097F82130FD
:10408000032B40F0C98097F82230012B40F0C48008
:104090003B8D012B40F0C0807B6A1B78002B40F0E9
:1040A000BB80FB6993F83430042B04D0FB6993F890
:1040B0003430012B02D1FB69FF229A63FB69586CF3
:1040C00000230022002107F099FBA5E097F821309A
:1040D000032B40F0A38097F82230012B40F09E8004
:1040E0003B8D0B2B40F09A807B6A1B78012B40F0B4
:1040F0009580FB69181D7B6A01330A22194618F066
:104100001FF8FB69FF229A63FB69586C00230022A9
:10411000002107F073FB81E097F82130002B7FD15D
:1041200097F82230042B7BD13B8D072B78D17B6A0B
:104130001B78022B74D1FB6903F131007B6A0433D5
:104140000322194617F0FCFFFB693D229A63FB69C5
:10415000586C00230022002107F050FB60E097F824
:104160002130012B5ED197F82230042B5AD13B8DA0
:10417000062B57D17B6A03331B781A047B6A0433FE
:104180001B781B0213437A6A0532127813431A46CE
:10419000FB691A61FB6947229A63FB69586C00232B
:1041A0000022002107F02AFB3CE097F82130002B89
:1041B0003AD197F82230042B36D13B8D0B2B33D1DB
:1041C0007B6A1B78022B2FD1FB69181D7B6A013398
:1041D0000A22194617F0B4FFFB69FF229A63FB69B4
:1041E000586C00230022002107F008FB1CE000BFF0
:1041F0001BE000BF19E000BF17E000BF15E000BFE3
:1042000013E000BF11E000BF0CDF0108FEFFFF005C
:1042100040DF010800BF08E000BF06E000BF04E087
:1042200000BF02E000BF00E000BF3037BD46BDE880
:10423000F08100BF80B483B000AF78607B68043346
:1042400018460C37BD4680BC704780B483B000AFC1
:1042500078607B681B6918460C37BD4680BC704788
:1042600080B483B000AF78607B685B6918460C3718
:10427000BD4680BC704780B483B000AF78607B6877
:10428000183318460C37BD4680BC704780B483B0E5
:1042900000AF78607B68313318460C37BD4680BC70
:1042A000704780B483B000AF78607B6893F8343097
:1042B00018460C37BD4680BC704700002DE9F0431E
:1042C00089B000AF7860084611461A460346FB7075
:1042D0000B46BB7013467B706B461E4607F1080306
:1042E0001846FCF7DDF97B6C11331946F9610B4672
:1042F00001330022984691464FF000024FF0000330
:104300004FEAC90343EA58734FEAC8020B46013328
:1043100000221C4615464FF000024FF00003EB0050
:1043200043EA5473E2000B4601330733DB08DB003A
:10433000ADEB030D6B460033BB61FB783B72BB7882
:104340007B727B78BB723B6CFB607B6C9BB23B826D
:104350008BB201339AB207F108000123B969FCF767
:10436000ACF90346FB827B68D86C4FF6FF731122D1
:104370000F4905F068FB7B68D86CFA8A4FF6FF732B
:10438000B96905F060FB7B68D86C4FF6FF730122BA
:10439000084905F058FB7B689B6CFA8AB969184696
:1043A000FEF72EF8B54600BF2437BD46BDE8F083C2
:1043B00058DF0108C0DE010880B584B000AF786026
:1043C0000B46FB701346BB707B68FB60FB78FB728F
:1043D000BB78BB72BB7A4FF6FF711846FDF7D9FE6A
:1043E00003467B72FB68FA7ABFF35B8F1A70BFF3E8
:1043F0005B8F00BF00BF1037BD4680BD80B584B065
:1044000000AF78600B46FB707B68FB60FB78FB724B
:10441000FB7A4FF6FF711846FDF7BBFE0346BB72F1
:10442000FB68BFF35B8F1B78BFF35B8FDBB2002BA6
:1044300014BF01230023DBB218461037BD4680BDF0
:1044400080B584B000AF78607B68FB60FB6858681B
:10445000FB689968FB689B891A4612F0AFFB03461C
:104460001A46FB681A75FB6893F914301846103722
:10447000BD4680BD80B58AB000AFF860B960134614
:10448000FB80FB687B61BB68BB61FB88BB8307F17A
:1044900010031946044809F063FB97F924301846C5
:1044A0002837BD4680BD00BF4144000880B584B0B8
:1044B00000AF78607B68FB60FB685868FB6819692F
:1044C000FB689A68FB689B8912F044FA03461A4617
:1044D000FB681A75FB6893F9143018461037BD460F
:1044E00080BD000080B58AB000AFF860B9607A6026
:1044F0007B80FB687B617B68BB617B88BB83BB681F
:104500003B6207F110031946044809F029FB97F9AB
:10451000243018462837BD4680BD00BFAD44000892
:1045200080B582B000AF7860786800F015FB00BFFE
:104530000837BD4680BD80B586B000AFF860B96071
:104540007A603B607B68002B17D07B687B617B685F
:104550001B687B607B6900221A603B8C3A68796932
:10456000F86800F067FB034683F00103DBB2002B21
:10457000E8D078690CF0D0F9E4E700BF1837BD4601
:1045800080BD000080B582B000AF786039607B6884
:104590001846FCF7A3FD0F4A7B681A600E4A3B6879
:1045A000136000210D4800F08DFB00210C4800F045
:1045B00099FB00210B4800F0B5FB00210A4800F0F0
:1045C000D0FB0121094800F0CCFB7B681846083776
:1045D000BD4680BD680E0208C8010020D40100203D
:1045E000D0010020CC010020D8010020DC010020F7
:1045F00090B58BB000AFF860B9607A607B80BB6823
:104600005B89FB61BB685B68BB61FB69032B04D8FA
:10461000F969A64817F0A0FEA0E1BB691B78002B42
:1046200010D07C68A24800F0BBFB03469C4207D137
:10463000A04800F0C2FB03461A467B88934201D093
:10464000012300E00023002B03D09B4817F084FED9
:1046500084E1FB69023BBA6913441C88FB699BB285
:10466000023B9BB21946B869FBF778FF0346184630
:104670000AF046FE03469C4214BF01230023DBB22E
:10468000002B03D08D4817F067FE67E108F026F88D
:1046900003468B4A1360BB691B78072B00F25681D7
:1046A00001A252F823F000BFC9460008DF47000806
:1046B0005B490008074800085D4800087948000881
:1046C00093480008E9480008FB69052B2ED1BB6917
:1046D00002331B78012B29D102217A4800F07AFBA2
:1046E0000021744800F085FB0021774800F091FB21
:1046F0007B6819466E4800F09CFB7B8819466D4824
:1047000000F077FB714B1868002301220121FDF7AF
:1047100021FE01233B75BB695B787B7507F11402B1
:1047200002230021F86800F027F957E0FB69062B07
:104730004FD1BB6902331B78022B4AD1614800F08C
:1047400086FB7862BB6903331B78002B0BD17B6A35
:1047500002337B62796A5B4800F086FB00215A488D
:1047600000F057FB10E0BB6903331B781A467B6AE5
:10477000DBB29A4208D0BB6903331B787A6A1946C8
:10478000534817F0E9FDE9E000214A4800F031FB09
:104790007B681946464800F04CFB7B881946454823
:1047A00000F027FB494B1868002301220121FDF787
:1047B000D1FD02233B75BB695B787B757B6ADBB2FD
:1047C000BB7507F1140203230021F86800F0D4F848
:1047D00004E0F9693F4817F0BFFDBFE0BEE00021EB
:1047E000344800F006FB0021374800F012FB00219E
:1047F0002F4800F01EFB354B1868002300220021D3
:10480000FDF7A8FDAAE0FB69052B04D0F969324841
:1048100017F0A2FDA2E02D4B1868BB6902331B788C
:1048200003F00103002B14BF01230023D9B2BB699D
:1048300002331B7803F00203002B14BF0123002373
:10484000DAB2BB6902331B7803F00403002B14BFF8
:1048500001230023DBB2FDF77DFD7FE0FB69042B24
:1048600004D0F9691D4817F077FD77E0174B1B68F6
:104870001846FDF7A5FD71E0FB69042B04D0F9692A
:10488000174817F069FD69E001210F4800F0C1FAEF
:1048900064E0FB69042B04D0F969124817F05CFD51
:1048A0005CE00021084800F0B4FA57E07CDF010822
:1048B000CC010020D0010020A8DF0108D8DF0108CA
:1048C000E0010020DC010020D4010020C80100200C
:1048D00004E001085CE0010890E00108C0E0010884
:1048E000F4E001082CE10108FB69042B04D8F96904
:1048F0001C4817F031FD31E0F9691B4817F02CFD19
:10490000002387F8233097F82330FA699A420ED9AA
:1049100097F82330BA6913441B781946134817F0E7
:104920001BFD97F82330013387F82330EBE70A208B
:1049300017F02AFD0E4B1868BB69991CFB699BB2E6
:10494000043B9BB21A46FDF75BFD07E0BB691B7891
:104950001946084817F000FD00E000BF2C37BD469F
:1049600090BD00BF60E1010894E10108A0E10108E9
:10497000C8010020A8E1010890B58BB000AFF86035
:104980007A603B600B46FB72294800F016FA03463A
:10499000FB84284800F004FA38623B689BB2043379
:1049A0009BB20022194600200BF03EFCF861FB6927
:1049B0005B68BB613B6A7B61FB8C002B34D0BB69BD
:1049C000FA7A1A7001211C4800F004FA0246BB6909
:1049D0000133D2B21A703B68002B06D0BB69023398
:1049E0003A687968184617F0ABFB3B689BB2023314
:1049F0009BB21946B869FBF7B1FD034619463B68FF
:104A00000233BA69D41808460AF07AFC03462380B8
:104A10000A4B1868FB8C07F11402F969FFF762FD75
:104A2000F8690BF079FF00E000BF2C37BD4690BD60
:104A3000D0010020CC010020D8010020E40100209A
:104A400080B586B000AFF860B9601346FB801C48A3
:104A500000F018FA034683F00103DBB2002B2BD1E0
:104A6000FB8840F2BC52934205D9FB881946154891
:104A700017F072FC21E0FB881946134817F06CFC14
:104A80000023FB75FA7DFB889A420BDAFB7DBA683E
:104A900013441B7819460D4817F05EFCFB7D01336B
:104AA000FB75EFE70A2017F06FFCFB88BA68072157
:104AB000F868FFF761FF00E000BF1837BD4680BD12
:104AC000D4010020E0E1010818E20108A0E101089A
:104AD00080B582B000AF786000220421202006F06B
:104AE0006EFD0346144A1360144A0121144805F070
:104AF00025FF0346134A136012F076F90346124A63
:104B00001360114B1B687A681049184612F028F997
:104B10000D4B1B684FF43C620D491846FFF7AAFC89
:104B20000C4B1B68796800221846FDF7F9FB00BFA3
:104B30000837BD4680BD00BFEC0100203C0E0208D6
:104B400021450008E8010020E40100203745000865
:104B5000CC140208C801002080B586B000AF786090
:104B60000023FB6007F0BAFD78612C4B1B6807F14E
:104B70000C016422184606F099FF0346012B0CBF76
:104B800001230023DBB2002B11D0FB681968FA68FF
:104B9000FB681B8952687868FFF72AFDFB681B6871
:104BA00018460BF0B9FEFB68184617F0B1FA1C481E
:104BB00000F003F90346002B14BF01230023DBB2EE
:104BC000002BD2D007F08AFD3861164B1B6803F525
:104BD0009C5308333A699A4211D90021104800F0D9
:104BE00008F90021104800F024F9104B1868002340
:104BF00000220121FDF7AEFB0D4817F0ADFB3A692D
:104C00007B699A42B1D93B6903F57A737B610023D2
:104C1000002202217868FFF7AFFEA6E7EC01002032
:104C2000D0010020E0010020CC010020C8010020BC
:104C300024E2010890B589B000AFF860B9607A60ED
:104C40007B800C2017F05CFA03467B617B69002BAC
:104C500001D100232FE07B69BA681A60BB685B68EA
:104C60001C3BFB617B69FA69D2685A60BB685B6870
:104C7000083BBB61BB691B889BB27C6918460AF084
:104C80003FFB034623810E4B186807F114010023F4
:104C90004FF0FF3206F0B2FD0346012B14BF012393
:104CA0000023DBB2002B05D07B69184617F030FAE1
:104CB000002300E0012318462437BD4690BD00BF05
:104CC000EC01002080B582B000AF78600B46FB702D
:104CD000FB78002219467868FFF76EFB00BF0837A3
:104CE000BD4680BD80B584B000AF78600B467B8048
:104CF0007B68FB607B887B8100237B727B7A4FF62D
:104D0000FF711846FDF745FA03463B72FB68BFF397
:104D10005B8F7A891A80BFF35B8F00BF00BF1037AB
:104D2000BD4680BD80B586B000AF786039607B68D5
:104D30007B613B683B610023FB73FB7B4FF6FF719C
:104D40001846FDF726FA0346BB737B69BFF35B8FFA
:104D50003A691A60BFF35B8F00BF00BF1837BD46CA
:104D600080BD80B586B000AF786039607B687B61BC
:104D70003B683B610023FB73FB7B4FF6FF711846DA
:104D8000FDF707FA0346BB737B693A69BFF35B8F94
:104D90001A60BFF35B8F00BF00BF1837BD4680BDF0
:104DA00080B582B000AF78600521786800F077F8B0
:104DB000034618460837BD4680BD80B582B000AFB7
:104DC00078600521786800F087F8034618460837B0
:104DD000BD4680BD80B582B000AF786039600522E5
:104DE0003968786800F096F8034618460837BD46DB
:104DF00080BD80B582B000AF78600B467B807B8839
:104E000005221946786800F0A7F800BF0837BD46AC
:104E100080BD80B582B000AF78600B46FB70FB7838
:104E200005221946786800F0B9F800BF0837BD467A
:104E300080BD80B582B000AF7860396005223968E6
:104E4000786800F0BDF800BF0837BD4680BD80B56A
:104E500082B000AF78600521786800F0D2F8034690
:104E600018460837BD4680BD80B582B000AF786077
:104E7000396005223968786800F0DFF800BF08372C
:104E8000BD4680BD80B582B000AF786005217868EE
:104E900000F0F4F8034618460837BD4680BD80B5DB
:104EA00084B000AF78600B46FB707B68FB60FB78DA
:104EB000FB72FB7A4FF6FF711846FDF76AF903465D
:104EC000BB72FB68BFF35B8F1B68BFF35B8F00BFD8
:104ED00018461037BD4680BD80B584B000AF7860FD
:104EE0000B46FB707B68FB60FB78FB72FB7A4FF62E
:104EF000FF711846FDF74DF90346BB72FB68BFF31F
:104F00005B8F1B88BFF35B8F9BB200BF18461037C7
:104F1000BD4680BD80B489B000AFF860B96013466B
:104F2000FB71FB68FB61BB68BB61FB79FB75FB69CF
:104F3000BA69BFF35B8F53E8001F01EB020043E83F
:104F4000000CBCF1000FF6D1BFF35B8F0B46184687
:104F50002437BD4680BC704780B584B000AF786010
:104F60000B467B8013467B707B68FB607B887B8174
:104F70007B787B727B7A4FF6FF711846FDF709F953
:104F800003463B72FB68BFF35B8F7A891A80BFF3DD
:104F90005B8F00BF00BF1037BD4680BD80B582B0BB
:104FA00000AF78600B46FB701346BB70BA78FB7895
:104FB00019467868FFF700FA00BF0837BD4680BD84
:104FC00080B588B000AFF860B9601346FB71FB682C
:104FD000FB61BB68BB61FB79FB75FB7D4FF6FF7125
:104FE0001846FDF7D6F80346BB75FB69BFF35B8F28
:104FF000BA691A60BFF35B8F00BF00BF2037BD46A0
:1050000080BD80B584B000AF78600B46FB707B68D4
:10501000FB60FB78FB72FB7A4FF6FF711846FDF7D9
:10502000B8F80346BB72FB68BFF35B8F1B68BFF326
:105030005B8F18461037BD4680BD80B588B000AF85
:10504000F860B9601346FB71FB68FB61BB68BB612C
:10505000FB79FB75FB7D4FF6FF711846FDF799F85C
:105060000346BB75FB69BA69BFF35B8F1A60BFF378
:105070005B8F00BF00BF2037BD4680BD80B582B0CA
:1050800000AF78600B46FB70FB7819467868FFF735
:10509000B5F9034618460837BD4680BD80B483B0D5
:1050A00000AF7860396000BF0C37BD4680BC7047E8
:1050B00080B500AF4FF6FF710120FFF7EFFF80BD15
:1050C00080B582B000AF7860074A7B681360074BF9
:1050D0001B68986800230222002117F087FA00BF9E
:1050E0000837BD4680BD00BFF00100204000002011
:1050F00080B483B000AF786000BF074B1B6803F03B
:105100004003002BF9D07B68DAB2034B5A6000BF32
:105110000C37BD4680BC70470038014080B483B076
:1051200000AF78603960054B6FF025021A604FF0D0
:10513000FF3318460C37BD4680BC7047849F002063
:1051400080B586B000AFF860B9607A6000237B61FB
:1051500009E0BB685A1CBA601B781846FFF7C8FF05
:105160007B6901337B617A697B689A42F1DB7B68FA
:1051700018461837BD4680BD80B483B000AF786054
:105180007B68002B04DB7B68022B01DC012303E03E
:10519000044B09221A60002318460C37BD4680BC18
:1051A000704700BF849F002080B483B000AF786058
:1051B0007B68002B04DB7B68022B01DC002304E00E
:1051C000044B09221A604FF0FF3318460C37BD46D6
:1051D00080BC7047849F002080B485B000AFF86029
:1051E000B9607A60044B09221A604FF0FF33184609
:1051F0001437BD4680BC7047849F002080B586B0C0
:1052000000AFF860B9607A60FB68002B10D10D4BDD
:1052100018684FF0FF330122B96804F0A6FC03467A
:10522000FB75FB7D002B01D1012306E0052304E083
:10523000054B09221A604FF0FF3318461837BD4658
:1052400080BD00BFF0010020849F002080B483B0A7
:1052500000AF786039607B683A681A607B681846EE
:105260000C37BD4680BC704780B582B000AF786017
:105270007B681B68184600F0B2FA034618460837E8
:10528000BD4680BD80B582B000AF78607868FFF71A
:10529000EBFF034618460837BD4680BD80B582B097
:1052A00000AF78600B46FB707B681B681A46FB7882
:1052B0001946104600F0A1FA7B6818460837BD462B
:1052C00080BD80B582B000AF78600B46FB70786817
:1052D000FFF7D8FF03461A46FB78934206D0FB78C7
:1052E00019467868FFF7DAFF034600E07B68184646
:1052F0000837BD4680BD80B483B000AF78603960A8
:105300007B683A681A607B6818460C37BD4680BCDB
:10531000704780B584B000AF78607B681A6807F189
:105320000C0311461846FFF791FFFB68184610372B
:10533000BD4680BD80B483B000AF78607B681B68D9
:105340005A1C7B681A607B6818460C37BD4680BCC7
:10535000704780B584B000AF7860396007F10C0306
:1053600039681846FFF772FF07F10C031846FFF77C
:1053700089FF034618461037BD4680BD80B586B00C
:1053800000AFF860B9601346FB7107F11403B96808
:105390001846FFF75BFFFA7907F114031146184628
:1053A000FFF77CFF00BF1837BD4680BD80B582B0D7
:1053B00000AF78607B68184621231A46002116F05A
:1053C000E7FE7B68213321220021184616F0E0FE1B
:1053D0007B68503341220021184616F0D9FE7868C8
:1053E00000F006F87B6818460837BD4680BD00000F
:1053F00080B582B000AF786000212248FFF7A9FF96
:1054000003469E2B14BF01230023DBB2002B03D0E5
:10541000786800F071F831E091211A48FFF799FFA0
:105420000346002B14BF01230023DAB27B6883F804
:10543000422090211348FFF78CFF03461A467B68F1
:10544000C3F894207B6821331A4601210D4800F0EF
:10545000FAF87B6844331A4684210A4800F027F999
:105460007B6848331A468821064800F020F97B689B
:105470004C331A468C21034800F019F90837BD4611
:1054800080BD00BFF401002080B582B000AF78601D
:105490007B6893F842301A4691211648FFF76EFF59
:1054A0007B68D3F89430DBB21A4690211148FFF79D
:1054B00065FF7B6844331A4684210E4800F02BF9BF
:1054C0007B6848331A4688210A4800F024F97B6833
:1054D0004C331A468C21074800F01DF97B682133B4
:1054E0001A460121034800F048F900BF0837BD46BD
:1054F00080BD00BFF401002080B582B000AF7860AD
:105500009E2200211248FFF739FF7B68012283F8B1
:1055100042207B68FF22C3F894207B6800225A64F3
:105520007B6800229A647B680022DA647B682133FE
:10553000084A2021184617F063F97868FFF7A4FF9E
:105540007868FFF755FF00BF0837BD4680BD00BF34
:10555000F40100203CE2010880B483B000AF786021
:105560007B68213318460C37BD4680BC704780B439
:1055700083B000AF78607B6893F8423018460C37F0
:10558000BD4680BC704780B483B000AF78607B6854
:105590005B6C18460C37BD4680BC704780B483B046
:1055A00000AF78607B689B6C18460C37BD4680BCAA
:1055B000704780B483B000AF78607B68DB6C1846BE
:1055C0000C37BD4680BC704780B584B000AFF86032
:1055D000B9603B601346FB71FB6821332022B96838
:1055E000184617F0E0F9FB79002B14BF01230023C4
:1055F000DAB2FB6883F84220FB683A685A64FB68B9
:10560000BA699A64FB68FA69DA6400BF1037BD466C
:1056100080BD80B483B000AF78607B68D3F89430ED
:1056200018460C37BD4680BC704780B483B000AFCD
:10563000786039607B683A68C3F8942000BF0C3703
:10564000BD4680BC704780B588B000AFF860B960D7
:105650007A6007F11003B9681846FFF74CFE7B68C3
:10566000FB612123BB61BB69002B1BD007F1100339
:105670001846FFF74EFE03467B6107F114031846F8
:10568000FFF700FE03461946FB695A1CFA610A46F9
:105690001A70BB69013BBB6107F110031846FFF7A5
:1056A00049FEE0E77B6818462037BD4680BD80B5DF
:1056B00088B000AFF860B9607A6007F11003B9688C
:1056C0001846FFF718FE7B68FB610423BB61BB69CA
:1056D000002B1BD007F110031846FFF71AFE0346F4
:1056E0007B6107F114031846FFF7CCFD034619460A
:1056F000FB695A1CFA610A461A70BB69013BBB611F
:1057000007F110031846FFF715FEE0E77B6818461F
:105710002037BD4680BD80B588B000AFF860B96065
:105720007A6007F11003B9681846FFF7E4FD7B685B
:10573000FB610423BB61BB69002B19D007F1100387
:105740001846FFF7E6FD03467B61FB695A1CFA61C8
:105750001A7807F1140311461846FFF7B2FDBB692A
:10576000013BBB6107F110031846FFF7E3FDE2E7D9
:105770007B6818462037BD4680BD80B588B000AF35
:10578000F860B9607A6007F11003B9681846FFF74E
:10579000B2FD7B68FB612123BB61BB69002B19D083
:1057A00007F110031846FFF7B4FD03467B61FB6960
:1057B0005A1CFA611A7807F1140311461846FFF7CC
:1057C00080FDBB69013BBB6107F110031846FFF781
:1057D000B1FDE2E77B6818462037BD4680BD80B545
:1057E00082B000AF786000F03BF8786800F016F8FF
:1057F000034618460837BD4680BD80B582B000AF6D
:1058000078600B46FB70FB781946786800F016F854
:1058100000F038F800BF0837BD4680BD80B483B0C3
:1058200000AF7860044A7B6813441B7818460C3735
:10583000BD4680BC704700BFF801002080B483B033
:1058400000AF78600B46FB70044A7B681344FA781B
:105850001A7000BF0C37BD4680BC7047F8010020AD
:1058600080B500AF054A064B104619464FF4006359
:105870001A4616F065FC00BF80BD00BFF80100208D
:1058800000F8030880B58CB000AF0023FB622D4BFD
:10589000BB622D4B7B6200237B604FF000024FF018
:1058A0000003C7E906230023BB600123FB60254BEF
:1058B0003B6101237B6102F02FF80346002B0CBFF4
:1058C00001230023DBB2002B38D0204B40F215120D
:1058D000DA603A1D07F108031146184602F004F990
:1058E0000346002B0CBF01230023DBB2002B23D087
:1058F000BA6A7B6A9A421FD8FB6A154A1344D3E9F5
:105900000023C7E90623D7E90623B96A032001F07B
:1059100093FF0346002B0CBF01230023DBB2002BB7
:1059200006D0BB6A0833BB62FB6A0833FB62DFE761
:105930007B6A0133BB62DBE702F014F800BF30374B
:10594000BD4680BD00F80308FFFF030800200240A9
:10595000F801002080B584B000AF1C4B9B691B4A46
:1059600043F001039361194B9B6903F00103BB6092
:10597000BB68164BDB69154A43F08053D361134B68
:10598000DB6903F080537B607B6800220F216FF09E
:10599000010000F0CCFD00220521052000F0C7FD2C
:1059A000052000F0E0FD0A4B5B68FB60FB6823F01C
:1059B000E063FB60FB6843F00073FB60044AFB6834
:1059C000536000BF1037BD4680BD00BF00100240CD
:1059D0000000014080B584B000AF78607B681B6830
:1059E0000D4A934213D10D4BDB690C4A43F002037D
:1059F000D3610A4BDB6903F00203FB60FB68002202
:105A000005211D2000F093FD1D2000F0ACFD00BF1E
:105A10001037BD4680BD00BF0004004000100240AA
:105A200080B588B000AF786007F10C0300221A60DF
:105A30005A609A60DA607B681B68194A93422AD1DF
:105A4000184B9B69174A43F010039361154B9B69F0
:105A500003F01003BB60BB684FF4E073FB600223EC
:105A60003B610223BB6107F10C0319460E4802F0AB
:105A7000E3F80E4B5B68FB61FB6923F44063FB6159
:105A8000FB6943F0E063FB61FB6943F44063FB6146
:105A9000064AFB69536000BF2037BD4680BD00BF8A
:105AA00000040040001002400010014000000140CE
:105AB00080B58CB000AF786007F1200300221A6037
:105AC0005A609A60DA607B681B683E4A93423DD117
:105AD0003D4BDB693C4A43F48013D3613A4BDB69AD
