:020000040800F2
:1000000000000120CD620008955B00089B5B0008A2
:10001000A15B0008A75B0008AD5B000800000000C2
:1000200000000000000000000000000051D800089F
:10003000B35B00080000000041D90008BF5B000866
:1000400015630008156300081563000815630008B0
:1000500015630008D95B00081563000815630008E4
:100060001563000815630008156300081563000890
:100070001563000815630008156300081563000880
:100080001563000815630008156300081563000870
:100090001563000815630008156300081563000860
:1000A0001563000815630008156300081563000850
:1000B00015630008E55B0008156300081563000878
:1000C0001563000815630008156300081563000830
:1000D0001563000815630008156300081563000820
:1000E0001563000815630008156300080000000090
:1000F0000000000000000000000000000000000000
:1001000000000000000000001563000815630008EF
:1001100015630008156300081563000815630008DF
:1001200015630008156300081563000815630008CF
:1001300015630008F95B00081563000815630008E3
:1001400015630008156300081563000815630008AF
:10015000000000000000000000000000000000009F
:10016000000000000000000000000000000000008F
:10017000000000000000000000000000000000007F
:10018000000000000000000000000000000000006F
:10019000000000000000000000000000000000005F
:1001A000000000000000000000000000000000004F
:1001B000000000000000000000000000000000003F
:1001C000000000000000000000000000000000002F
:1001D000000000000000000000000000000000001F
:0401E0005FF8E0F1F3
:1001F00010B5054C237833B9044B13B10448AFF361
:1002000000800123237010BDB80000200000000012
:1002100000DC010808B5034B1BB103490348AFF3E9
:10022000008008BD00000000BC00002000DC0108C8
:1002300010F8012B11F8013B012A28BF9A42F7D090
:10024000D01A7047034613F8012B002AFBD1181A65
:100250000138704753B94AB9002908BF00281CBFAC
:100260004FF0FF314FF0FF3000F076B9ADF1080CE0
:100270006DE904CE00F006F8DDF804E0DDE90223C4
:1002800004B070472DE9F047089E0D4604468846A5
:10029000002B4DD18A42944668D9B2FA82F252B10B
:1002A00001FA02F3C2F1200120FA01F10CFA02FC7A
:1002B00041EA030894404FEA1C41B8FBF1F71FFAEA
:1002C0008CFE01FB178807FB0EF0230C43EA084362
:1002D00098420AD91CEB030307F1FF3580F01E8119
:1002E000984240F21B81023F63441B1AB3FBF1F0BA
:1002F00001FB103300FB0EFEA4B244EA0344A64502
:100300000AD91CEB040400F1FF3380F00981A645F3
:1003100040F20681644402380021A4EB0E0440EA56
:1003200007401EB10023D440C6E90043BDE8F08772
:100330008B4208D9002E00F0EE800021C6E90005AE
:100340000846BDE8F087B3FA83F100294AD1AB42F1
:1003500002D3824200F2FC80841A65EB0303012081
:100360009846002EE2D0C6E90048DFE702B9FFDE7A
:10037000B2FA82F2002A40F09180A1EB0C00012138
:100380004FEA1C471FFA8CFEB0FBF7F307FB130084
:10039000250C45EA00450EFB03F0A84208D91CEBEA
:1003A000050503F1FF3802D2A84200F2CE80434691
:1003B0002D1AB5FBF7F007FB10550EFB00FEA4B29B
:1003C00044EA0544A64508D91CEB040400F1FF35B6
:1003D00002D2A64500F2B6802846A4EB0E0440EAFD
:1003E00003409EE7C1F120078B4022FA07FC4CEA4C
:1003F000030C25FA07FA4FEA1C49BAFBF9F820FA70
:1004000007F309FB18AA8D401FFA8CFE1D4300FA62
:1004100001F308FB0EF02C0C44EA0A44A04202FA55
:1004200001F20BD91CEB040408F1FF3A80F088803C
:10043000A04240F28580A8F102086444241AB4FB6B
:10044000F9F009FB104400FB0EFEADB245EA04448E
:10045000A64508D91CEB040400F1FF356CD2A64573
:100460006AD90238644440EA0840A0FB0295A4EB34
:100470000E04AC42C846AE4656D353D0002E69D0C7
:10048000B3EB080264EB0E0422FA01F304FA07F757
:100490001F43CC40C6E90074002147E70CFA02FC78
:1004A000C2F1200125FA01F34FEA1C4720FA01F1BD
:1004B00095400D43B3FBF7F107FB11331FFA8CFE98
:1004C000280C40EA034001FB0EF3834204FA02F4D5
:1004D00008D91CEB000001F1FF382FD283422DD93F
:1004E00002396044C01AB0FBF7F307FB1300ADB24A
:1004F00045EA004503FB0EF0A84208D91CEB0505B0
:1005000003F1FF3816D2A84214D9023B6544281AD9
:1005100043EA014138E73146304607E72F46E4E633
:100520001846F9E64B45A9D2B9EB020865EB0C0E6B
:100530000138A3E74346EAE7284694E74146D1E776
:10054000D0467BE76444023847E7023B65442FE727
:10055000084606E73146E9E6704700BF80B485B03B
:1005600000AF78600B467B804DF27F73FB817B8808
:100570005A1E7A80002B14BF01230023DBB2002B0C
:1005800025D07B685A1C7A601B781B021AB2B7F917
:100590000E3053401BB2FB810023BB60BB68072BAE
:1005A000E5DCB7F90E30002B0ADAFB895B00FB8132
:1005B000FB8983F4FF4383F07A03DB43FB8102E092
:1005C000FB895B00FB81BB680133BB60E6E7FB890D
:1005D00018461437BD4680BC704780B586B000AF62
:1005E000F8600B467A607B817B89072B01D800235A
:1005F00052E0FB681B78FD2B01D000234CE0FB6828
:1006000001331B781B021AB2FB6802331B781BB242
:1006100013431BB29BB2033B9AB27B681A817B687F
:100620001B8903F108027B899A4201D0002333E041
:100630007B89023BFA6813441B781B021AB27B8940
:10064000013BF9680B441B781BB213431BB2FB82BE
:100650007B89023B9BB21946F868FFF77FFF034690
:100660001A46FB8A934214BF01230023DBB2002BFE
:1006700001D0002310E0FB68DA787B685A70FB68D1
:100680001A797B681A70FB685A797B689A70FB68E4
:100690009A1D7B685A60012318461837BD4680BDF5
:1006A00080B483B000AF78607B6800221A817B68D9
:1006B00018460C37BD4680BC704780B586B000AF89
:1006C000F860B96011461A460B46FB8013467B71F1
:1006D000FB681B89DA1DFB889A4201DB00238AE054
:1006E000BB68FD221A70FB681B8903331A12BB68B2
:1006F0000133D2B21A70FB681B89DAB2BB680233CD
:100700000332D2B21A70BB680333FA6852781A7097
:10071000BB680433FA6812781A70BB680533FA684C
:1007200092781A70FB681B89002B08D0BB68981D53
:10073000FB685968FB681B891A461BF029FEFB6899
:100740001B8906339BB21946B868FFF707FF0346BB
:100750007B827B8A1B0A99B2FB681B890633BA68C5
:100760001344CAB21A70FB681B890733BA68134472
:100770007A8AD2B21A70FB681B890833FB827B79B4
:10078000002B37D00123BB82BA8AFB8A9A4231D22E
:10079000BB8ABA6813441B78FC2B05D0BB8ABA68A5
:1007A00013441B78FD2B21D1BB8A0133BA68D018C2
:1007B000BB8ABA68D118FA8ABB8AD31A1A461BF0C8
:1007C000F5FDBA68BB8A591CB9821344FC221A7021
:1007D000BB8ABA6813441A78BB8AB9680B4402F022
:1007E0007F02D2B21A70FB8A0133FB82BB8A0133CB
:1007F000BB82C9E7FB8A18461837BD4680BD00009A
:1008000080B584B000AF7860154B1B785A1C154B2F
:1008100083FB02139910D317C91A0B465B000B44D4
:10082000DB00D11ACAB20E4B1A700023FB73FB7B9C
:10083000022B11D8FB7B0C4A52F82330002B0AD034
:10084000FB7B094A52F82330184600F0BFF8FB7BC7
:100850000133FB73EBE700BF7D200BF04DFFD3E7C7
:10086000D4000020ABAAAA2AD800002080B582B00C
:1008700000AF786039600E4A3B681360786804F016
:10088000A4FE024613461B029B1A0A4A13600A4B37
:100890001B68002B07D1094A002109480AF07CF99E
:1008A0000346054A136000BF0837BD4680BD00BF40
:1008B000E8000020EC000020E40000204C0F0208BB
:1008C0000108000880B485B000AF78600B467B80DB
:1008D0000023FB73FB7B022B12D8FB7B0B4A52F8E5
:1008E0002330002B08D1FB7B08497A6841F823208C
:1008F0007B687A885A8003E0FB7B0133FB73E9E76E
:100900007B6818461437BD4680BC7047D80000206D
:1009100080B582B000AF78600B46FB707B68FA78D8
:100920001A70786800F052F800BF0837BD4680BDE5
:1009300080B483B000AF78600B46FB707B685B8847
:10094000002B0CD1FB78002B03D01E4B1B681A46E2
:1009500000E000221C4B1B681B685A632DE07B687B
:100960005B88042B0CD1FB78002B03D0154B1B6844
:100970001A4600E00022144B1B681B689A631CE0B7
:100980007B685B88082B0CD1FB78002B03D00D4BC8
:100990001B681A4600E000220B4B1B681B68DA63D9
:1009A0000BE0FB78002B03D0064B1B681A4600E0D7
:1009B0000022054B1B681B681A6400BF0C37BD463C
:1009C00080BC7047EC000020E800002080B582B0B9
:1009D00000AF78607B681B78052B4FD801A252F8D6
:1009E00023F000BFFD090008070A0008110A0008EB
:1009F0002D0A0008490A0008650A000800217868E5
:100A0000FFF796FF3AE001217868FFF791FF35E0A4
:100A10001C4B1B7803F00403002B0CBF01230023A5
:100A2000DBB219467868FFF783FF27E0154B1B7888
:100A300003F00403002B14BF01230023DBB219468B
:100A40007868FFF775FF19E00E4B1B7803F0010380
:100A5000002B0CBF01230023DBB219467868FFF797
:100A600067FF0BE0074B1B780B2B94BF0123002380
:100A7000DBB219467868FFF75BFF00BF00BF08379D
:100A8000BD4680BDD400002080B483B000AF786044
:100A90007B6800229A607B6818460C37BD4680BC94
:100AA000704780B483B000AF78607B689B68002B90
:100AB0000CBF01230023DBB218460C37BD4680BCB7
:100AC000704780B582B000AF786039607B681846A7
:100AD000FFF7DAFF386800F03CF80346002B0DD032
:100AE0003B689B6878683968022298473B68DA68F7
:100AF0007B68DA603B689A687B689A607B68184616
:100B00000837BD4680BDF0B585B000AFF860B9606C
:100B10001346FB80FB681846FFF7C3FF0346002B14
:100B200001D01BF0CBFAFB68DC68FD6807F1080315
:100B3000184600F01EF80646BB1D184600F023F8C4
:100B400003461A4631462846A04700BF1437BD4623
:100B5000F0BD80B582B000AF78607B681846FFF7C3
:100B6000A0FF034683F00103DBB218460837BD46F9
:100B700080BD80B483B000AF78607B6818460C37C6
:100B8000BD4680BC704780B483B000AF78607B689E
:100B900018460C37BD4680BC7047000080B400AFDB
:100BA000BFF34F8F00BF064BDB6803F4E0620449DC
:100BB000044B1343CB60BFF34F8F00BF00BFFDE773
:100BC00000ED00E00400FA05B0B594B000AF07F105
:100BD00018033822002118461BF002FC0123BB61D8
:100BE0004FF480333B6204237B620123FB624FF4AA
:100BF0008033FB610223BB634FF48033FB634FF40C
:100C0000E0133B6402237B644FF4C063BB64402366
:100C1000FB6407F11803184607F014FA0346002B8B
:100C200014BF01230023DBB2002B01D000F020FD14
:100C3000114B3C1D1D460FCD0FC42B6823603B1D7F
:100C40000221184607F014FD0346002B14BF0123B0
:100C50000023DBB2002B01D000F00AFD00224FF090
:100C6000C061002007F0EEFD044B01221A6000BFB6
:100C70005037BD46B0BD00BF28DC010870004242BD
:100C800080B58EB000AF554B554A1A60534B0022C9
:100C90005A60524B00229A60504B4FF6FF72DA6056
:100CA0004E4B00221A614D4B00229A614B4807F0CF
:100CB0002FFF0346002B14BF01230023DBB2002BC0
:100CC00001D000F0D5FC07F1280300221A605A6019
:100CD0009A60DA604FF48053BB6207F1280319462B
:100CE0003E4808F02DFA0346002B14BF01230023D1
:100CF000DBB2002B01D000F0BBFC384807F057FFF7
:100D00000346002B14BF01230023DBB2002B01D0CC
:100D100000F0AEFC00233B6200237B6207F120035E
:100D200019462E4808F0ACFD0346002B14BF0123E2
:100D30000023DBB2002B01D000F09AFC3B1D002207
:100D40001A605A609A60DA601A615A619A61602387
:100D50007B600223FB603B1D002219461F4808F000
:100D600031F90346002B14BF01230023DBB2002B13
:100D700001D000F07DFC3B1D04221946174808F005
:100D800021F90346002B14BF01230023DBB2002B03
:100D900001D000F06DFC3B1D082219460F4808F0F9
:100DA00011F90346002B14BF01230023DBB2002BF3
:100DB00001D000F05DFC094804F00EFE0021074858
:100DC00007F04EFF0421054807F04AFF08210348B9
:100DD00007F046FF00BF3837BD4680BDF000002059
:100DE0000004004080B500AF134B144A1A60124B48
:100DF0004FF4E1325A60104B00229A600E4B0022F1
:100E0000DA600D4B00221A610B4B0C225A610A4B1F
:100E100000229A61084B0022DA61074808F0A8FD19
:100E20000346002B14BF01230023DBB2002B01D0AB
:100E300000F01EFC00BF80BD3801002000380140DA
:100E400080B588B000AF424B9B69414A43F0100324
:100E500093613F4B9B6903F01003FB60FB683C4BC5
:100E60009B693B4A43F020039361394B9B6903F034
:100E70002003BB60BB68364B9B69354A43F00403D3
:100E80009361334B9B6903F004037B607B68304BB9
:100E90009B692F4A43F0080393612D4B9B6903F034
:100EA00008033B603B68002242F23021294807F0EA
:100EB000B0F8002240F20721274807F0AAF80122E3
:100EC00044F24001244807F0A4F807F1100300227F
:100ED0001A605A609A60DA6042F230233B61012363
:100EE0007B610023BB610223FB6107F110031946FC
:100EF000184806F0F3FE01233B6100237B610123C8
:100F0000BB6107F110031946124806F0E7FE44F2F0
:100F100047233B6101237B610023BB610223FB610B
:100F200007F1100319460C4806F0D8FE4FF4807301
:100F30003B6102237B610223FB6107F11003194629
:100F4000064806F0CBFE00BF2037BD4680BD00BF7F
:100F50000010024000100140000C01400008014058
:100F600080B582B000AF7860094B93F83B309B109E
:100F7000DBB203F00103002B01D0064B00E0064B6F
:100F8000194606481BF010FB00BF0837BD4680BD60
:100F9000540A00203CDC010840DC010848DC010860
:100FA00080B500AF00224FF48041084807F031F8C7
:100FB000322005F013FA01224FF48041034807F074
:100FC00028F8FA2005F00AFA00BF80BD000C0140A5
:100FD00080B584B000AF3B4600221A605A609A6028
:100FE000DA6008233B6001237B600023BB6002239F
:100FF000FB603B461946074806F070FE00220821B8
:10100000044807F006F8FFF7CBFF00BF1037BD46D6
:1010100080BD00BF0008014080B588B000AFF86017
:10102000B9607A603B6001212B4806F0DBFF034684
:10103000002B0CBF01230023DBB2002B48D0022180
:10104000B868FFF765FC0023FB7705F0BDF9B861D0
:101050004FF47A73FB8201211F4806F0C3FF034659
:10106000002B0CBF01230023DBB2002B2CD005F09A
:10107000ABF938613A69BB69D21AFB8A9A42EAD95C
:10108000FB7F0133FB773B69BB61FB7F032B03D9FC
:101090000421B868FFF73CFCFB7F062BDBD900215D
:1010A000B868FFF735FC01213868FFF731FC0121F2
:1010B0007868FFF72DFCF86804F0FAF94FF4FA703D
:1010C00005F08CF9FFF76AFD0021B868FFF720FCF6
:1010D00000BF2037BD4680BD0010014080B483B002
:1010E00000AF7860044A7B681A607B6818460C374A
:1010F000BD4680BC704700BF9C0F020880B582B01F
:1011000000AF78607B681846FFF7E8FF134A7B68FA
:101110001A607B68043300221A605A60C3F8072003
:101120007B6800221A617B6800225A617B68183351
:101130001E22002118461BF053F97B68363300212C
:101140000A461A800A469A707B68002283F8392082
:101150007B6818460837BD4680BD00BFD00F020827
:1011600090B5CDB002AF07F59473A3F592731860F4
:1011700097481BF0B3FA07F18003184604F0EEF825
:1011800007F1800207F17C031146184605F060F86C
:1011900007F1780300211846FFF794FB07F1740369
:1011A00004211846FFF78EFB07F17003082118464B
:1011B000FFF788FB07F1800386491846FFF756FBC7
:1011C00007F1780300211846FFF7A2FB07F174032B
:1011D00000211846FFF79CFB07F170030021184619
:1011E000FFF796FB07F1700307F1740207F178012E
:1011F00007F18000FFF710FF07F174030221184682
:10120000FFF786FB74481BF069FAFFF7E1FE07F170
:101210008003184608F052FF704B93F83B309B1048
:10122000DBB203F00103002B02D16D481BF056FA2C
:1012300007F18003184604F06BF903461946694824
:101240001BF0B2F968481BF049FA07F1780307F17F
:10125000700207F1740107F1640001F01DF807F155
:101260006403184601F062F860481BF037FA604BDF
:101270001B68184600F00EFF07F18003184604F0C3
:1012800047F94FF416730193502300930223002271
:10129000584900F0F1FB07F18003184604F038F9D3
:1012A0004FF4167301934FF43C6300930323002221
:1012B000514900F0E1FB07F18003184604F028F9DA
:1012C0004FF4167301937B230093032300224B49B1
:1012D00000F0D2FB4A481BF001FA07F11003184650
:1012E000FFF70CFF07F110034649184602F013F808
:1012F00007F1640207F110031146184602F018F8CE
:1013000007F11003184602F0DCFF034687F823318B
:1013100097F82331002B00F0898097F82331042BB4
:1013200009D0042B0FDC012B09D0032B0BD136483D
:101330001BF0D4F90BE035481BF0D0F907E0344836
:101340001BF0CCF903E033481BF0C8F900BF07F1EC
:101350001003184602F07EFF034619462E481BF084
:1013600023F907F11003184602F095FF03461946CA
:101370002A481BF019F907F11003184602F075FF0F
:101380000346194626481BF00FF907F110031846CB
:1013900002F076FF0346194622481BF005F907F1D3
:1013A0001003184602F082FFC7F81C01D7F81C3161
:1013B0001B781946D7F81C3101331B781A46D7F829
:1013C0001C3102331B7818481BF0EEF831E000BFE7
:1013D00064DC0108F000002078DC0108540A0020D9
:1013E00088DC0108A0DC0108B0DC0108D0DC0108C1
:1013F000D89D0020E0DC0108E8DC0108F4DC0108ED
:10140000FCDC0108380100201CDD010838DD010882
:1014100050DD010868DD010888DD010898DD01085C
:10142000A8DD0108C4DD0108E0DD010885481BF0E6
:10143000BBF807F16403184600F0E4FF82481BF094
:101440004DF907F1640207F10C031146184603F049
:10145000A3F807F10C03184603F040FB7B481BF090
:101460003DF907F11003184602F015FF044607F195
:101470001003184602F01AFF024607F17C032146CA
:10148000184604F0F5FE07F18003184604F04BF807
:101490000346002B0CBF01230023DBB2002B07D037
:1014A0006B4819F0AFFD034619466A481BF07CF8FB
:1014B00007F1740300211846FFF72AFA07F17003B9
:1014C00002211846FFF724FA63481BF007F94FF092
:1014D000FF33C7F8243107F18003184604F075F88C
:1014E0000246D7F82431934214BF01230023DBB214
:1014F000002B0CD007F18003184604F066F8C7F8FB
:10150000240107F1800355491846FFF7AFF94FF45E
:101510007A700BF0F1F807F108031A4601215048E0
:1015200005F0B1FC0346002B0CBF01230023DBB206
:10153000002B5DD007F59473A3F590731B6803F03F
:101540000403002B1FD1474B93F83B309B10DBB2B9
:1015500003F00103002B4BD007F18003184603F082
:10156000E2FF0346012B0CBF01230023DBB2002B5B
:1015700002D03C4816F0B6FD3A480EF095FE3948C8
:101580000EF0EAFE34E0374B93F83B309B10DBB2B1
:1015900003F00103002B2BD107F18003184603F061
:1015A000C2FF0346012B07D12E4817F059FC034612
:1015B000002B01D1012300E00023002B02D02A4B95
:1015C00000221A6027480EF099FE26480EF016FEFB
:1015D00007F18003184603F0A6FF0346012B0CBF5A
:1015E00001230023DBB2002B02D01E4816F09EF828
:1015F00007F18003184603F096FF0346012B07D13D
:10160000184817F02DFC0346002B01D0012300E001
:101610000023002B3FF45FAF0D4819F0F3FCC7F82F
:101620001801114B1B68D7F818219A423FF453AFA9
:10163000D7F818110D481AF0B7FF0B4AD7F8183130
:10164000136048E700DE010824DE010840DE0108DF
:10165000580A002050DE010860DE0108F00000207A
:1016600000530020540A00208001002078DE010889
:1016700080B400AF72B600BFFEE7000080B500AFD7
:1016800004F04AFEFFF7A0FAFFF7DAFBFFF7AAFB28
:10169000084803F0EDFCFFF7F3FA09F0EFF9064A0A
:1016A0000021064809F078FA0346054A136009F05C
:1016B00017FAFEE738010020700F020861110008D8
:1016C0007C01002080B586B000AFF860B9607A6018
:1016D000BB685A1CBA601B783B613B6903F0C003CE
:1016E000C02B16D13B691B0203F47C533B61BB68E2
:1016F0005A1CBA601B781A463B6913433B613B692D
:10170000FA6813447A681946F868FFF7DBFFBB688C
:101710002EE03B6903F0C003002B05D03969164861
:101720001AF042FFBB6823E000237B610AE0BA683D
:10173000531CBB607B68591C796012781A707B69F6
:1017400001337B617A693B699A42F0DB3B69002B8C
:1017500005D17B685A1C7A6000221A7004E07B680D
:101760005A1C7A602E221A703B69002BB0DCBB68D1
:1017700018461837BD4680BD88DE010880B58AB09E
:1017800000AFF860B9607A6000233B620023FB6120
:101790003B6ABB6102E03B6A01333B623B6AFA6829
:1017A00013441B782E2B05D03B6AFA6813441B7830
:1017B000002BF0D13A6ABB69D31A7B61FB695A1CD2
:1017C0007B6913447A689A4209DAFB695A1C7B697F
:1017D000134419461B481AF0E7FE00232EE0BB68AD
:1017E0005A1CBA607A69D2B21A70FB690133FB6184
:1017F00000237B620DE0BA697B6A13441A46FB68DA
:101800001A44BB68591CB96012781A707B6A01339C
:101810007B627A6A7B699A42EDDBFA697B691344E1
:10182000FB613B6AFA6813441B782E2B02D13B6A9A
:1018300001333B627B69002BAADCFB691846283721
:10184000BD4680BDA8DE010880B586B000AFF86057
:10185000B9607A603B607A68B968F868FFF732FF70
:10186000B860BB681B683B613B8A18460DF070FE90
:1018700003461A463B6A1A807B8A18460DF068FEBA
:101880000346FB82FB8ADB0B9BB2DAB27B6A1A70DF
:10189000FB8AC3F30E039AB23B681A80BB68043319
:1018A00018461837BD4680BD80B588B000AFF860D7
:1018B0007A603B600B467B81F868FEF7C3FC034609
:1018C0000133FB613A8DFB6913441033BB61BB6983
:1018D00018461AF03DFD03467B617B69002B04D15D
:1018E000B96916481AF060FE23E07B697A899A800C
:1018F0007B697A689A60FB699AB27B699A817B6995
:101900003A8DDA817B691033FA69F96818461AF062
:101910003FFDFB6910337A6913443A8D39681846E4
:101920001AF036FD064B1A687B691A60044A7B6917
:10193000136000BF2037BD4680BD00BFCCDE01086C
:101940008801002080B598B002AFF860B9607A6075
:1019500007F11403402219467868FFF70FFF03468A
:101960007B657B6D002B0AD07B6D9BB207F1140267
:1019700000931346BA680C21F868FFF795FF00BF83
:101980005837BD4680BD80B59AB002AFF860B960E7
:101990003B601346FB800023BB820023FB82FB8855
:1019A00018460DF0D5FD03463B8307F114030633BB
:1019B000402219463868FFF7E1FEF865FB6D002B01
:1019C0000CDDFB6D9BB206339BB207F11402009352
:1019D0001346BA682121F868FFF766FF00BF603739
:1019E000BD4680BD80B588B002AFF860B9607A604E
:1019F0007868FEF727FC0346FB82FB8AFF2B05D99C
:101A0000FB8A194612481AF0CFFD1EE0FB8A01330B
:101A100018461AF09DFC03463B61FB8ADAB23B692B
:101A20001A703B690133FA8A796818461AF0B0FCDB
:101A3000FB8A01339BB200933B69BA681021F868B6
:101A4000FFF732FF38691AF08BFC1837BD4680BDAE
:101A5000F8DE010880B586B002AFF860B9607A6040
:101A6000042300937B68BA680121F868FFF71CFF24
:101A700000BF1037BD4680BD80B58EB002AFF860A4
:101A8000B9607A60FB70B868FEF7DCFB03460C3384
:101A9000FB62FB6A013318461AF05AFC0346BB622C
:101AA000F868FEF7CFFB0246FB6A134401337B6202
:101AB0007B6A013318461AF04BFC03463B62F86818
:101AC000FEF7C0FB03460733FB61FB690133184691
:101AD0001AF03EFC0346BB61FB6A591CFB7803F01D
:101AE0000103002B01D0264B00E0264B0093BB687E
:101AF000254AB86A1AF0ACFF7B6A591CBB6A00938E
:101B0000FB68224A386A1AF0A3FFFB69591CFB687C
:101B10001F4AB8691AF09CFF7B68002B04D07A68D2
:101B2000F96B386AFFF75EFF00237B6107F114034E
:101B30001A46F96BB869FFF78DFF3A8FBB69F96BED
:101B4000386AFFF720FF3A6AF96BB86AFFF7FAFEC6
:101B5000FB7803F00203002B04D0BA6AF96B0D483E
:101B6000FFF7F0FEB86A1AF0FBFB386A1AF0F8FBD0
:101B7000B8691AF0F5FB00BF3037BD4680BD00BF25
:101B800018DF010820DF010828DF010838DF01081D
:101B900040DF01084CDF010880B584B000AF7860F9
:101BA0000B467B80104B1B68FB6013E0FB689B8837
:101BB0007A889A4202D07B88FF2B08D1FB681033C9
:101BC000796818461AF0DCFF0346002B06D0FB6844
:101BD0001B68FB60FB68002BE8D100E000BFFB68DE
:101BE00018461037BD4680BD8801002080B58AB0F8
:101BF00000AFF860B9607A607B68C3F5A0737B6260
:101C0000FB6803F110007B68BA6813447A6A1946CE
:101C1000FFF7B4FD03463B623B6A002B01D17B68B2
:101C200054E0FB68DB891A463B6A13440A337A6A3C
:101C30009A420BD2FB68DB891A463B6A13440A338B
:101C4000194624481AF0B0FC7B683FE07A683B6A8A
:101C500013447B60FB689B8818460DF079FC0346B3
:101C6000BB8201200DF074FC0346FB82FB689B687D
:101C700018460DF07AFC0346BB61FB68DB89184609
:101C80000DF066FC0346BB837B68BA6813441A46B2
:101C900007F1140303CB106051601B8813817B682C
:101CA0000A337B607B68BA68D018FB689B89103365
:101CB000FA68D118FB68DB891A461AF069FBFB68E1
:101CC000DB891A467B6813447B607B68184628379B
:101CD000BD4680BD6CDF010880B58AB002AFF860F8
:101CE000B9607A607B689BB20022194600200EF032
:101CF000C3FBF861FB69002B25D0FB695B687A6840
:101D0000B96818461AF044FB134BBB61134B5B6870
:101D10007B61134B18687B69009341F2E943BA6910
:101D2000F96914F07FFF0346FB7497F91330002B19
:101D300005D097F9133019460A481AF035FCF869AE
:101D40000EF012FF03E0796807481AF02DFC00BF7F
:101D50002037BD4680BD00BFA00F0208A865002047
:101D60008401002094DF0108B0DF010880B5B4B021
:101D700002AF786039603B68C7F8B4304FF4A070A8
:101D80001AF0E6FA0346C7F8B030D7F8B030002BA7
:101D900005D14FF4A07199481AF006FC2AE1D7F852
:101DA000B030C7F8AC303B681B889AB2D7F8AC307B
:101DB0001A80D7F8AC3084229A70D7F8AC30002261
:101DC000DA70D7F8AC3000221A7100225A71D7F8B5
:101DD000AC3000229A710022DA71D7F8AC300022C0
:101DE0001A7200225A72D7F8AC3000229A7200227E
:101DF000DA720C23C7F8C0300023C7F8BC30D7F81C
:101E0000B4300C33C7F8B8303B689B889BB2184697
:101E10000DF09EFB0346C7F8A8300023C7F8C43076
:101E200092E007F1920107F10C0207F18F03019391
:101E300007F1900300930B46D7F8B810D7F8B40019
:101E4000FFF702FDC7F8B800B7F89230012B03D0B6
:101E5000B7F89230FF2B72D1B7F8902007F10C033E
:101E600011461846FFF798FEC7F89C00D7F89C303B
:101E7000002B64D0D7F89C309B88012B0FD1604B8E
:101E80005B68C7F89830D7F89C309B891033D7F837
:101E90009C201344D7F89820043212681A60D7F8AF
:101EA000C020D7F8B010D7F89C00FFF79FFE03467C
:101EB000C7F89430D7F8C030D7F894209A4215D993
:101EC000D7F8AC30DB889BB218460DF041FB0346D7
:101ED00001339BB218460DF03BFB03461A46D7F878
:101EE000AC30DA80D7F89430C7F8C030B7F890300B
:101EF0000C2B10D1D7F89C301B68002B1FD0D7F8C3
:101F00009C301B689B88212B19D1D7F89C301B680B
:101F1000C7F8BC3013E0B7F89030212B0FD1D7F8B9
:101F20009C301B68002B0AD0D7F89C301B689B881C
:101F3000012B04D1D7F89C301B68C7F8BC30D7F808
:101F4000C4300133C7F8C430D7F8C420D7F8A8305C
:101F50009A42FFF666AFD7F8C0300C2B46DDD7F8B3
:101F6000BC30002B3BD0D7F8BC309B88012B0FD165
:101F7000234B5B68C7F8A430D7F8BC309B8910337B
:101F8000D7F8BC201344D7F8A420043212681A6092
:101F9000D7F8C020D7F8B010D7F8BC00FFF726FE5E
:101FA0000346C7F8A030D7F8C030D7F8A0209A422F
:101FB00015D9D7F8AC305B899BB218460DF0C8FA3A
:101FC000034601339BB218460DF0C2FA03461A4687
:101FD000D7F8AC305A81D7F8A030C7F8C030D7F85E
:101FE000C020D7F8B0107868FFF776FED7F8B000B9
:101FF0001AF0B6F9C837BD4680BD00BFD4DF01086E
:10200000A865002080B588B000AFF860B9607A603C
:102010003B607B681B89FB61FB69B3F5A07F30DC0B
:10202000FB691B2B2DDDFB6918461AF091F903465D
:10203000BB61BB69002B04D1F96915481AF0B4FAE9
:102040001FE0FB699AB20023B96978680EF096FF29
:1020500003461A46FB69934210D1BB697B617B69D9
:102060009B7803F0FA03002B08D17B699B889BB215
:10207000002B03D079693868FFF778FEB8691AF049
:102080006FF978680EF070FD00BF2037BD4680BD47
:10209000F8DF010880B584B000AF78607B68002B62
:1020A00037D07B6893F83B3003F02003002B1FD11F
:1020B0007B6893F83B3043F02003DAB27B6883F807
:1020C0003B20786817F0AEFF0346FB7397F90F309B
:1020D000002B0DD07B6893F83C3019467B6893F851
:1020E0003D301A4697F90F3024481AF05DFA41E066
:1020F0002349786818F0FCF80346FB7397F90F3012
:10210000002B06D097F90F3019461E481AF04CFAEA
:1021100030E07B68002B03D11B481AF0DFFA29E07E
:102120002E2014F0A3FF0346184A1360174B1B68B8
:10213000002B03D116481AF0D1FA1BE0134B1B6891
:1021400041F2E9421349184614F060FE0346FB735E
:1021500097F90F30002B06D097F90F3019460E482B
:102160001AF022FA06E0094B1B6800220B491846B8
:1021700014F01EFF1037BD4680BD00BF1CE00108F3
:10218000A00F02084CE0010870E001088401002063
:1021900090E00108641B0208B0E001080520000877
:1021A00080B483B000AF78607B6818460C37BD46BA
:1021B00080BC704780B483B000AF78607B681846FD
:1021C0000C37BD4680BC704780B582B000AF7860E8
:1021D0007B689B68002B05D07B689B687868796872
:1021E000032298477B6818460837BD4680BD80B4F7
:1021F00083B000AF786039603A687B681340184656
:102200000C37BD4680BC704780B500AF144B154AF3
:102210001A60134B4FF4E1325A60114B00229A605E
:102220000F4B0022DA600E4B00221A610C4B0C227D
:102230005A610B4B00229A61094B0022DA6100229D
:102240000021074807F0E1FB0346002B14BF0123E0
:102250000023DBB2002B01D0FFF70AFA00BF80BDDC
:102260008C0100200050004080B582B000AF786043
:10227000786800F0F5F800BF0837BD4680BD80B52E
:1022800082B000AF78607B681846FFF79DFF7B68DF
:1022900018460837BD4680BDB0B590B002AFF860B3
:1022A000B9607A603B60FB68BA681A60FB687A685C
:1022B0005A60FB683A689A60184BFB6200233B63E4
:1022C000FB687B6307F1200007F1340207F12C0162
:1022D000134B0093134B00F0BBF907F1200207F1F9
:1022E00010031146184600F0D5F907F1100540F625
:1022F0001C0019F0CFFE03461C462A46002120464A
:1023000003F084FC084B1C6007F110031846FFF72C
:10231000B6FFFB6818463837BD46B0BD1926000821
:102320007B1B02087A1B0208D801002080B582B00E
:1023300000AF7860FFF768FF074A0021074808F000
:102340002BFC0346064A1360786800F05BF800BF78
:102350000837BD4680BD00BFA40F020869220008EF
:10236000D001002080B584B000AFF860B96013469A
:10237000FB71B968064800F0B5F9064B1B68FA799D
:102380001146184603F066FD00BF1037BD4680BDFC
:10239000D4010020D801002080B582B000AF786061
:1023A000084611461A460346FB700B46BB7013469F
:1023B0007B707B681A68FB78002B01D0012300E05A
:1023C000002319461046FEF7A3FA7B685A68BB78CB
:1023D000002B01D0012300E0002319461046FEF730
:1023E00097FA7B689A687B78002B01D0012300E084
:1023F000002319461046FEF78BFA00BF0837BD468A
:1024000080BD000080B582B000AF7860002240211E
:10241000084805F0FEFD32200AF06EF90122402145
:10242000044805F0F6FD32200AF066F900BF0837CF
:10243000BD4680BD000C014080B584B000AFF8609F
:10244000B9601346FB80FA884FF6FF73B9680348FA
:1024500007F04BFB00BF1037BD4680BD8C0100204C
:1024600080B5ADF5087D02AF07F50673A3F50573DA
:10247000186007F50673A3F5827300221A6004330F
:10248000FB220021184619F0ABFF07F50673A3F5F0
:10249000837301221A8007F50673A3F502730022E5
:1024A0001A600433FB220021184619F099FF584B9B
:1024B0001B681B6803F02003202B0CBF01230023A3
:1024C000DBB2012B0CBF01230023DBB2002B00F099
:1024D00099800BF001FA07F58A71002301224C481C
:1024E00007F095FB07F50673A3F582731B78DBB243
:1024F000FD2B0CBF01230023DBB2002B7FD007F1A3
:102500000E0307F58A710A220092FF22404807F065
:1025100020FC07F50673A3F50273FD221A70002351
:10252000A7F8163207F50673A3F20A231B88B7F83B
:1025300016229A4250D2B7F8163207F50672A2F563
:102540008272D35CD9B207F50673A3F583731B8837
:102550009BB21A4607F50673A3F502739954B7F8B0
:10256000163207F50672A2F58272D35CDBB2FD2B40
:102570000CBF01230023DBB2002B1AD0254B1868B7
:1025800007F50673A3F583731B889BB201339AB2D8
:1025900007F11003194603F02BFC07F50673A3F5AA
:1025A000837300221A8007F50673A3F50273FD22D8
:1025B0001A7007F50673A3F583731B889BB201336A
:1025C0009AB207F50673A3F583731A80B7F816322B
:1025D0000133A7F81632A5E70E4B186807F5067306
:1025E000A3F583731B889AB207F11003194603F011
:1025F000FFFB07F50673A3F5837301221A800BF026
:1026000085F954E7034B1B68184603F00EFC4EE7B0
:102610008C010020D801002080B586B000AFF860A2
:10262000B9601346FB80094800F06AF878617B695D
:10263000002B06D07B691B681B68FA88B96878692B
:10264000984700BF1837BD4680BD00BFD4010020A9
:10265000F0B587B002AFF860B9607A603B60B868E7
:1026600000F05BF80446786800F061F805463868C9
:1026700000F067F80646B86A00F06DF8034600936C
:1026800033462A462146F86800F08DF8F86814377A
:10269000BD46F0BD90B583B000AF786039607B680F
:1026A0001846FEF7F1F9386800F0A6F80346002B4B
:1026B0000ED07C68386800F0A9F803461946204619
:1026C00000F0AEF87B68054ADA607B68044A9A60DD
:1026D0007B6818460C37BD4690BD00BF45280008F2
:1026E0007B28000880B582B000AF78603960052291
:1026F0003968786800F0E0F800BF0837BD4680BD53
:1027000080B582B000AF78600521786800F0E3F80A
:10271000034618460837BD4680BD80B483B000AF7D
:1027200078607B6818460C37BD4680BC704780B423
:1027300083B000AF78607B6818460C37BD4680BC1C
:10274000704780B483B000AF78607B6818460C3760
:10275000BD4680BC704780B483B000AF78607B68B2
:1027600018460C37BD4680BC7047F0B585B000AF49
:10277000F860B9607A603B60FC68B868FFF7D7FF23
:1027800005467868FFF7DDFF06463868FFF7E3FF88
:10279000034632462946204600F0B5F8FB68184645
:1027A0001437BD46F0BDF0B585B000AFF860B96034
:1027B0007A603B60B86800F09CF80246FB6892E8DB
:1027C000030083E80300FB6803F108047868FFF75F
:1027D000AEFF05463868FFF7B4FF0646B86AFFF754
:1027E000BAFF0346324629462046FFF7BEFFFB6884
:1027F00018461437BD46F0BD80B483B000AF786092
:10280000012318460C37BD4680BC704780B483B0A6
:1028100000AF78607B6818460C37BD4680BC7047B7
:1028200090B583B000AF786039603868FFF7EEFF8D
:10283000034622461946786800F0B0F800BF0C370E
:10284000BD4690BDB0B584B000AFF860B9607A60A5
:10285000F86800F0BFF80446B868FEF78AF9054644
:102860007868FEF790F903461A462946204600F09C
:10287000BEF800BF1037BD46B0BD90B585B000AF03
:10288000F860B9601346FB71FB79012B09D1B86878
:1028900000F0A0F80446F86800F0C4F803461C6095
:1028A00005E0FB791A46B968F86800F0C7F800231C
:1028B00018461437BD4690BD80B584B000AFF860AF
:1028C000B9607A607A68B968F86800F0E2F800BF29
:1028D0001037BD4680BD80B582B000AF78603960EA
:1028E0003968786800F0F3F8034618460837BD46A3
:1028F00080BD80B483B000AF78607B6818460C3729
:10290000BD4680BC704790B585B000AFF860B96037
:102910007A603B607868FFF714FF04463868FFF779
:102920001AFF03461A462146F86800F0E9F8FC68E9
:10293000B868FFF7FCFE03461946204600F0F3F89E
:10294000FB6818461437BD4690BD80B582B000AF15
:10295000786039607B683A681146184600F0F4F8F0
:102960007B6818460837BD4680BD80B582B000AF91
:10297000786039607B683A6892E8030083E8030076
:102980007B6803F108023B68083319461046FFF7DD
:10299000DCFF7B6818460837BD4680BDB0B584B003
:1029A00000AFF860B9603A71B868FFF72FFF0546CD
:1029B0000C2019F06FFB03461C4629462046FFF702
:1029C000D4FFF86800F02EF803461C6000BF1037F3
:1029D000BD46B0BD80B582B000AF7860786800F0C9
:1029E000D6F803461B6818460837BD4680BDF0B5CB
:1029F00085B000AFF860B9607A60F86800F0D3F88D
:102A00000446B868FEF7B5F805467868FEF7BBF8E7
:102A100003462A462146304600F0CFF800BF14375F
:102A2000BD46F0BD80B582B000AF78607868FFF732
:102A3000B7FB034618460837BD4680BDB0B584B025
:102A400000AFF860B9601346FB71FB79032B16D019
:102A5000032B19DC012B02D0022B0AD014E0B8683A
:102A6000FFF7B8FF0446F868FFF7DCFF03461C6079
:102A70000AE02A46B968F86800F0BBF804E021468D
:102A8000F86800F0D4F800BF002318461037BD46A0
:102A9000B0BD80B588B000AFF860B9607A60FB68FF
:102AA000FB61BB68BB617B687B614FF6FF71786936
:102AB000FFF79DFB3861FB69BA69BFF35B8F1A6052
:102AC000BFF35B8F00BF00BF2037BD4680BD80B520
:102AD00086B000AF786039607B687B613B683B61A2
:102AE0004FF6FF713869FFF782FBF8607B69BFF32F
:102AF0005B8F1B68BFF35B8F18461837BD4680BDE0
:102B000080B584B000AFF860B9607A607968F86821
:102B100000F0A1F8B968F86800F0ABF8FB68184657
:102B20001037BD4680BD80B582B000AF7860396097
:102B30003868FFF7FCFD03461A687B681A607B68FB
:102B400018460837BD4680BD90B583B000AF7860A9
:102B50003960386800F098F80346184600F09EF88F
:102B600003461946786800F0B0F87C68386800F0D1
:102B70009FF803461846FFF7DAFD0346194620463C
:102B8000FFF7D1FF7B6818460C37BD4690BD80B576
:102B900082B000AF78607868FFF70CFB03461846F8
:102BA0000837BD4680BD80B483B000AF78607B68D5
:102BB00018460C37BD4680BC7047B0B584B000AF36
:102BC0003873B9607A603B60B868FFF7ECFF044681
:102BD0007868FDF7CEFF05463868FDF7D4FF034659
:102BE0001A462946204600F092F800BF1037BD462D
:102BF000B0BDB0B584B000AFF860B9603A71B868E4
:102C000000F0A4F803461D680C2019F043FA0346AF
:102C10001C4623462A4607CA83E80700F868FFF7E0
:102C200001FF03461C6000BF1037BD46B0BD80B534
:102C300082B000AF786039707868FFF7F3FE034622
:102C40001B68002B03D00C21184619F021FA00BF95
:102C50000837BD4680BD80B582B000AF786039606E
:102C60003968786800F07EF87B6818460837BD46FA
:102C700080BD80B483B000AF786039607B6818464F
:102C80000C37BD4680BC704780B483B000AF78601D
:102C90007B6818460C37BD4680BC704780B483B053
:102CA00000AF78607B6818460C37BD4680BC704723
:102CB00080B582B000AF78607B68184600F05DF8A0
:102CC000034618460837BD4680BD80B582B000AFC8
:102CD00078603960386800F05AF80346184600F00A
:102CE00060F803461946786800F07BF8386800F011
:102CF00062F80346184600F06AF8034619467868F9
:102D000000F085F87B6818460837BD4680BDB0B531
:102D100086B000AFF860B9607A60B868FDF729FF47
:102D200004467868FDF72FFF024607F1100321469D
:102D3000184600F079F807F110032A461946F8689A
:102D400000F089F800BF1837BD46B0BD80B582B02D
:102D500000AF78607868FFF72DFA03461846083709
:102D6000BD4680BD80B483B000AF786039607B68B9
:102D700018460C37BD4680BC704780B483B000AFA6
:102D800078607B6818460C37BD4680BC704780B4BD
:102D900083B000AF78607B6818460C37BD4680BCB6
:102DA000704780B483B000AF78607B6818460C37FA
:102DB000BD4680BC704780B582B000AF786078684F
:102DC00000F080F8034618460837BD4680BD80B441
:102DD00083B000AF78607B6818460C37BD4680BC76
:102DE000704780B582B000AF78603960386800F015
:102DF00073F80346184600F07BF8034619467868D6
:102E000000F080F87B6818460837BD4680BD80B565
:102E100082B000AF786039603868FFF7D8FF7B6810
:102E200018460837BD4680BD90B585B000AFF86044
:102E3000B9607A60B868FDF79CFE04467868FDF7D3
:102E4000A2FE03461A462146F86800F068F8F868C2
:102E50001437BD4690BDF0B589B000AFF860B960D9
:102E60003A71FC68FB680833184600F071F80146B7
:102E700007F11403BA68184600F077F80546FB68B6
:102E80000833184600F07FF8014607F11803BA68C6
:102E9000184600F084F80646FB680833184600F030
:102EA00090F8014607F11C03BA68184600F095F83F
:102EB000034632462946204600F0A1F800BF2437D9
:102EC000BD46F0BD80B483B000AF78607B68184623
:102ED0000C37BD4680BC704780B582B000AF7860CB
:102EE000786800F0B0F8034618460837BD4680BD44
:102EF00080B483B000AF78607B6818460C37BD465D
:102F000080BC704780B582B000AF786039603868A7
:102F1000FFF7EEFF7B6818460837BD4680BDB0B5A9
:102F200084B000AFF860B9607A60FC68B868FDF7FB
:102F300020FE05467868FDF726FE03461A46294618
:102F4000204600F08AF8FB6818461037BD46B0BD31
:102F500080B582B000AF78607B68184600F09BF8BF
:102F6000034618460837BD4680BD80B584B000AF23
:102F7000F860B9607A60B86800F099F803461846BE
:102F80001037BD4680BD80B582B000AF78607868EC
:102F900000F097F8034618460837BD4680BD80B557
:102FA00084B000AFF860B9607A60786800F095F896
:102FB0000346184600F09BF8034618461037BD46F6
:102FC00080BD80B582B000AF7860786800F09FF86F
:102FD000034618460837BD4680BD80B584B000AFB3
:102FE000F860B9607A60786800F077F803461846B0
:102FF00000F099F8034618461037BD4680BD2DE90C
:10300000F04186B002AFF860B9607A603B60F86862
:1030100000F099F80446B86800F049F80546786869
:10302000FDF7A7FD06463868FDF7ADFD03460093A2
:1030300033462A462146404600F08FF800BF10373D
:10304000BD46BDE8F08180B483B000AF78607B6896
:1030500018460C37BD4680BC704790B585B000AFB0
:10306000F860B9607A60FC687868FDF78CFD03460B
:103070001946204600F0A5F8FB681C1DB868FDF74E
:1030800078FD03461946204600F0AEF8FB68184666
:103090001437BD4690BD80B582B000AF78607868C7
:1030A000FFF706FE034618460837BD4680BD80B4CC
:1030B00083B000AF78607B6818460C37BD4680BC93
:1030C000704780B582B000AF78607868FFF773FE14
:1030D000034618460837BD4680BD80B483B000AFB4
:1030E00078607B6818460C37BD4680BC704780B559
:1030F00082B000AF7860786800F086F80346184622
:1031000000F08FF8034618460837BD4680BD80B5ED
:1031100082B000AF78607868FFF7DEFE034618469D
:103120000837BD4680BD80B582B000AF7860786852
:1031300000F081F80346184600F08AF80346184666
:103140000837BD4680BD80B483B000AF78607B682F
:1031500018460C37BD4680BC7047F0B585B000AF4F
:103160003873B9607A603B607868FFF7A0FF034668
:103170001B68BA68526802F00102002A02D1BA68DC
:10318000146808E0BA68526852101A441268B968A4
:1031900009680A441468BA68526852109D18386861
:1031A000FDF7E7FC03461E68B86AFDF7ECFC034632
:1031B0001B881A4631462846A04700BF1437BD4633
:1031C000F0BD90B583B000AF786039607C68386836
:1031D000FDF7D9FC03461946204600F043F87B680A
:1031E00018460C37BD4690BD80B582B000AF786000
:1031F00039603868FDF7BDFC02467B681A607B6861
:1032000018460837BD4680BD80B582B000AF7860F3
:103210007B68184600F036F8034618460837BD4666
:1032200080BD80B483B000AF78607B6818460C37EF
:10323000BD4680BC704780B582B000AF78607B68C7
:10324000184600F02BF8034618460837BD4680BDE7
:1032500080B483B000AF78607B6818460C37BD46F9
:1032600080BC704780B582B000AF78603960386844
:10327000FDF789FC02467B681A607B6818460837B0
:10328000BD4680BD80B582B000AF7860786800F040
:1032900011F8034618460837BD4680BD80B582B098
:1032A00000AF7860786800F013F8034618460837D6
:1032B000BD4680BD80B582B000AF78607B680433C6
:1032C000184600F012F8034618460837BD4680BD80
:1032D00080B582B000AF78607B68184600F010F8C7
:1032E000034618460837BD4680BD80B483B000AFA2
:1032F00078607B681B6818460C37BD4680BC7047F9
:1033000080B483B000AF78607B681B6818460C37C8
:10331000BD4680BC704780B483B000AF7860396030
:103320007B683A681A6500BF0C37BD4680BC7047A1
:1033300080B584B002AF786039607B683A68DA643F
:103340007B680022DA637B6800221A647B680022B3
:103350005A647B68002283F839200322002101206F
:1033600008F05BFA02467B689A647B68DB6C7968DC
:1033700001221846FEF7F6FF7B68DB6B002B45D178
:103380007B681B6C022B41DC7B685B6C591C7A6888
:103390005164D9B200230193002300930123FE223C
:1033A000786800F09BFF7B689B6C40F6B83118464C
:1033B00008F04CFD0346012B14BF01230023DBB2B0
:1033C000002BD9D07B685B6C591C7A685164D9B2E8
:1033D000002301930023009300230022786800F06B
:1033E0007DFF7B689B6C40F6B831184608F02EFDD7
:1033F0000346012B14BF01230023DBB2002BBBD0FB
:103400007B681B6C5A1C7B681A64B5E77B680022DA
:103410001A647B68DB6B0A2B45D17B681B6C022B23
:1034200041DC7B685B6C591C7A685164D9B200231B
:103430000193002300930123FE22786800F04EFFE1
:103440007B689B6C40F6B831184608F0FFFC0346D9
:10345000012B14BF01230023DBB2002BD9D07B68E2
:103460005B6C591C7A685164D9B200230193002324
:10347000009300230022786800F030FF7B689B6C8B
:1034800040F6B831184608F0E1FC0346012B14BFA2
:1034900001230023DBB2002BBBD07B681B6C5A1CC2
:1034A0007B681A64B5E77B68DB6B472B00F39A8077
:1034B000002BC0F22D81472B00F22A8101A252F885
:1034C00023F000BFE9350008113700081137000864
:1034D00011370008113700081137000811370008AC
:1034E000113700081137000811370008E9350008C6
:1034F000113700081137000811370008113700088C
:10350000113700081137000811370008113700087B
:1035100011370008F135000811370008113700088D
:10352000113700081137000811370008113700085B
:10353000113700081137000811370008113600084C
:10354000B13600081137000811370008113700089C
:10355000113700081137000811370008113700082B
:1035600011370008313600081137000811370008FC
:10357000113700081137000811370008113700080B
:1035800011370008113700081137000851360008BC
:1035900011370008113700081137000811370008EB
:1035A00011370008113700081137000811370008DB
:1035B0001137000871360008D136000811370008AD
:1035C00011370008113700081137000811370008BB
:1035D000113700081137000811370008913600082C
:1035E000F1360008FF2B93E07B68FF22DA638FE05F
:1035F0007B685B6C591C7A685164D9B200230193D3
:103600000023009309230122786800F067FE7FE021
:103610007B685B6C591C7A685164D9B200230193B2
:103620000023009302230122786800F057FE6FE028
:103630007B685B6C591C7A685164D9B20023019392
:103640000023009301230222786800F047FE5FE028
:103650007B685B6C591C7A685164D9B20023019372
:10366000002300930423FE22786800F037FE4FE029
:103670007B685B6C591C7A685164D9B20023019352
:103680000023009308230322786800F027FE3FE020
:103690007B685B6C591C7A685164D9B20023019332
:1036A0000023009307230322786800F017FE2FE021
:1036B0007B685B6C591C7A685164D9B20023019312
:1036C0000023009302230022786800F007FE1FE029
:1036D0007B685B6C591C7A685164D9B200230193F2
:1036E0000023009310230122786800F0F7FD0FE01B
:1036F0007B685B6C591C7A685164D9B200230193D2
:10370000002300930B230022786800F0E7FD00BF40
:103710007B68DB6BFF2B09D07B689B6C40F6B83174
:10372000184608F093FB0346012B01D0012300E06B
:103730000023002B00D1B6E600BF7B68DB6C0022C3
:1037400000211846FEF70EFE00BF0837BD4680BDBB
:103750002DE9F04196B00AAFF861B9611346FB82DA
:10376000FB69186D4FF6FF731222B64906F0BDF9DA
:10377000FB69186DFA8A4FF6FF73B96906F0B5F95F
:10378000FB69186D4FF6FF730122AF4906F0ADF9E2
:1037900007F120031846FCF783FF07F12002FB8A9C
:1037A0001946B869FCF719FF034683F00103DBB241
:1037B000002B40F02C85FB69DB6B472B00F2458525
:1037C00001A252F823F000BFE93800084B4200087C
:1037D0004B4200084B4200084B4200084B42000895
:1037E0004B4200084B4200084B4200084B42000885
:1037F000573B00084B4200084B4200084B42000870
:103800004B4200084B4200084B4200084B42000864
:103810004B4200084B420008D53D00084B420008CF
:103820004B4200084B4200084B4200084B42000844
:103830004B4200084B4200084B4200084B42000834
:103840001D3E0008394100084B4200084B42000869
:103850004B4200084B4200084B4200084B42000814
:103860004B4200084B4200086B3E00084B420008E8
:103870004B4200084B4200084B4200084B420008F4
:103880004B4200084B4200084B4200084B420008E4
:10389000D53E00084B4200084B4200084B4200084E
:1038A0004B4200084B4200084B4200084B420008C4
:1038B0004B4200084B420008254000087F410008A9
:1038C0004B4200084B4200084B4200084B420008A4
:1038D0004B4200084B4200084B4200084B42000894
:1038E000ED400008CB41000897F82130FE2B14D1A1
:1038F00097F82230052B10D13B8D0C2B0DD17B6A14
:103900001B78012B09D17B6A01330B224F491846E2
:1039100019F05DF90346002B13D097F82130FE2BE8
:103920001AD197F82230002B16D13B8D0B2B13D1D7
:103930007B6A0B224549184619F049F90346002BCA
:103940000AD1FB690A22DA63FB69986C0023002222
:10395000002108F081F8FDE097F82130002B14D108
:1039600097F82230042B10D13B8D0A2B0DD17B6AA6
:103970001B78022B09D17B6A01330922344918468E
:1039800019F025F90346002B13D097F82130002BAE
:103990001AD197F82230002B16D13B8D092B13D169
:1039A0007B6A09222A49184619F011F90346002BAF
:1039B0000AD1FB690A22DA63FB69986C00230022B2
:1039C000002108F049F8C5E097F82130FE2B14D10A
:1039D00097F82230052B10D13B8D0E2B0DD17B6A31
:1039E0001B78012B09D17B6A01330D221949184636
:1039F00019F0EDF80346002B13D097F82130FE2B79
:103A00002AD197F82230002B26D13B8D0D2B23D1C4
:103A10007B6A0D220F49184619F0D9F80346002B8E
:103A20001AD1FB695B6C591CFA695164D9B2002345
:103A30000193002300930223FE22F86900F04EFC5C
:103A400088E000BFE8E00108FCE0010800E10108AF
:103A50000CE1010818E1010897F82130FE2B14D180
:103A600097F82230052B10D13B8D0D2B0DD17B6AA1
:103A70001B78012B09D17B6A01330C228F49184630
:103A800019F0A5F80346002B13D097F82130FE2B30
:103A90001FD197F82230002B1BD13B8D0C2B18D156
:103AA0007B6A0C228549184619F091F80346002BD1
:103AB0000FD1FB695B6C591CFA695164D9B20023C0
:103AC0000193002300930223FE22F86900F006FC14
:103AD00040E097F82130002B14D197F82230042BC6
:103AE00010D13B8D0B2B0DD17B6A1B78022B09D19A
:103AF0007B6A01330A227249184619F068F80346B6
:103B0000002B17D097F82130002B40F0828397F8D4
:103B10002230002B40F07D833B8D0A2B40F07983CF
:103B20007B6A0A226649184619F051F80346002BB1
:103B300040F06F83FB695B6C591CFA695164D9B220
:103B4000002301930023009303230022F86900F06F
:103B5000C5FB5EE35DE397F82130FE2B14D197F8A7
:103B60002230052B10D13B8D0C2B0DD17B6A1B789D
:103B7000012B09D17B6A01330B225249184619F0F7
:103B800026F80346002B13D097F82130FE2B1FD1C7
:103B900097F82230002B1BD13B8D0B2B18D17B6A61
:103BA0000B224849184619F012F80346002B0FD192
:103BB000FB695B6C591CFA695164D9B2002301930B
:103BC000002300930323FE22F86900F087FB00E145
:103BD00097F82130002B14D197F82230042B10D104
:103BE0003B8D0A2B0DD17B6A1B78022B09D17B6A96
:103BF000013309223449184618F0E9FF0346002B27
:103C000013D097F82130002B1FD197F82230002BCA
:103C10001BD13B8D092B18D17B6A09222A491846F2
:103C200018F0D5FF0346002B0FD1FB695B6C591CC4
:103C3000FA695164D9B2002301930023009303234E
:103C40000022F86900F04AFBC3E097F82130FE2B10
:103C500014D197F82230052B10D13B8D0E2B0DD1AE
:103C60007B6A1B78012B09D17B6A01330D2217492E
:103C7000184618F0ACFF0346002B13D097F82130FC
:103C8000FE2B25D197F82230002B21D13B8D0D2B17
:103C90001ED17B6A0D220D49184618F098FF034685
:103CA000002B15D1FB691422DA63FB69986C0023A1
:103CB0000022002107F0D0FE8BE000BF28E10108C0
:103CC00038E1010800E101080CE1010818E10108F0
:103CD00097F82130FE2B14D197F82230052B10D104
:103CE0003B8D0D2B0DD17B6A1B78012B09D17B6A93
:103CF00001330C227449184618F069FF0346002B63
:103D000013D097F82130FE2B1AD197F82230002BD0
:103D100016D13B8D0C2B13D17B6A0C226A491846B5
:103D200018F055FF0346002B0AD1FB691422DA6311
:103D3000FB69986C00230022002107F08DFE48E00B
:103D400097F82130002B14D197F82230042B10D192
:103D50003B8D0B2B0DD17B6A1B78022B09D17B6A23
:103D600001330A225949184618F031FF0346002B47
:103D700017D097F82130002B40F04D8297F8223071
:103D8000002B40F048823B8D0A2B40F044827B6A36
:103D90000A224E49184618F01AFF0346002B40F03D
:103DA0003A82FB691F22DA63FB69183348491846D7
:103DB00018F082FEFB6900225A61FB69032283F836
:103DC0003920FB69986C00230022002107F044FE93
:103DD00021E220E297F82130012B40F01E8297F873
:103DE0002230042B40F019823B8D022B40F01582CB
:103DF0007B6A1B78012B40F010827B6A01331A78B2
:103E0000FB6983F83920FB691E22DA63FB69986C31
:103E100000230022002107F01FFEFEE197F8213069
:103E2000012B40F0FC8197F82230042B40F0F78101
:103E30003B8D0A2B40F0F3817B6A1B78012B40F00D
:103E4000EE81FB6903F136007B6A013303221946D8
:103E500018F09EFAFB692822DA63FB69986C00234C
:103E60000022002107F0F8FDD9E197F82130022B5C
:103E700040F0D78197F82230062B40F0D2813B8D5D
:103E8000042B40F0CE817B6A1B78012B40F0C98166
:103E90007B6A01331B781A047B6A02331B781B028E
:103EA00013437A6A0332127813431A46FB695A6144
:103EB000FB693222DA63FB69986C0023002200213F
:103EC00007F0CAFDADE100BF28E1010838E10108B3
:103ED00044E1010897F82130FE2B40F0AB8197F8C0
:103EE0002230052B40F0A6813B8D0D2B40F0A281A6
:103EF0007B6A1B78012B40F09D81FB6903F1180060
:103F00007B6A01331B789C467B6A02331B789E4692
:103F10007B6A03331B781A467B6A04331B78194685
:103F20007B6A05331B781C467B6A06331B781D466B
:103F30007B6A07331B781E467B6A08331B783B611C
:103F40007B6A09331B78FB607B6A0A331B78BB6092
:103F50007B6A0B331B787B607B6A0C331B7809937D
:103F6000D7F80480CDF82080D7F80880CDF81C80E1
:103F7000D7F80C80CDF818803B690593049603951B
:103F800002940191009273466246A74918F094FD8D
:103F9000FB6993F83930012B01D0042B36D17B6AB1
:103FA0000B331B781B0243F47F037A6A0C321278BE
:103FB00013431A46FB691A61FB691B696FF07F4264
:103FC000934202D1FB69994A1A61FB69181D7B6A09
:103FD00008331B781C467B6A09331B781D467B6AB5
:103FE0000A331B781A467B6A0B331B7819467B6AA7
:103FF0000C331B780293019100922B4622468C4988
:1040000018F05AFDFB693C22DA6303E0FB693C22AD
:10401000DA6300BFFB69986C00230022002107F0DF
:104020001BFD07E197F82130032B37D197F8223099
:10403000012B33D13B8D042B30D17B6A1B78012BB4
:104040002CD17B6A01331B781A047B6A02331B78FC
:104050001B0213437A6A033212781343FB62FB6A32
:10406000002B08D0FB6A9BB24FF6FF72934202D03E
:10407000FB69FA6A1A61FB6993F83930032B01D0A6
:10408000462200E0FF22FB69DA63FB69986C00239B
:104090000022002107F0E0FC00BFCDE097F82130BE
:1040A000032B40F0C98097F82230012B40F0C480E8
:1040B0003B8D012B40F0C0807B6A1B78002B40F0C9
:1040C000BB80FB6993F83930042B04D0FB6993F86B
:1040D0003930012B02D1FB69FF22DA63FB69986C4E
:1040E00000230022002107F0B7FCA5E097F821305B
:1040F000032B40F0A38097F82230012B40F09E80E4
:104100003B8D0B2B40F09A807B6A1B78012B40F093
:104110009580FB69181D7B6A01330A22194618F045
:1041200037F9FB69FF22DA63FB69986C00230022F0
:10413000002107F091FC81E097F82130002B7FD11E
:1041400097F82230042B7BD13B8D072B78D17B6AEB
:104150001B78022B74D1FB6903F136007B6A0433B0
:104160000322194618F014F9FB693D22DA63FB6952
:10417000986C00230022002107F06EFC60E097F8A5
:104180002130012B5ED197F82230042B5AD13B8D80
:10419000062B57D17B6A03331B781A047B6A0433DE
:1041A0001B781B0213437A6A0532127813431A46AE
:1041B000FB691A61FB694722DA63FB69986C00238B
:1041C0000022002107F048FC3CE097F82130002B4A
:1041D0003AD197F82230042B36D13B8D0B2B33D1BB
:1041E0007B6A1B78022B2FD1FB69181D7B6A013378
:1041F0000A22194618F0CCF8FB69FF22DA63FB6942
:10420000986C00230022002107F026FC1CE000BF70
:104210001BE000BF19E000BF17E000BF15E000BFC2
:1042200013E000BF11E000BF48E10108FEFFFF00FE
:1042300080E1010800BF08E000BF06E000BF04E025
:1042400000BF02E000BF00E000BF3037BD46BDE860
:10425000F08100BF80B483B000AF78607B68043326
:1042600018460C37BD4680BC704780B483B000AFA1
:1042700078607B681B6918460C37BD4680BC704768
:1042800080B483B000AF78607B685B6918460C37F8
:10429000BD4680BC704780B483B000AF78607B6857
:1042A000183318460C37BD4680BC704780B483B0C5
:1042B00000AF78607B68363318460C37BD4680BC4B
:1042C000704780B483B000AF78607B6893F8393072
:1042D00018460C37BD4680BC704700002DE9F043FE
:1042E00089B000AF7860084611461A460346FB7055
:1042F0000B46BB7013467B706B461E4607F10803E6
:104300001846FCF7CDF97B6C11331946F9610B4661
:1043100001330022984691464FF000024FF000030F
:104320004FEAC90343EA58734FEAC8020B46013308
:1043300000221C4615464FF000024FF00003EB0030
:1043400043EA5473E2000B4601330733DB08DB001A
:10435000ADEB030D6B460033BB61FB783B72BB7862
:104360007B727B78BB723B6CFB607B6C9BB23B824D
:104370008BB201339AB207F108000123B969FCF747
:104380009CF90346FB827B68186D4FF6FF73112280
:104390000F4905F0AAFB7B68186DFA8A4FF6FF7388
:1043A000B96905F0A2FB7B68186D4FF6FF73012217
:1043B000084905F09AFB7B68DB6CFA8AB9691846F4
:1043C000FEF73AF8B54600BF2437BD46BDE8F08396
:1043D00098E10108FCE0010880B588B000AFF86002
:1043E0000B467A60FB72FB68FB61FB7AFB767B68AD
:1043F0007B614FF6FF717869FDF7F9FE3861FB6963
:10440000FA7EBFF35B8F1A70BFF35B8F00BF00BFF4
:104410002037BD4680BD80B586B000AF786039607A
:104420007B687B613B683B614FF6FF713869FDF744
:10443000DEFEF8607B69BFF35B8F1B78BFF35B8F99
:10444000DBB2002B14BF01230023DBB21846183760
:10445000BD4680BD80B584B000AF78607B68FB60EE
:10446000FB685868FB689968FB689B891A4612F0DC
:10447000CDFC03461A46FB681A75FB6893F91430A5
:1044800018461037BD4680BD80B58AB000AFF860D1
:10449000B9601346FB80FB687B61BB68BB61FB882E
:1044A000BB8307F110031946044809F081FC97F912
:1044B000243018462837BD4680BD00BF554400084B
:1044C00080B584B000AF78607B68FB60FB6858689B
:1044D000FB681969FB689A68FB689B8912F062FBAC
:1044E00003461A46FB681A75FB6893F914301846A0
:1044F0001037BD4680BD000080B58AB000AFF860BF
:10450000B9607A607B80FB687B617B68BB617B887C
:10451000BB83BB683B6207F110031946044809F0EE
:1045200047FC97F9243018462837BD4680BD00BFA8
:10453000C144000880B582B000AF7860786800F0B0
:1045400011FB00BF0837BD4680BD80B586B000AF07
:10455000F860B9607A603B607B68002B17D07B689D
:104560007B617B681B687B607B6900221A603B8CE7
:104570003A687969F86800F063FB034683F0010349
:10458000DBB2002BE8D078690CF0EEFAE4E700BF6C
:104590001837BD4680BD000080B582B000AF78609E
:1045A00039607B681846FCF799FD0F4A7B681A60F2
:1045B0000E4A3B68136000210D4800F089FB002182
:1045C0000C4800F095FB00210B4800F0AFFB0021E8
:1045D0000A4800F0C8FB0121094800F0C4FB7B68D1
:1045E00018460837BD4680BD00100208DC010020D7
:1045F000E8010020E4010020E0010020EC0100209F
:10460000F001002090B589B000AFF860B9607A6021
:104610007B80BB685B89BB61BB685B687B61BB6996
:10462000032B04D8B969A64817F0BEFF82E17B6965
:104630001B78002B10D07C68A24800F0B1FB034629
:104640009C4207D1A04800F0B8FB03461A467B887D
:10465000934201D0012300E00023002B03D09B48AC
:1046600018F03CF866E1BB69023B7A6913441C8888
:10467000BB699BB2023B9BB219467869FBF76EFFA0
:10468000034618460AF064FF03469C4214BF012308
:104690000023DBB2002B03D08D4818F01FF849E14E
:1046A00008F04AF903468B4A13607B691B78072B95
:1046B00000F2388101A252F823F000BFDD46000865
:1046C000F3470008334900081B48000871480008F8
:1046D0008D480008A7480008FD480008BB69052B65
:1046E0002ED17B6902331B78012B29D102217A4814
:1046F00000F070FB0021744800F07BFB002177483C
:1047000000F087FB7B6819466E4800F092FB7B88BF
:1047100019466D4800F06DFB714B186800230122AB
:104720000121FDF739FE01233B747B695B787B74C3
:1047300007F1100202230021F86800F005F957E0A4
:10474000BB69062B4FD17B6902331B78022B4AD100
:10475000614800F07CFBF8617B6903331B78002B18
:104760000BD1FB690233FB61F9695B4800F07CFB0C
:1047700000215A4800F04DFB10E07B6903331B78A1
:104780001A46FB69DBB29A4208D07B6903331B7877
:10479000FA691946534817F007FFCBE000214A4851
:1047A00000F027FB7B681946464800F042FB7B88F7
:1047B0001946454800F01DFB494B186800230122AB
:1047C0000121FDF7E9FD02233B747B695B787B7473
:1047D000FB69DBB2BB7407F1100203230021F86808
:1047E00000F0B2F804E0B9693F4817F0DDFEA1E03F
:1047F000A0E00021344800F0FCFA0021374800F026
:1048000008FB00212F4800F014FB354B18680023EB
:1048100000220021FDF7C0FD8CE0BB69052B04D010
:10482000B969324817F0C0FE84E02D4B18687B69E7
:1048300002331B7803F00103002B14BF0123002374
:10484000D9B27B6902331B7803F00203002B14BF3B
:1048500001230023DAB27B6902331B7803F00403DF
:10486000002B14BF01230023DBB2FDF795FD61E0AF
:10487000BB69042B04D0B9691D4817F095FE59E0B7
:10488000174B1B681846FDF7BDFD53E0BB69042BB1
:1048900004D0B969174817F087FE4BE001210F4893
:1048A00000F0B7FA46E0BB69042B04D0B96912489E
:1048B00017F07AFE3EE00021084800F0AAFA39E03D
:1048C000BCE10108E0010020E4010020ECE1010866
:1048D0001CE20108F4010020F0010020E8010020A2
:1048E000DC01002048E20108A0E20108D8E201084A
:1048F0000CE3010840E3010878E30108BB69042BDD
:1049000004D8B9690D4817F04FFE13E00C4B186836
:104910007B69991CBB699BB2043B9BB21A46FDF7AD
:104920008BFD07E07B691B781946064817F03CFEB3
:1049300000E000BF2437BD4690BD00BFB0E30108D2
:10494000DC010020E4E3010890B58BB000AFF86013
:104950007A603B600B46FB72294800F02EFA034652
:10496000FB84284800F01CFA38623B689BB2043391
:104970009BB20022194600200BF07EFDF861FB6916
:104980005B68BB613B6A7B61FB8C002B34D0BB69ED
:10499000FA7A1A7001211C4800F01CFA0246BB6921
:1049A0000133D2B21A703B68002B06D0BB690233C8
:1049B0003A687968184617F0EBFC3B689BB2023303
:1049C0009BB21946B869FBF7C9FD034619463B6817
:1049D0000233BA69D41808460AF0BAFD03462380A8
:1049E0000A4B1868FB8C07F11402F969FFF784FD84
:1049F000F8690CF0B9F800E000BF2C37BD4690BD57
:104A0000E4010020E0010020EC010020F80100207A
:104A100080B586B000AFF860B9601346FB802D48C2
:104A200000F030FA034683F00103DBB2002B4DD1D6
:104A3000FB8840F2BC52934205D9FB8819462648B0
:104A400017F0B2FD43E0FB88152B38D1BB68053366
:104A50001B78052B33D1BB6806331B78012B2ED175
:104A6000BB6808331B789B08DBB203F00703FB75B8
:104A7000FB7D052B23D12A2017F0AEFDBB680D333B
:104A800004221A70BB680E331D221A70FB88023B89
:104A90009BB21946B868FBF761FD0346BB82BB8A2F
:104AA0001B0A99B2FB88023BBA681344CAB21A7057
:104AB000FB88013BBA681344BA8AD2B21A70FB88E9
:104AC000BA680721F868FFF73FFF00E000BF18371A
:104AD000BD4680BDE80100201CE4010880B582B01D
:104AE00000AF786000220421202006F096FE0346E5
:104AF000144A1360144A0121144806F04DF8034685
:104B0000134A136012F098FA0346124A1360114BCD
:104B10001B687A681049184612F04AFA0D4B1B6858
:104B20004FF43C620D491846FFF7AEFC0C4B1B6876
:104B3000796800221846FDF715FC00BF0837BD460E
:104B400080BD00BF00020020D40F020835450008D8
:104B5000FC010020F80100204B450008641B0208FE
:104B6000DC01002080B586B000AF78600023FB60D8
:104B700007F0E2FE78612C4B1B6807F10C01642200
:104B8000184607F0C1F80346012B0CBF0123002390
:104B9000DBB2002B11D0FB681968FA68FB681B892F
:104BA00052687868FFF72EFDFB681B6818460BF00B
:104BB000DBFFFB68184617F0D3FB1C4800F0FDF83C
:104BC0000346002B14BF01230023DBB2002BD2D0FD
:104BD00007F0B2FE3861164B1B6803F59C5308338F
:104BE0003A699A4211D90021104800F002F90021D7
:104BF000104800F01EF9104B186800230022012114
:104C0000FDF7CAFB0D4817F069FD3A697B699A42C6
:104C1000B1D93B6903F57A737B610023002202213D
:104C20007868FFF791FEA6E700020020E40100206B
:104C3000F4010020E0010020DC01002054E4010820
:104C400090B589B000AFF860B9607A607B800C20C5
:104C500017F07EFB03467B617B69002B01D10023AB
:104C60002FE07B69BA681A60BB685B681C3BFB611C
:104C70007B69FA69D2685A60BB685B68083BBB61B4
:104C8000BB691B889BB27C6918460AF061FC03462D
:104C900023810E4B186807F1140100234FF0FF32F7
:104CA00006F0DAFE0346012B14BF01230023DBB21A
:104CB000002B05D07B69184617F052FB002300E05B
:104CC000012318462437BD4690BD00BF00020020D6
:104CD00080B582B000AF78600B46FB70FB78002295
:104CE00019467868FFF778FB00BF0837BD4680BDDE
:104CF00080B586B000AF78600B467B807B687B61B7
:104D00007B887B820023FB604FF6FF71F868FDF71C
:104D10006EFAB8607B69BFF35B8F7A8A1A80BFF343
:104D20005B8F00BF00BF1837BD4680BD80B586B021
:104D300000AF786039607B687B613B683B61002332
:104D4000FB604FF6FF71F868FDF751FAB8607B69B8
:104D5000BFF35B8F3A691A60BFF35B8F00BF00BF80
:104D60001837BD4680BD80B586B000AF7860396029
:104D70007B687B613B683B610023FB604FF6FF7102
:104D8000F868FDF734FAB8607B693A69BFF35B8F66
:104D90001A60BFF35B8F00BF00BF1837BD4680BDF0
:104DA00080B582B000AF78600521786800F077F8B0
:104DB000034618460837BD4680BD80B582B000AFB7
:104DC00078600521786800F084F8034618460837B3
:104DD000BD4680BD80B582B000AF786039600522E5
:104DE0003968786800F090F8034618460837BD46E1
:104DF00080BD80B582B000AF78600B467B807B8839
:104E000005221946786800F0A0F800BF0837BD46B3
:104E100080BD80B582B000AF78600B46FB70FB7838
:104E200005221946786800F0AFF800BF0837BD4684
:104E300080BD80B582B000AF7860396005223968E6
:104E4000786800F0B2F800BF0837BD4680BD80B575
:104E500082B000AF78600521786800F0C4F803469E
:104E600018460837BD4680BD80B582B000AF786077
:104E7000396005223968786800F0CEF800BF08373D
:104E8000BD4680BD80B582B000AF786005217868EE
:104E900000F0E0F8034618460837BD4680BD80B5EF
:104EA00086B000AF786039607B687B613B683B61AE
:104EB0004FF6FF713869FDF79AF9F8607B69BFF327
:104EC0005B8F1B68BFF35B8F00BF18461837BD466A
:104ED00080BD80B586B000AF786039607B687B614B
:104EE0003B683B614FF6FF713869FDF780F9F86068
:104EF0007B69BFF35B8F1B88BFF35B8F9BB200BFE7
:104F000018461837BD4680BD80B489B000AFF86040
:104F1000B9607A60FB68FB61BB68BB617B687B61E1
:104F2000FB69BA69BFF35B8F53E8001F01EB020016
:104F300043E8000CBCF1000FF6D1BFF35B8F0B46CA
:104F400018462437BD4680BC704780B588B000AF96
:104F5000F8600B467A607B81FB68FB617B897B8311
:104F60007B687B614FF6FF717869FDF740F9386126
:104F7000FB69BFF35B8F7A8B1A80BFF35B8F00BF37
:104F800000BF2037BD4680BD80B584B000AFF8605B
:104F90000B467A60FB72FB7A7A681946F868FFF76D
:104FA0001BFA00BF1037BD4680BD80B588B000AF8A
:104FB000F860B9607A60FB68FB61BB68BB617B68C5
:104FC0007B614FF6FF717869FDF711F93861FB6974
:104FD000BFF35B8FBA691A60BFF35B8F00BF00BF7E
:104FE0002037BD4680BD80B586B000AF786039609F
:104FF0007B687B613B683B614FF6FF713869FDF769
:10500000F6F8F8607B69BFF35B8F1B68BFF35B8FBB
:1050100018461837BD4680BD80B588B000AFF8602F
:10502000B9607A60FB68FB61BB68BB617B687B61D0
:105030004FF6FF717869FDF7DAF83861FB69BA69F4
:10504000BFF35B8F1A60BFF35B8F00BF00BF2037D9
:10505000BD4680BD80B582B000AF786039603968E8
:105060007868FFF7D8F9034618460837BD4680BD73
:1050700080B582B000AF7860074A7B681360074B49
:105080001B68986800230222002117F0D7FB00BF9D
:105090000837BD4680BD00BF04020020500000203C
:1050A00080B483B000AF786000BF074B1B6803F08B
:1050B0004003002BF9D07B68DAB2034B5A6000BF83
:1050C0000C37BD4680BC70470038014080B483B0C7
:1050D00000AF78603960054B6FF025021A604FF021
:1050E000FF3318460C37BD4680BC7047A49F002094
:1050F00080B586B000AFF860B9607A6000237B614C
:1051000009E0BB685A1CBA601B781846FFF7C8FF55
:105110007B6901337B617A697B689A42F1DB7B684A
:1051200018461837BD4680BD80B483B000AF7860A4
:105130007B68002B04DB7B68022B01DC012303E08E
:10514000044B09221A60002318460C37BD4680BC68
:10515000704700BFA49F002080B483B000AF786088
:105160007B68002B04DB7B68022B01DC002304E05E
:10517000044B09221A604FF0FF3318460C37BD4626
:1051800080BC7047A49F002080B485B000AFF86059
:10519000B9607A60044B09221A604FF0FF33184659
:1051A0001437BD4680BC7047A49F002080B586B0F0
:1051B00000AFF860B9607A60FB68002B10D10D4B2E
:1051C00018684FF0FF330122B96804F020FD034650
:1051D000FB75FB7D002B01D1012306E0052304E0D4
:1051E000054B09221A604FF0FF3318461837BD46A9
:1051F00080BD00BF04020020A49F002080B483B0C3
:1052000000AF786039607B683A681A607B6818463E
:105210000C37BD4680BC704780B582B000AF786067
:105220007B681B68184600F0B6FA03461846083734
:10523000BD4680BD80B582B000AF78607868FFF76A
:10524000EBFF034618460837BD4680BD80B582B0E7
:1052500000AF78600B46FB707B681B681A46FB78D2
:105260001946104600F0A5FA7B6818460837BD4677
:1052700080BD80B582B000AF78600B46FB70786867
:10528000FFF7D8FF03461A46FB78934206D0FB7817
:1052900019467868FFF7DAFF034600E07B68184696
:1052A0000837BD4680BD80B483B000AF78603960F8
:1052B0007B683A681A607B6818460C37BD4680BC2C
:1052C000704780B584B000AF78607B681A6807F1DA
:1052D0000C0311461846FFF791FFFB68184610377C
:1052E000BD4680BD80B483B000AF78607B681B682A
:1052F0005A1C7B681A607B6818460C37BD4680BC18
:10530000704780B584B000AF7860396007F10C0356
:1053100039681846FFF772FF07F10C031846FFF7CC
:1053200089FF034618461037BD4680BD80B586B05C
:1053300000AFF860B9601346FB7107F11403B96858
:105340001846FFF75BFFFA7907F114031146184678
:10535000FFF77CFF00BF1837BD4680BD80B582B027
:1053600000AF78607B68184621231A46002117F0A9
:1053700037F87B68213321220021184617F030F8D6
:105380007B68503341220021184617F029F87868CD
:1053900000F006F87B6818460837BD4680BD00005F
:1053A00080B582B000AF786000212348FFF7A9FFE5
:1053B00003469E2B14BF01230023DBB2002B06D033
:1053C0001E4817F08BF9786800F072F831E09121EF
:1053D0001948FFF796FF0346002B14BF0123002353
:1053E000DAB27B6883F8422090211348FFF789FFE7
:1053F00003461A467B68C3F894207B6821331A461B
:1054000001210D4800F0FBF87B6844331A468421E3
:10541000094800F028F97B6848331A468821064875
:1054200000F021F97B684C331A468C21024800F0C9
:105430001AF90837BD4680BD080200206CE4010857
:1054400080B582B000AF78607B6893F842301A462E
:1054500091211648FFF76AFF7B68D3F89430DBB2DE
:105460001A4690211148FFF761FF7B6844331A46C2
:1054700084210E4800F02BF97B6848331A468821B6
:105480000A4800F024F97B684C331A468C210748FF
:1054900000F01DF97B6821331A460121034800F012
:1054A00048F900BF0837BD4680BD00BF0802002094
:1054B00080B582B000AF78609E2200211248FFF7CD
:1054C00035FF7B68012283F842207B68FF22C3F806
:1054D00094207B6800225A647B6800229A647B686F
:1054E0000022DA647B682133084A2021184617F02D
:1054F000AFFA7868FFF7A4FF7868FFF751FF00BFA5
:105500000837BD4680BD00BF0802002080E40108C6
:1055100080B483B000AF78607B68213318460C37C5
:10552000BD4680BC704780B483B000AF78607B68B4
:1055300093F8423018460C37BD4680BC704780B4A3
:1055400083B000AF78607B685B6C18460C37BD4653
:1055500080BC704780B483B000AF78607B689B6C80
:1055600018460C37BD4680BC704780B483B000AF8E
:1055700078607B68DB6C18460C37BD4680BC704792
:1055800080B584B000AFF860B9603B601346FB7132
:10559000FB6821332022B968184617F02CFBFB79F1
:1055A000002B14BF01230023DAB2FB6883F84220EA
:1055B000FB683A685A64FB68BA699A64FB68FA69DE
:1055C000DA6400BF1037BD4680BD80B483B000AF41
:1055D00078607B68D3F8943018460C37BD4680BCA1
:1055E000704780B483B000AF786039607B683A68F8
:1055F000C3F8942000BF0C37BD4680BC704780B50F
:1056000088B000AFF860B9607A6007F11003B9683C
:105610001846FFF748FE7B68FB612123BB61BB692D
:10562000002B1BD007F110031846FFF74AFE034674
:105630007B6107F114031846FFF7FCFD034619468A
:10564000FB695A1CFA610A461A70BB69013BBB61CF
:1056500007F110031846FFF745FEE0E77B681846A0
:105660002037BD4680BD80B588B000AFF860B96016
:105670007A6007F11003B9681846FFF714FE7B68DB
:10568000FB610423BB61BB69002B1BD007F1100336
:105690001846FFF716FE03467B6107F11403184610
:1056A000FFF7C8FD03461946FB695A1CFA610A4612
:1056B0001A70BB69013BBB6107F110031846FFF785
:1056C00011FEE0E77B6818462037BD4680BD80B5F7
:1056D00088B000AFF860B9607A6007F11003B9686C
:1056E0001846FFF7E0FD7B68FB610423BB61BB69E3
:1056F000002B19D007F110031846FFF7E2FD03460F
:105700007B61FB695A1CFA611A7807F11403114690
:105710001846FFF7AEFDBB69013BBB6107F1100303
:105720001846FFF7DFFDE2E77B6818462037BD46E5
:1057300080BD80B588B000AFF860B9607A6007F1CD
:105740001003B9681846FFF7AEFD7B68FB612123A3
:10575000BB61BB69002B19D007F110031846FFF796
:10576000B0FD03467B61FB695A1CFA611A7807F1A8
:10577000140311461846FFF77CFDBB69013BBB6172
:1057800007F110031846FFF7ADFDE2E77B68184606
:105790002037BD4680BD80B582B000AF786000F094
:1057A0003BF8786800F016F8034618460837BD46FF
:1057B00080BD80B582B000AF78600B46FB70FB788F
:1057C0001946786800F016F800F038F800BF08377E
:1057D000BD4680BD80B483B000AF7860044A7B686A
:1057E00013441B7818460C37BD4680BC704700BF79
:1057F0001002002080B483B000AF78600B46FB70CD
:10580000044A7B681344FA781A7000BF0C37BD460F
:1058100080BC70471002002080B500AF054A064BDF
:10582000104619464FF400631A4616F0B1FD00BF4A
:1058300080BD00BF1002002000F8030880B58CB0C6
:1058400000AF0023FB622D4BBB622D4B7B6200231C
:105850007B604FF000024FF00003C7E906230023EE
:10586000BB600123FB60254B3B6101237B6102F0A0
:10587000A5F80346002B0CBF01230023DBB2002B4D
:1058800038D0204B40F21512DA603A1D07F10803B8
:105890001146184602F07AF90346002B0CBF01238B
:1058A0000023DBB2002B23D0BA6A7B6A9A421FD84E
:1058B000FB6A154A1344D3E90023C7E90623D7E955
:1058C0000623B96A032002F009F80346002B0CBF37
:1058D00001230023DBB2002B06D0BB6A0833BB6276
:1058E000FB6A0833FB62DFE77B6A0133BB62DBE7FD
:1058F00002F08AF800BF3037BD4680BD00F80308CB
:10590000FFFF0308002002401002002080B584B091
:1059100000AF1C4B9B691B4A43F001039361194B79
:105920009B6903F00103BB60BB68164BDB69154A3A
:1059300043F08053D361134BDB6903F080537B60EA
:105940007B6800220F216FF0010000F042FE002270
:105950000521052000F03DFE052000F056FE0A4B13
:105960005B68FB60FB6823F0E063FB60FB6843F06F
:105970000073FB60044AFB68536000BF1037BD46EC
:1059800080BD00BF001002400000014080B584B01F
:1059900000AF78607B681B680D4A934213D10D4BB2
:1059A000DB690C4A43F00203D3610A4BDB6903F065
:1059B0000203FB60FB68002205211D2000F009FEA8
:1059C0001D2000F022FE00BF1037BD4680BD00BF85
:1059D000000400400010024080B588B000AF78603D
:1059E00007F10C0300221A605A609A60DA607B6843
:1059F0001B68194A93422AD1184B9B69174A43F0F6
:105A000010039361154B9B6903F01003BB60BB68E7
:105A10004FF4E073FB6002233B610223BB6107F19B
:105A20000C0319460E4802F059F90E4B5B68FB61F6
:105A3000FB6923F44063FB61FB6943F0E063FB61B6
:105A4000FB6943F44063FB61064AFB69536000BF96
:105A50002037BD4680BD00BF00040040001002405A
:105A6000001001400000014080B58CB000AF7860AC
:105A700007F1200300221A605A609A60DA607B689E
:105A80001B683E4A93423DD13D4BDB693C4A43F49F
:105A90008013D3613A4BDB6903F48013FB61FB692C
:105AA000374B9B69364A43F010039361344B9B6933
:105AB00003F01003BB61BB69314B9B69304A43F073
:105AC000200393612E4B9B6903F020037B617B696C
:105AD0004FF480533B6202237B620323FB6207F196
