:020000040800F2
:1000000000000120696100081D5B0008235B0008F7
:10001000295B00082F5B0008355B0008000000002A
:10002000000000000000000000000000F1D6000801
:100030003B5B000800000000E1D70008475B0008B8
:10004000B1610008B1610008B1610008B161000848
:10005000B1610008615B0008B1610008B16100088E
:10006000B1610008B1610008B1610008B161000828
:10007000B1610008B1610008B1610008B161000818
:10008000B1610008B1610008B1610008B161000808
:10009000B1610008B1610008B1610008B1610008F8
:1000A000B1610008B1610008B1610008B1610008E8
:1000B000B16100086D5B0008B1610008B161000822
:1000C000B1610008B1610008B1610008B1610008C8
:1000D000B1610008B1610008B1610008B1610008B8
:1000E000B1610008B1610008B161000800000000C2
:1000F0000000000000000000000000000000000000
:100100000000000000000000B1610008B1610008BB
:10011000B1610008B1610008B1610008B161000877
:10012000B1610008B1610008B1610008B161000867
:10013000B1610008815B0008B1610008B16100088D
:10014000B1610008B1610008B1610008B161000847
:10015000000000000000000000000000000000009F
:10016000000000000000000000000000000000008F
:10017000000000000000000000000000000000007F
:10018000000000000000000000000000000000006F
:10019000000000000000000000000000000000005F
:1001A000000000000000000000000000000000004F
:1001B000000000000000000000000000000000003F
:1001C000000000000000000000000000000000002F
:1001D000000000000000000000000000000000001F
:0401E0005FF8E0F1F3
:1001F00010B5054C237833B9044B13B10448AFF361
:1002000000800123237010BDA80000200000000022
:10021000E8D9010808B5034B1BB103490348AFF304
:10022000008008BD00000000AC000020E8D90108F3
:1002300010F8012B11F8013B012A28BF9A42F7D090
:10024000D01A7047034613F8012B002AFBD1181A65
:100250000138704753B94AB9002908BF00281CBFAC
:100260004FF0FF314FF0FF3000F076B9ADF1080CE0
:100270006DE904CE00F006F8DDF804E0DDE90223C4
:1002800004B070472DE9F047089E0D4604468846A5
:10029000002B4DD18A42944668D9B2FA82F252B10B
:1002A00001FA02F3C2F1200120FA01F10CFA02FC7A
:1002B00041EA030894404FEA1C41B8FBF1F71FFAEA
:1002C0008CFE01FB178807FB0EF0230C43EA084362
:1002D00098420AD91CEB030307F1FF3580F01E8119
:1002E000984240F21B81023F63441B1AB3FBF1F0BA
:1002F00001FB103300FB0EFEA4B244EA0344A64502
:100300000AD91CEB040400F1FF3380F00981A645F3
:1003100040F20681644402380021A4EB0E0440EA56
:1003200007401EB10023D440C6E90043BDE8F08772
:100330008B4208D9002E00F0EE800021C6E90005AE
:100340000846BDE8F087B3FA83F100294AD1AB42F1
:1003500002D3824200F2FC80841A65EB0303012081
:100360009846002EE2D0C6E90048DFE702B9FFDE7A
:10037000B2FA82F2002A40F09180A1EB0C00012138
:100380004FEA1C471FFA8CFEB0FBF7F307FB130084
:10039000250C45EA00450EFB03F0A84208D91CEBEA
:1003A000050503F1FF3802D2A84200F2CE80434691
:1003B0002D1AB5FBF7F007FB10550EFB00FEA4B29B
:1003C00044EA0544A64508D91CEB040400F1FF35B6
:1003D00002D2A64500F2B6802846A4EB0E0440EAFD
:1003E00003409EE7C1F120078B4022FA07FC4CEA4C
:1003F000030C25FA07FA4FEA1C49BAFBF9F820FA70
:1004000007F309FB18AA8D401FFA8CFE1D4300FA62
:1004100001F308FB0EF02C0C44EA0A44A04202FA55
:1004200001F20BD91CEB040408F1FF3A80F088803C
:10043000A04240F28580A8F102086444241AB4FB6B
:10044000F9F009FB104400FB0EFEADB245EA04448E
:10045000A64508D91CEB040400F1FF356CD2A64573
:100460006AD90238644440EA0840A0FB0295A4EB34
:100470000E04AC42C846AE4656D353D0002E69D0C7
:10048000B3EB080264EB0E0422FA01F304FA07F757
:100490001F43CC40C6E90074002147E70CFA02FC78
:1004A000C2F1200125FA01F34FEA1C4720FA01F1BD
:1004B00095400D43B3FBF7F107FB11331FFA8CFE98
:1004C000280C40EA034001FB0EF3834204FA02F4D5
:1004D00008D91CEB000001F1FF382FD283422DD93F
:1004E00002396044C01AB0FBF7F307FB1300ADB24A
:1004F00045EA004503FB0EF0A84208D91CEB0505B0
:1005000003F1FF3816D2A84214D9023B6544281AD9
:1005100043EA014138E73146304607E72F46E4E633
:100520001846F9E64B45A9D2B9EB020865EB0C0E6B
:100530000138A3E74346EAE7284694E74146D1E776
:10054000D0467BE76444023847E7023B65442FE727
:10055000084606E73146E9E6704700BF80B485B03B
:1005600000AF78600B467B804DF27F73FB817B8808
:100570005A1E7A80002B14BF01230023DBB2002B0C
:1005800025D07B685A1C7A601B781B021AB2B7F917
:100590000E3053401BB2FB810023BB60BB68072BAE
:1005A000E5DCB7F90E30002B0ADAFB895B00FB8132
:1005B000FB8983F4FF4383F07A03DB43FB8102E092
:1005C000FB895B00FB81BB680133BB60E6E7FB890D
:1005D00018461437BD4680BC704780B586B000AF62
:1005E000F8600B467A607B817B89072B01D800235A
:1005F00052E0FB681B78FD2B01D000234CE0FB6828
:1006000001331B781B021AB2FB6802331B781BB242
:1006100013431BB29BB2033B9AB27B681A817B687F
:100620001B8903F108027B899A4201D0002333E041
:100630007B89023BFA6813441B781B021AB27B8940
:10064000013BF9680B441B781BB213431BB2FB82BE
:100650007B89023B9BB21946F868FFF77FFF034690
:100660001A46FB8A934214BF01230023DBB2002BFE
:1006700001D0002310E0FB68DA787B685A70FB68D1
:100680001A797B681A70FB685A797B689A70FB68E4
:100690009A1D7B685A60012318461837BD4680BDF5
:1006A00080B483B000AF78607B6800221A817B68D9
:1006B00018460C37BD4680BC704780B586B000AF89
:1006C000F860B96011461A460B46FB8013467B71F1
:1006D000FB681B89DA1DFB889A4201DB00238AE054
:1006E000BB68FD221A70FB681B8903331A12BB68B2
:1006F0000133D2B21A70FB681B89DAB2BB680233CD
:100700000332D2B21A70BB680333FA6852781A7097
:10071000BB680433FA6812781A70BB680533FA684C
:1007200092781A70FB681B89002B08D0BB68981D53
:10073000FB685968FB681B891A461BF079FDFB684A
:100740001B8906339BB21946B868FFF707FF0346BB
:100750007B827B8A1B0A99B2FB681B890633BA68C5
:100760001344CAB21A70FB681B890733BA68134472
:100770007A8AD2B21A70FB681B890833FB827B79B4
:10078000002B37D00123BB82BA8AFB8A9A4231D22E
:10079000BB8ABA6813441B78FC2B05D0BB8ABA68A5
:1007A00013441B78FD2B21D1BB8A0133BA68D018C2
:1007B000BB8ABA68D118FA8ABB8AD31A1A461BF0C8
:1007C00045FDBA68BB8A591CB9821344FC221A70D1
:1007D000BB8ABA6813441A78BB8AB9680B4402F022
:1007E0007F02D2B21A70FB8A0133FB82BB8A0133CB
:1007F000BB82C9E7FB8A18461837BD4680BD00009A
:1008000080B584B000AF7860154B1B785A1C154B2F
:1008100083FB02139910D317C91A0B465B000B44D4
:10082000DB00D11ACAB20E4B1A700023FB73FB7B9C
:10083000022B11D8FB7B0C4A52F82330002B0AD034
:10084000FB7B094A52F82330184600F0BFF8FB7BC7
:100850000133FB73EBE700BF7D200BF09BFED3E77A
:10086000C4000020ABAAAA2AC800002080B582B02C
:1008700000AF786039600E4A3B681360786804F016
:1008800068FE024613461B029B1A0A4A13600A4B73
:100890001B68002B07D1094A002109480AF0CAF851
:1008A0000346054A136000BF0837BD4680BD00BF40
:1008B000D8000020DC000020D4000020EC0D02084D
:1008C0000108000880B485B000AF78600B467B80DB
:1008D0000023FB73FB7B022B12D8FB7B0B4A52F8E5
:1008E0002330002B08D1FB7B08497A6841F823208C
:1008F0007B687A885A8003E0FB7B0133FB73E9E76E
:100900007B6818461437BD4680BC7047C80000207D
:1009100080B582B000AF78600B46FB707B68FA78D8
:100920001A70786800F052F800BF0837BD4680BDE5
:1009300080B483B000AF78600B46FB707B685B8847
:10094000002B0CD1FB78002B03D01E4B1B681A46E2
:1009500000E000221C4B1B681B685A632DE07B687B
:100960005B88042B0CD1FB78002B03D0154B1B6844
:100970001A4600E00022144B1B681B689A631CE0B7
:100980007B685B88082B0CD1FB78002B03D00D4BC8
:100990001B681A4600E000220B4B1B681B68DA63D9
:1009A0000BE0FB78002B03D0064B1B681A4600E0D7
:1009B0000022054B1B681B681A6400BF0C37BD463C
:1009C00080BC7047DC000020D800002080B582B0D9
:1009D00000AF78607B681B78052B4FD801A252F8D6
:1009E00023F000BFFD090008070A0008110A0008EB
:1009F0002D0A0008490A0008650A000800217868E5
:100A0000FFF796FF3AE001217868FFF791FF35E0A4
:100A10001C4B1B7803F00403002B0CBF01230023A5
:100A2000DBB219467868FFF783FF27E0154B1B7888
:100A300003F00403002B14BF01230023DBB219468B
:100A40007868FFF775FF19E00E4B1B7803F0010380
:100A5000002B0CBF01230023DBB219467868FFF797
:100A600067FF0BE0074B1B780B2B94BF0123002380
:100A7000DBB219467868FFF75BFF00BF00BF08379D
:100A8000BD4680BDC400002080B483B000AF786054
:100A90007B6800229A607B6818460C37BD4680BC94
:100AA000704780B483B000AF78607B689B68002B90
:100AB0000CBF01230023DBB218460C37BD4680BCB7
:100AC000704780B582B000AF786039607B681846A7
:100AD000FFF7DAFF386800F03CF80346002B0DD032
:100AE0003B689B6878683968022298473B68DA68F7
:100AF0007B68DA603B689A687B689A607B68184616
:100B00000837BD4680BDF0B585B000AFF860B9606C
:100B10001346FB80FB681846FFF7C3FF0346002B14
:100B200001D01BF01BFAFB68DC68FD6807F10803C5
:100B3000184600F01EF80646BB1D184600F023F8C4
:100B400003461A4631462846A04700BF1437BD4623
:100B5000F0BD80B582B000AF78607B681846FFF7C3
:100B6000A0FF034683F00103DBB218460837BD46F9
:100B700080BD80B483B000AF78607B6818460C37C6
:100B8000BD4680BC704780B483B000AF78607B689E
:100B900018460C37BD4680BC7047000080B400AFDB
:100BA000BFF34F8F00BF064BDB6803F4E0620449DC
:100BB000044B1343CB60BFF34F8F00BF00BFFDE773
:100BC00000ED00E00400FA05B0B594B000AF07F105
:100BD00018033822002118461BF052FB0123BB6189
:100BE0004FF480333B6204237B620123FB624FF4AA
:100BF0008033FB610223BB634FF48033FB634FF40C
:100C0000E0133B6402237B644FF4C063BB64402366
:100C1000FB6407F11803184607F062F90346002B3E
:100C200014BF01230023DBB2002B01D000F014FD20
:100C3000114B3C1D1D460FCD0FC42B6823603B1D7F
:100C40000221184607F062FC0346002B14BF012363
:100C50000023DBB2002B01D000F0FEFC00224FF09D
:100C6000C061002007F03CFD044B01221A6000BF68
:100C70005037BD46B0BD00BF10DA010870004242D7
:100C800080B58EB000AF554B554A1A60534B0022C9
:100C90005A60524B00229A60504B4FF6FF72DA6056
:100CA0004E4B00221A614D4B00229A614B4807F0CF
:100CB0007DFE0346002B14BF01230023DBB2002B73
:100CC00001D000F0C9FC07F1280300221A605A6025
:100CD0009A60DA604FF48053BB6207F1280319462B
:100CE0003E4808F07BF90346002B14BF0123002384
:100CF000DBB2002B01D000F0AFFC384807F0A5FEB6
:100D00000346002B14BF01230023DBB2002B01D0CC
:100D100000F0A2FC00233B6200237B6207F120036A
:100D200019462E4808F0FAFC0346002B14BF012395
:100D30000023DBB2002B01D000F08EFC3B1D002213
:100D40001A605A609A60DA601A615A619A61602387
:100D50007B600223FB603B1D002219461F4808F000
:100D60007FF80346002B14BF01230023DBB2002BC6
:100D700001D000F071FC3B1D04221946174808F011
:100D80006FF80346002B14BF01230023DBB2002BB6
:100D900001D000F061FC3B1D082219460F4808F005
:100DA0005FF80346002B14BF01230023DBB2002BA6
:100DB00001D000F051FC094804F0D2FD00210748A1
:100DC00007F09CFE0421054807F098FE082103481F
:100DD00007F094FE00BF3837BD4680BDE00000201C
:100DE0000004004080B500AF134B144A1A60124B48
:100DF0004FF4E1325A60104B00229A600E4B0022F1
:100E0000DA600D4B00221A610B4B0C225A610A4B1F
:100E100000229A61084B0022DA61074808F0F6FCCC
:100E20000346002B14BF01230023DBB2002B01D0AB
:100E300000F012FC00BF80BD2801002000380140F6
:100E400080B588B000AF424B9B69414A43F0100324
:100E500093613F4B9B6903F01003FB60FB683C4BC5
:100E60009B693B4A43F020039361394B9B6903F034
:100E70002003BB60BB68364B9B69354A43F00403D3
:100E80009361334B9B6903F004037B607B68304BB9
:100E90009B692F4A43F0080393612D4B9B6903F034
:100EA00008033B603B68002242F23021294806F0EB
:100EB000FEFF002240F20721274806F0F8FF01223A
:100EC00044F24001244806F0F2FF07F1100300222B
:100ED0001A605A609A60DA6042F230233B61012363
:100EE0007B610023BB610223FB6107F110031946FC
:100EF000184806F041FE01233B6100237B6101237A
:100F0000BB6107F110031946124806F035FE44F2A2
:100F100047233B6101237B610023BB610223FB610B
:100F200007F1100319460C4806F026FE4FF48073B3
:100F30003B6102237B610223FB6107F11003194629
:100F4000064806F019FE00BF2037BD4680BD00BF31
:100F50000010024000100140000C01400008014058
:100F600080B582B000AF7860094B93F83B309B109E
:100F7000DBB203F00103002B01D0064B00E0064B6F
:100F8000194606481BF060FA00BF0837BD4680BD11
:100F90003C0A002024DA010828DA010830DA0108C6
:100FA00080B500AF00224FF48041084806F07FFF73
:100FB000322005F061F901224FF48041034806F028
:100FC00076FFFA2005F058F900BF80BD000C014003
:100FD00080B584B000AF3B4600221A605A609A6028
:100FE000DA6008233B6001237B600023BB6002239F
:100FF000FB603B461946074806F0BEFD002208216B
:10100000044806F054FFFFF7CBFF00BF1037BD4682
:1010100080BD00BF0008014080B588B000AFF86017
:10102000B9607A603B6001212B4806F029FF034636
:10103000002B0CBF01230023DBB2002B48D0022180
:10104000B868FFF765FC0023FB7705F00BF9B86182
:101050004FF47A73FB8201211F4806F011FF03460B
:10106000002B0CBF01230023DBB2002B2CD005F09A
:10107000F9F838613A69BB69D21AFB8A9A42EAD90F
:10108000FB7F0133FB773B69BB61FB7F032B03D9FC
:101090000421B868FFF73CFCFB7F062BDBD900215D
:1010A000B868FFF735FC01213868FFF731FC0121F2
:1010B0007868FFF72DFCF86804F0BEF94FF4FA7079
:1010C00005F0DAF8FFF76AFD0021B868FFF720FCA9
:1010D00000BF2037BD4680BD0010014080B483B002
:1010E00000AF7860044A7B681A607B6818460C374A
:1010F000BD4680BC704700BF3C0E020880B582B080
:1011000000AF78607B681846FFF7E8FF134A7B68FA
:101110001A607B68043300221A605A60C3F8072003
:101120007B6800221A617B6800225A617B68183351
:1011300000221A605A609A60DA601A615A611A765F
:101140007B68313300221A809A707B68002283F812
:1011500034207B6818460837BD4680BD700E0208F3
:1011600080B5CCB002AF07F59473A3F59273186005
:1011700097481BF0EFF907F18003184604F0B2F826
:1011800007F1800207F17C031146184604F0BAFF0C
:1011900007F1780300211846FFF794FB07F1740369
:1011A00004211846FFF78EFB07F17003082118464B
:1011B000FFF788FB07F1800386491846FFF756FBC7
:1011C00007F1780300211846FFF7A2FB07F174032B
:1011D00000211846FFF79CFB07F170030021184619
:1011E000FFF796FB07F1700307F1740207F178012E
:1011F00007F18000FFF710FF07F174030221184682
:10120000FFF786FB74481BF0A5F9FFF7E1FE07F135
:101210008003184608F0A0FE704B93F83B309B10FB
:10122000DBB203F00103002B02D16D481BF092F9F1
:1012300007F18003184604F02FF903461946694860
:101240001BF002F968481BF085F907F1780307F1F4
:10125000700207F1740107F1640001F011F807F161
:101260006403184601F056F860481BF073F9604BB0
:101270001B68184600F002FF07F18003184604F0CF
:101280000BF94FF4167301935023009302230022AD
:10129000584900F0E5FB07F18003184604F0FCF81C
:1012A0004FF4167301934FF43C6300930323002221
:1012B000514900F0D5FB07F18003184604F0ECF823
:1012C0004FF4167301937B230093032300224B49B1
:1012D00000F0C6FB4A481BF03DF907F1140318461D
:1012E000FFF70CFF07F114034649184602F005F812
:1012F00007F1640207F114031146184602F00AF8D8
:1013000007F11403184602F0CEFF034687F8233195
:1013100097F82331002B00F0898097F82331042BB4
:1013200009D0042B0FDC012B09D0032B0BD136483D
:101330001BF010F90BE035481BF00CF907E03448BE
:101340001BF008F903E033481BF004F900BF07F174
:101350001403184602F070FF034619462E481BF08E
:1013600073F807F11403184602F087FF0346194685
:101370002A481BF069F807F11403184602F067FFCA
:101380000346194626481BF05FF807F11403184678
:1013900002F068FF0346194622481BF055F807F192
:1013A0001403184602F074FFC7F81C01D7F81C316B
:1013B0001B781946D7F81C3101331B781A46D7F829
:1013C0001C3102331B7818481BF03EF831E000BF97
:1013D0004CDA0108E000002060DA01083C0A002035
:1013E00070DA010888DA010898DA0108B8DA010829
:1013F000C09D0020C8DA0108D0DA0108DCDA010853
:10140000E4DA01082801002004DB010820DB0108E0
:1014100038DB010850DB010870DB010880DB0108C4
:1014200090DB0108ACDB0108C8DB01087F481BF03A
:101430000BF807F16403184600F0D8FF7C481BF056
:1014400089F807F1640207F110031146184603F00A
:1014500095F807F11003184603F004FB75481BF0DC
:1014600079F807F17C03184604F05CFE07F180036D
:10147000184604F01CF80346002B0CBF0123002380
:10148000DBB2002B07D06C4819F00CFD034619465F
:101490006A481AF0D9FF07F1740300211846FFF7D4
:1014A00037FA07F1700302211846FFF731FA644852
:1014B0001BF050F84FF0FF33C7F8243107F18003D9
:1014C000184604F046F80246D7F82431934214BF78
:1014D00001230023DBB2002B0CD007F18003184658
:1014E00004F037F8C7F8240107F18003554918467E
:1014F000FFF7BCF94FF47A700BF04CF807F10C03CE
:101500001A460121504805F00CFC0346002B0CBF85
:1015100001230023DBB2002B5DD007F59473A3F504
:101520008E731B6803F00403002B1FD1474B93F805
:101530003B309B10DBB203F00103002B4BD007F1D3
:101540008003184603F0B3FF0346012B0CBF0123B1
:101550000023DBB2002B02D03C4816F013FD3B48C1
:101560000EF0F2FD39480EF047FE34E0374B93F8A9
:101570003B309B10DBB203F00103002B2BD107F1B2
:101580008003184603F093FF0346012B07D12F4831
:1015900017F0B6FB0346002B01D1012300E0002326
:1015A000002B02D02A4B00221A6028480EF0F6FDCC
:1015B00026480EF073FD07F18003184603F077FF0D
:1015C0000346012B0CBF01230023DBB2002B02D00A
:1015D0001E4815F0FBFF07F18003184603F067FF74
:1015E0000346012B07D1194817F08AFB0346002B4D
:1015F00001D0012300E00023002B3FF45FAF0E4831
:1016000019F050FCC7F81801114B1B68D7F81821C6
:101610009A423FF453AFD7F818110E481AF014FF4E
:101620000B4AD7F81831136048E700BFE8DB010820
:101630000CDC010828DC0108400A002038DC010825
:1016400048DC0108E0000020E85200203C0A0020AD
:101650007001002060DC010880B400AF72B600BFEA
:10166000FEE7000080B500AF04F0A4FDFFF7ACFA80
:10167000FFF7E6FBFFF7B6FB084803F0BDFCFFF7FA
:10168000FFFA09F049F9064A0021064809F0D2F9A3
:101690000346054A136009F071F9FEE728010020AE
:1016A000100E0208611100086C01002080B586B0A0
:1016B00000AFF860B9607A60BB685A1CBA601B78EA
:1016C0003B613B6903F0C003C02B16D13B691B0291
:1016D00003F47C533B61BB685A1CBA601B781A4602
:1016E0003B6913433B613B69FA6813447A681946C6
:1016F000F868FFF7DBFFBB682EE03B6903F0C0032F
:10170000002B05D0396916481AF09EFEBB6823E00D
:1017100000237B610AE0BA68531CBB607B68591CDC
:10172000796012781A707B6901337B617A693B6951
:101730009A42F0DB3B69002B05D17B685A1C7A602A
:1017400000221A7004E07B685A1C7A602E221A70FC
:101750003B69002BB0DCBB6818461837BD4680BD1E
:1017600070DC010880B58AB000AFF860B9607A60BB
:1017700000233B620023FB613B6ABB6102E03B6AE2
:1017800001333B623B6AFA6813441B782E2B05D069
:101790003B6AFA6813441B78002BF0D13A6ABB69A4
:1017A000D31A7B61FB695A1C7B6913447A689A429D
:1017B00009DAFB695A1C7B69134419461B481AF065
:1017C00043FE00232EE0BB685A1CBA607A69D2B28D
:1017D0001A70FB690133FB6100237B620DE0BA697B
:1017E0007B6A13441A46FB681A44BB68591CB960EB
:1017F00012781A707B6A01337B627A6A7B699A423B
:10180000EDDBFA697B691344FB613B6AFA681344B8
:101810001B782E2B02D13B6A01333B627B69002B84
:10182000AADCFB6918462837BD4680BD90DC01085C
:1018300080B586B000AFF860B9607A603B607A68C6
:10184000B968F868FFF732FFB860BB681B683B6196
:101850003B8A18460DF0CCFD03461A463B6A1A80B7
:101860007B8A18460DF0C4FD0346FB82FB8ADB0B26
:101870009BB2DAB27B6A1A70FB8AC3F30E039AB288
:101880003B681A80BB68043318461837BD4680BDD4
:1018900080B588B000AFF8607A603B600B467B8112
:1018A000F868FEF7CFFC03460133FB613A8DFB6914
:1018B00013441033BB61BB6918461AF099FC034608
:1018C0007B617B69002B04D1B96916481AF0BCFD15
:1018D00023E07B697A899A807B697A689A60FB69E0
:1018E0009AB27B699A817B693A8DDA817B69103380
:1018F000FA69F96818461AF09BFCFB6910337A699B
:1019000013443A8D396818461AF092FC064B1A684F
:101910007B691A60044A7B69136000BF2037BD46AB
:1019200080BD00BFB4DC01087801002080B598B00C
:1019300002AFF860B9607A6007F1140340221946DB
:101940007868FFF70FFF03467B657B6D002B0AD09D
:101950007B6D9BB207F1140200931346BA680C2109
:10196000F868FFF795FF00BF5837BD4680BD80B5CA
:101970009AB002AFF860B9603B601346FB80002369
:10198000BB820023FB82FB8818460DF031FD034625
:101990003B8307F114030633402219463868FFF7EA
:1019A000E1FEF865FB6D002B0CDDFB6D9BB2063391
:1019B0009BB207F1140200931346BA682121F8681C
:1019C000FFF766FF00BF6037BD4680BD80B588B0B9
:1019D00002AFF860B9607A607868FEF733FC0346BE
:1019E000FB82FB8AFF2B05D9FB8A194612481AF0A5
:1019F0002BFD1EE0FB8A013318461AF0F9FB034663
:101A00003B61FB8ADAB23B691A703B690133FA8A9F
:101A1000796818461AF00CFCFB8A01339BB20093DC
:101A20003B69BA681021F868FFF732FF38691AF08D
:101A3000E7FB1837BD4680BDE0DC010880B586B005
:101A400002AFF860B9607A60042300937B68BA68DB
:101A50000121F868FFF71CFF00BF1037BD4680BDAD
:101A600080B58EB002AFF860B9607A60FB70B8687C
:101A7000FEF7E8FB03460C33FB62FB6A01331846B2
:101A80001AF0B6FB0346BB62F868FEF7DBFB0246C2
:101A9000FB6A134401337B627B6A013318461AF0F8
:101AA000A7FB03463B62F868FEF7CCFB034607330F
:101AB000FB61FB69013318461AF09AFB0346BB61D0
:101AC000FB6A591CFB7803F00103002B01D0264B65
:101AD00000E0264B0093BB68254AB86A1AF0F4FE72
:101AE0007B6A591CBB6A0093FB68224A386A1AF069
:101AF000EBFEFB69591CFB681F4AB8691AF0E4FE4B
:101B00007B68002B04D07A68F96B386AFFF75EFFB8
:101B100000237B6107F114031A46F96BB869FFF7DC
:101B20008DFF3A8FBB69F96B386AFFF720FF3A6A7D
:101B3000F96BB86AFFF7FAFEFB7803F00203002B9B
:101B400004D0BA6AF96B0D48FFF7F0FEB86A1AF0D4
:101B500057FB386A1AF054FBB8691AF051FB00BF02
:101B60003037BD4680BD00BF00DD010808DD01083B
:101B700010DD010820DD010828DD010834DD010841
:101B800080B584B000AF78600B467B80104B1B683B
:101B9000FB6013E0FB689B887A889A4202D07B88BE
:101BA000FF2B08D1FB681033796818461AF024FF20
:101BB0000346002B06D0FB681B68FB60FB68002B0C
:101BC000E8D100E000BFFB6818461037BD4680BD75
:101BD0007801002080B58AB000AFF860B9607A6003
:101BE0007B68C3F5A0737B62FB6803F110007B6820
:101BF000BA6813447A6A1946FFF7B4FD03463B629C
:101C00003B6A002B01D17B6854E0FB68DB891A46F4
:101C10003B6A13440A337A6A9A420BD2FB68DB8927
:101C20001A463B6A13440A33194624481AF00CFC3E
:101C30007B683FE07A683B6A13447B60FB689B8863
:101C400018460DF0D5FB0346BB8201200DF0D0FBFA
:101C50000346FB82FB689B6818460DF0D6FB0346E3
:101C6000BB61FB68DB8918460DF0C2FB0346BB83F2
:101C70007B68BA6813441A4607F1140303CB10605B
:101C800051601B8813817B680A337B607B68BA686C
:101C9000D018FB689B891033FA68D118FB68DB8980
:101CA0001A461AF0C5FAFB68DB891A467B681344AA
:101CB0007B607B6818462837BD4680BD54DD01082F
:101CC00080B58AB002AFF860B9607A607B689BB279
:101CD0000022194600200EF01FFBF861FB69002B63
:101CE00025D0FB695B687A68B96818461AF0A0FAD3
:101CF000134BBB61134B5B687B61134B18687B69AB
:101D0000009341F2E943BA69F96914F0DBFE034636
:101D1000FB7497F91330002B05D097F9133019464F
:101D20000A481AF091FBF8690EF06EFE03E079683C
:101D300007481AF089FB00BF2037BD4680BD00BFB1
:101D4000400E020890650020740100207CDD01082F
:101D500098DD010880B5B4B002AF786039603B68A7
:101D6000C7F8B4304FF4A0701AF042FA0346C7F82F
:101D7000B030D7F8B030002B05D14FF4A07199489E
:101D80001AF062FB2AE1D7F8B030C7F8AC303B68F4
:101D90001B889AB2D7F8AC301A80D7F8AC308422BE
:101DA0009A70D7F8AC300022DA70D7F8AC30002245
:101DB0001A7100225A71D7F8AC3000229A710022B1
:101DC000DA71D7F8AC3000221A7200225A72D7F8B2
:101DD000AC3000229A720022DA720C23C7F8C030AD
:101DE0000023C7F8BC30D7F8B4300C33C7F8B8308C
:101DF0003B689B889BB218460DF0FAFA0346C7F879
:101E0000A8300023C7F8C43092E007F1920107F12F
:101E10000C0207F18F03019307F1900300930B4627
:101E2000D7F8B810D7F8B400FFF702FDC7F8B8002C
:101E3000B7F89230012B03D0B7F89230FF2B72D154
:101E4000B7F8902007F10C0311461846FFF798FEEB
:101E5000C7F89C00D7F89C30002B64D0D7F89C3092
:101E60009B88012B0FD1604B5B68C7F89830D7F87F
:101E70009C309B891033D7F89C201344D7F89820C6
:101E8000043212681A60D7F8C020D7F8B010D7F81B
:101E90009C00FFF79FFE0346C7F89430D7F8C03088
:101EA000D7F894209A4215D9D7F8AC30DB889BB28A
:101EB00018460DF09DFA034601339BB218460DF00B
:101EC00097FA03461A46D7F8AC30DA80D7F8943040
:101ED000C7F8C030B7F890300C2B10D1D7F89C3031
:101EE0001B68002B1FD0D7F89C301B689B88212BC8
:101EF00019D1D7F89C301B68C7F8BC3013E0B7F88D
:101F00009030212B0FD1D7F89C301B68002B0AD0C2
:101F1000D7F89C301B689B88012B04D1D7F89C30E4
:101F20001B68C7F8BC30D7F8C4300133C7F8C430D9
:101F3000D7F8C420D7F8A8309A42FFF666AFD7F892
:101F4000C0300C2B46DDD7F8BC30002B3BD0D7F887
:101F5000BC309B88012B0FD1234B5B68C7F8A430A2
:101F6000D7F8BC309B891033D7F8BC201344D7F87E
:101F7000A420043212681A60D7F8C020D7F8B01035
:101F8000D7F8BC00FFF726FE0346C7F8A030D7F805
:101F9000C030D7F8A0209A4215D9D7F8AC305B8969
:101FA0009BB218460DF024FA034601339BB2184643
:101FB0000DF01EFA03461A46D7F8AC305A81D7F80E
:101FC000A030C7F8C030D7F8C020D7F8B010786874
:101FD000FFF776FED7F8B0001AF012F9C837BD4601
:101FE00080BD00BFBCDD01089065002080B588B0D1
:101FF00000AFF860B9607A603B607B681B89FB6169
:10200000FB69B3F5A07F30DCFB691B2B2DDDFB6981
:1020100018461AF0EDF80346BB61BB69002B04D1EA
:10202000F96915481AF010FA1FE0FB699AB200230B
:10203000B96978680EF0F2FE03461A46FB699342CE
:1020400010D1BB697B617B699B7803F0FA03002B9D
:1020500008D17B699B889BB2002B03D079693868D3
:10206000FFF778FEB8691AF0CBF878680EF0CCFC70
:1020700000BF2037BD4680BDE0DD010880B584B0DB
:1020800000AF78607B68002B37D07B6893F83B30DB
:1020900003F02003002B1FD17B6893F83B3043F003
:1020A0002003DAB27B6883F83B20786817F00AFFD8
:1020B0000346FB7397F90F30002B0DD07B6893F824
:1020C0003C3019467B6893F83D301A4697F90F303B
:1020D00024481AF0B9F941E02349786818F058F813
:1020E0000346FB7397F90F30002B06D097F90F309A
:1020F00019461E481AF0A8F930E07B68002B03D17E
:102100001B481AF027FA29E02E2014F0FFFE0346A0
:10211000184A1360174B1B68002B03D116481AF09E
:1021200019FA1BE0134B1B6841F2E94213491846A8
:1021300014F0BCFD0346FB7397F90F30002B06D05B
:1021400097F90F3019460E481AF07EF906E0094B50
:102150001B6800220B49184614F07AFE1037BD4662
:1021600080BD00BF04DE0108400E020834DE010815
:1021700058DE01087401002078DE01080415020809
:1021800098DE0108ED1F000880B483B000AF7860CE
:102190007B6818460C37BD4680BC704780B483B05E
:1021A00000AF78607B6818460C37BD4680BC70472E
:1021B00080B582B000AF78607B689B68002B05D04B
:1021C0007B689B6878687968032298477B68184623
:1021D0000837BD4680BD80B483B000AF78603960F9
:1021E0003A687B68134018460C37BD4680BC704780
:1021F00080B500AF144B154A1A60134B4FF4E1320F
:102200005A60114B00229A600F4B0022DA600E4B8D
:1022100000221A610C4B0C225A610B4B00229A616E
:10222000094B0022DA6100220021074807F03BFB3E
:102230000346002B14BF01230023DBB2002B01D087
:10224000FFF70AFA00BF80BD7C010020005000406B
:1022500080B582B000AF7860786800F0F5F800BF14
:102260000837BD4680BD80B582B000AF78607B681E
:102270001846FFF79DFF7B6818460837BD4680BDAE
:10228000B0B590B002AFF860B9607A603B60FB68AF
:10229000BA681A60FB687A685A60FB683A689A60A4
:1022A000184BFB6200233B63FB687B6307F1200054
:1022B00007F1340207F12C01134B0093134B00F08C
:1022C000B9F907F1200207F110031146184600F092
:1022D000D3F907F1100540F61C0019F02BFE034658
:1022E0001C462A460021204603F054FC084B1C6083
:1022F00007F110031846FFF7B6FFFB68184638379A
:10230000BD46B0BDFD2500081B1502081A150208C0
:10231000C801002080B582B000AF7860FFF768FF89
:10232000074A0021074808F085FB0346064A136068
:10233000786800F05BF800BF0837BD4680BD00BF7D
:10234000440E020851220008C001002080B584B06C
:1023500000AFF860B9601346FB71B968064800F039
:10236000B3F9064B1B68FA791146184603F036FD9F
:1023700000BF1037BD4680BDC4010020C801002049
:1023800080B582B000AF7860084611461A46034611
:10239000FB700B46BB7013467B707B681A68FB783A
:1023A000002B01D0012300E0002319461046FEF760
:1023B000AFFA7B685A68BB78002B01D0012300E09C
:1023C000002319461046FEF7A3FA7B689A687B78CB
:1023D000002B01D0012300E0002319461046FEF730
:1023E00097FA00BF0837BD4680BD000080B582B0B7
:1023F00000AF786000224021084805F058FD3220E7
:102400000AF0C8F801224021044805F050FD3220AE
:102410000AF0C0F800BF0837BD4680BD000C01407F
:1024200080B584B000AFF860B9601346FB80FA88CD
:102430004FF6FF73B968034807F0A5FA00BF1037DD
:10244000BD4680BD7C01002080B5ADF5087D02AFA2
:1024500007F50673A3F50573186007F50673A3F572
:10246000827300221A600433FB220021184619F0FF
:1024700007FF07F50673A3F5837301221A8007F59A
:102480000673A3F5027300221A600433FB220021B5
:10249000184619F0F5FE0BF06FF9564B1B681B68D8
:1024A00003F02003202B0CBF01230023DBB2012B00
:1024B0000CBF01230023DBB2002B00F0938007F553
:1024C0008A71002301224B4807F0EFFA07F50673E3
:1024D000A3F582731B78DBB2FD2B0CBF0123002315
:1024E000DBB2002BD9D007F10E0307F58A71052264
:1024F0000092FF223F4807F07AFB07F50673A3F529
:102500000273FD221A700023A7F8163207F506732E
:10251000A3F20A231B88B7F816229A424ED2B7F8C4
:10252000163207F50672A2F58272D35CD9B207F5AE
:102530000673A3F583731B889BB21A4607F50673CF
:10254000A3F502739954B7F8163207F50672A2F58F
:102550008272D35CDBB2FD2B0CBF01230023DBB204
:10256000002B18D0244B186807F50673A3F5837366
:102570001B889AB207F11003194603F0FDFB07F51B
:102580000673A3F5837301221A8007F50673A3F57A
:102590000273FD221A7007F50673A3F583731B8877
:1025A0009BB201339AB207F50673A3F583731A80C1
:1025B000B7F816320133A7F81632A7E70E4B1868A2
:1025C00007F50673A3F583731B889AB207F110030E
:1025D000194603F0D1FB07F50673A3F583730122B7
:1025E0001A805AE70BF0E2F8034B1B68184603F019
:1025F000E0FB50E77C010020C801002080B586B0D8
:1026000000AFF860B9601346FB80094800F06AF833
:1026100078617B69002B06D07B691B681B68FA8890
:10262000B9687869984700BF1837BD4680BD00BFBC
:10263000C4010020F0B587B002AFF860B9607A60DD
:102640003B60B86800F05BF80446786800F061F819
:102650000546386800F067F80646B86A00F06DF87D
:102660000346009333462A462146F86800F08DF869
:10267000F8681437BD46F0BD90B583B000AF786000
:1026800039607B681846FEF7FFF9386800F0A6F855
:102690000346002B0ED07C68386800F0A9F803468A
:1026A0001946204600F0AEF87B68054ADA607B6880
:1026B000044A9A607B6818460C37BD4690BD00BF3F
:1026C000292800085F28000880B582B000AF786034
:1026D000396005223968786800F0E0F800BF0837F3
:1026E000BD4680BD80B582B000AF786005217868B6
:1026F00000F0E3F8034618460837BD4680BD80B4B5
:1027000083B000AF78607B6818460C37BD4680BC4C
:10271000704780B483B000AF78607B6818460C3790
:10272000BD4680BC704780B483B000AF78607B68E2
:1027300018460C37BD4680BC704780B483B000AFEC
:1027400078607B6818460C37BD4680BC7047F0B592
:1027500085B000AFF860B9607A603B60FC68B8682B
:10276000FFF7D7FF05467868FFF7DDFF06463868B4
:10277000FFF7E3FF034632462946204600F0B5F84E
:10278000FB6818461437BD46F0BDF0B585B000AF04
:10279000F860B9607A603B60B86800F09CF8024667
:1027A000FB6892E8030083E80300FB6803F1080478
:1027B0007868FFF7AEFF05463868FFF7B4FF0646B6
:1027C000B86AFFF7BAFF0346324629462046FFF7AC
:1027D000BEFFFB6818461437BD46F0BD80B483B019
:1027E00000AF7860012318460C37BD4680BC7047A7
:1027F00080B483B000AF78607B6818460C37BD4664
:1028000080BC704790B583B000AF7860396038689D
:10281000FFF7EEFF034622461946786800F0B0F84D
:1028200000BF0C37BD4690BDB0B584B000AFF860B6
:10283000B9607A60F86800F0BFF80446B868FEF73F
:1028400098F905467868FEF79EF903461A46294628
:10285000204600F0BEF800BF1037BD46B0BD90B5B1
:1028600085B000AFF860B9601346FB71FB79012BAE
:1028700009D1B86800F0A0F80446F86800F0C4F880
:1028800003461C6005E0FB791A46B968F86800F059
:10289000C7F8002318461437BD4690BD80B584B0F4
:1028A00000AFF860B9607A607A68B968F86800F0DB
:1028B000E2F800BF1037BD4680BD80B582B000AFE2
:1028C000786039603968786800F0F3F80346184694
:1028D0000837BD4680BD80B483B000AF78607B68A8
:1028E00018460C37BD4680BC704790B585B000AF28
:1028F000F860B9607A603B607868FFF714FF0446BF
:102900003868FFF71AFF03461A462146F86800F0B8
:10291000E9F8FC68B868FFF7FCFE03461946204654
:1029200000F0F3F8FB6818461437BD4690BD80B53B
:1029300082B000AF786039607B683A68114618460B
:1029400000F0F4F87B6818460837BD4680BD80B5B6
:1029500082B000AF786039607B683A6892E8030023
:1029600083E803007B6803F108023B6808331946DB
:102970001046FFF7DCFF7B6818460837BD4680BD70
:10298000B0B584B000AFF860B9603A71B868FFF7CD
:102990002FFF05460C2019F0CDFA03461C462946A8
:1029A0002046FFF7D4FFF86800F02EF803461C60BD
:1029B00000BF1037BD46B0BD80B582B000AF7860B3
:1029C000786800F0D6F803461B6818460837BD46FD
:1029D00080BDF0B585B000AFF860B9607A60F86886
:1029E00000F0D3F80446B868FEF7C3F805467868E7
:1029F000FEF7C9F803462A462146304600F0CFF8D4
:102A000000BF1437BD46F0BD80B582B000AF78601E
:102A10007868FFF7B9FB034618460837BD4680BD06
:102A2000B0B584B000AFF860B9601346FB71FB79B4
:102A3000032B16D0032B19DC012B02D0022B0AD05A
:102A400014E0B868FFF7B8FF0446F868FFF7DCFF4A
:102A500003461C600AE02A46B968F86800F0BBF833
:102A600004E02146F86800F0D4F800BF00231846BF
:102A70001037BD46B0BD80B588B000AFF860B96012
:102A80007A60FB68FB61BB68BB617B687B614FF66A
:102A9000FF717869FFF79FFB3861FB69BA69BFF383
:102AA0005B8F1A60BFF35B8F00BF00BF2037BD464E
:102AB00080BD80B586B000AF786039607B687B618F
:102AC0003B683B614FF6FF713869FFF784FBF860A4
:102AD0007B69BFF35B8F1B68BFF35B8F18461837AA
:102AE000BD4680BD80B584B000AFF860B9607A6043
:102AF0007968F86800F0A1F8B968F86800F0ABF8F8
:102B0000FB6818461037BD4680BD80B582B000AF67
:102B1000786039603868FFF7FCFD03461A687B6807
:102B20001A607B6818460837BD4680BD90B583B0F3
:102B300000AF78603960386800F098F803461846AE
:102B400000F09EF803461946786800F0B0F87C68FB
:102B5000386800F09FF803461846FFF7DAFD034691
:102B600019462046FFF7D1FF7B6818460C37BD4653
:102B700090BD80B582B000AF78607868FFF70EFB3B
:102B8000034618460837BD4680BD80B483B000AF09
:102B900078607B6818460C37BD4680BC7047B0B57E
:102BA00084B000AF3873B9607A603B60B868FFF7F3
:102BB000ECFF04467868FDF7DCFF05463868FDF752
:102BC000E2FF03461A462946204600F092F800BF6D
:102BD0001037BD46B0BDB0B584B000AFF860B96085
:102BE0003A71B86800F0A4F803461D680C2019F08B
:102BF000A1F903461C4623462A4607CA83E8070074
:102C0000F868FFF701FF03461C6000BF1037BD46A0
:102C1000B0BD80B582B000AF786039707868FFF7DA
:102C2000F3FE03461B68002B03D00C21184619F055
:102C30007FF900BF0837BD4680BD80B582B000AFC8
:102C4000786039603968786800F07EF87B681846EB
:102C50000837BD4680BD80B483B000AF786039606E
:102C60007B6818460C37BD4680BC704780B483B083
:102C700000AF78607B6818460C37BD4680BC704753
:102C800080B483B000AF78607B6818460C37BD46CF
:102C900080BC704780B582B000AF78607B68184612
:102CA00000F05DF8034618460837BD4680BD80B584
:102CB00082B000AF78603960386800F05AF8034697
:102CC000184600F060F803461946786800F07BF873
:102CD000386800F062F80346184600F06AF80346C8
:102CE0001946786800F085F87B6818460837BD46B5
:102CF00080BDB0B586B000AFF860B9607A60B868E2
:102D0000FDF737FF04467868FDF73DFF024607F1FF
:102D100010032146184600F079F807F110032A46FF
:102D20001946F86800F089F800BF1837BD46B0BDF5
:102D300080B582B000AF78607868FFF72FFA03465D
:102D400018460837BD4680BD80B483B000AF7860B8
:102D500039607B6818460C37BD4680BC704780B42C
:102D600083B000AF78607B6818460C37BD4680BCE6
:102D7000704780B483B000AF78607B6818460C372A
:102D8000BD4680BC704780B483B000AF78607B687C
:102D900018460C37BD4680BC704780B582B000AF86
:102DA0007860786800F080F8034618460837BD461A
:102DB00080BD80B483B000AF78607B6818460C3764
:102DC000BD4680BC704780B582B000AF7860396086
:102DD000386800F073F80346184600F07BF80346A5
:102DE0001946786800F080F87B6818460837BD46B9
:102DF00080BD80B582B000AF786039603868FFF779
:102E0000D8FF7B6818460837BD4680BD90B585B0B1
:102E100000AFF860B9607A60B868FDF7AAFE0446B2
:102E20007868FDF7B0FE03461A462146F86800F0C0
:102E300068F8F8681437BD4690BDF0B589B000AFAA
:102E4000F860B9603A71FC68FB680833184600F016
:102E500071F8014607F11403BA68184600F077F8D4
:102E60000546FB680833184600F07FF8014607F175
:102E70001803BA68184600F084F80646FB68083361
:102E8000184600F090F8014607F11C03BA6818468E
:102E900000F095F8034632462946204600F0A1F896
:102EA00000BF2437BD46F0BD80B483B000AF78606A
:102EB0007B6818460C37BD4680BC704780B582B031
:102EC00000AF7860786800F0B0F80346184608371D
:102ED000BD4680BD80B483B000AF78607B68184683
:102EE0000C37BD4680BC704780B582B000AF7860BB
:102EF00039603868FFF7EEFF7B6818460837BD4633
:102F000080BDB0B584B000AFF860B9607A60FC688D
:102F1000B868FDF72EFE05467868FDF734FE0346D7
:102F20001A462946204600F08AF8FB6818461037F2
:102F3000BD46B0BD80B582B000AF78607B681846F2
:102F400000F09BF8034618460837BD4680BD80B5A3
:102F500084B000AFF860B9607A60B86800F099F8A2
:102F6000034618461037BD4680BD80B582B000AF1D
:102F70007860786800F097F8034618460837BD4631
:102F800080BD80B584B000AFF860B9607A607868C1
:102F900000F095F80346184600F09BF803461846E3
:102FA0001037BD4680BD80B582B000AF78607868CC
:102FB00000F09FF8034618460837BD4680BD80B52F
:102FC00084B000AFF860B9607A60786800F077F894
:102FD0000346184600F099F8034618461037BD46D8
:102FE00080BD2DE9F04186B002AFF860B9607A602B
:102FF0003B60F86800F099F80446B86800F049F8BA
:1030000005467868FDF7B5FD06463868FDF7BBFD57
:103010000346009333462A462146404600F08FF887
:1030200000BF1037BD46BDE8F08180B483B000AF6B
:1030300078607B6818460C37BD4680BC704790B5F9
:1030400085B000AFF860B9607A60FC687868FDF719
:103050009AFD03461946204600F0A5F8FB681C1DA2
:10306000B868FDF786FD03461946204600F0AEF825
:10307000FB6818461437BD4690BD80B582B000AFDE
:1030800078607868FFF706FE034618460837BD46A5
:1030900080BD80B483B000AF78607B6818460C3781
:1030A000BD4680BC704780B582B000AF786078685C
:1030B000FFF773FE034618460837BD4680BD80B44F
:1030C00083B000AF78607B6818460C37BD4680BC83
:1030D000704780B582B000AF7860786800F086F8FD
:1030E0000346184600F08FF8034618460837BD46D9
:1030F00080BD80B582B000AF78607868FFF7DEFEF3
:10310000034618460837BD4680BD80B582B000AF83
:103110007860786800F081F80346184600F08AF875
:10312000034618460837BD4680BD80B483B000AF63
:1031300078607B6818460C37BD4680BC7047F0B598
:1031400085B000AF3873B9607A603B607868FFF78C
:10315000A0FF03461B68BA68526802F00102002A09
:1031600002D1BA68146808E0BA68526852101A446A
:103170001268B96809680A441468BA68526852103B
:103180009D183868FDF7F5FC03461E68B86AFDF720
:10319000FAFC03461B881A4631462846A04700BF62
:1031A0001437BD46F0BD90B583B000AF786039608C
:1031B0007C683868FDF7E7FC03461946204600F0B6
:1031C00043F87B6818460C37BD4690BD80B582B089
:1031D00000AF786039603868FDF7CBFC02467B6849
:1031E0001A607B6818460837BD4680BD80B582B03E
:1031F00000AF78607B68184600F036F80346184642
:103200000837BD4680BD80B483B000AF78607B686E
:1032100018460C37BD4680BC704780B582B000AF01
:1032200078607B68184600F02BF80346184608378C
:10323000BD4680BD80B483B000AF78607B6818461F
:103240000C37BD4680BC704780B582B000AF786057
:1032500039603868FDF797FC02467B681A607B6826
:1032600018460837BD4680BD80B582B000AF786093
:10327000786800F011F8034618460837BD4680BD4F
:1032800080B582B000AF7860786800F013F803462C
:1032900018460837BD4680BD80B582B000AF786063
:1032A0007B680433184600F012F8034618460837C6
:1032B000BD4680BD80B582B000AF78607B6818469F
:1032C00000F010F8034618460837BD4680BD80B4AC
:1032D00083B000AF78607B681B6818460C37BD462A
:1032E00080BC704780B483B000AF78607B681B6897
:1032F00018460C37BD4680BC704780B483B000AF21
:10330000786039607B683A68DA6400BF0C37BD4684
:1033100080BC704780B584B002AF786039607B684C
:103320003A689A647B6800229A637B680022DA63B9
:103330007B6800221A647B68002283F83420032211
:103340000021012008F0B7F902467B685A647B68C7
:103350009B6C796801221846FEF7F8FF7B689B6B2F
:10336000002B45D17B68DB6B022B41DC7B681B6C3F
:10337000591C7A681164D9B2002301930023009389
:103380000123FE22786800F09BFF7B685B6C40F6AF
:10339000B831184608F0A8FC0346012B14BF0123DE
:1033A0000023DBB2002BD9D07B681B6C591C7A68D8
:1033B0001164D9B20023019300230093002300225B
:1033C000786800F07DFF7B685B6C40F6B83118468A
:1033D00008F08AFC0346012B14BF01230023DBB253
:1033E000002BBBD07B68DB6B5A1C7B68DA63B5E7CC
:1033F0007B680022DA637B689B6B0A2B45D17B6874
:10340000DB6B022B41DC7B681B6C591C7A681164F6
:10341000D9B200230193002300930123FE22786890
:1034200000F04EFF7B685B6C40F6B831184608F040
:103430005BFC0346012B14BF01230023DBB2002BEE
:10344000D9D07B681B6C591C7A681164D9B20023EF
:1034500001930023009300230022786800F030FFDE
:103460007B685B6C40F6B831184608F03DFC0346BB
:10347000012B14BF01230023DBB2002BBBD07B68E0
:10348000DB6B5A1C7B68DA63B5E77B689B6B472B69
:1034900000F39A80002BC0F22D81472B00F22A8185
:1034A00001A252F823F000BFCD350008F536000820
:1034B000F5360008F5360008F5360008F536000840
:1034C000F5360008F5360008F5360008F536000830
:1034D000CD350008F5360008F5360008F536000849
:1034E000F5360008F5360008F5360008F536000810
:1034F000F5360008F5360008D5350008F536000821
:10350000F5360008F5360008F5360008F5360008EF
:10351000F5360008F5360008F5360008F5360008DF
:10352000F535000895360008F5360008F536000830
:10353000F5360008F5360008F5360008F5360008BF
:10354000F5360008F536000815360008F53600088F
:10355000F5360008F5360008F5360008F53600089F
:10356000F5360008F5360008F5360008F53600088F
:1035700035360008F5360008F5360008F53600083F
:10358000F5360008F5360008F5360008F53600086F
:10359000F5360008F536000855360008B53600083F
:1035A000F5360008F5360008F5360008F53600084F
:1035B000F5360008F5360008F5360008F53600083F
:1035C00075360008D5360008FF2B93E07B68FF2294
:1035D0009A638FE07B681B6C591C7A681164D9B2BE
:1035E000002301930023009309230122786800F04F
:1035F00067FE7FE07B681B6C591C7A681164D9B246
:10360000002301930023009302230122786800F035
:1036100057FE6FE07B681B6C591C7A681164D9B245
:10362000002301930023009301230222786800F015
:1036300047FE5FE07B681B6C591C7A681164D9B245
:1036400000230193002300930423FE22786800F0F6
:1036500037FE4FE07B681B6C591C7A681164D9B245
:10366000002301930023009308230322786800F0CD
:1036700027FE3FE07B681B6C591C7A681164D9B245
:10368000002301930023009307230322786800F0AE
:1036900017FE2FE07B681B6C591C7A681164D9B245
:1036A000002301930023009302230022786800F096
:1036B00007FE1FE07B681B6C591C7A681164D9B245
:1036C000002301930023009310230122786800F067
:1036D000F7FD0FE07B681B6C591C7A681164D9B246
:1036E00000230193002300930B230022786800F04D
:1036F000E7FD00BF7B689B6BFF2B09D07B685B6C91
:1037000040F6B831184608F0EFFA0346012B01D015
:10371000012300E00023002B00D1B6E600BF7B6848
:103720009B6C002200211846FEF710FE00BF0837F0
:10373000BD4680BD2DE9F04196B00AAFF861B96190
:103740001346FB82FB69D86C4FF6FF731222B64911
:1037500006F019F9FB69D86CFA8A4FF6FF73B9695C
:1037600006F011F9FB69D86C4FF6FF730122AF49DF
:1037700006F009F907F120031846FCF791FF07F15D
:103780002002FB8A1946B869FCF727FF034683F03D
:103790000103DBB2002B40F02C85FB699B6B472BB0
:1037A00000F2458501A252F823F000BFCD38000891
:1037B0002F4200082F4200082F4200082F42000825
:1037C0002F4200082F4200082F4200082F42000815
:1037D0002F4200083B3B00082F4200082F42000800
:1037E0002F4200082F4200082F4200082F420008F5
:1037F0002F4200082F4200082F420008B93D000860
:103800002F4200082F4200082F4200082F420008D4
:103810002F4200082F4200082F4200082F420008C4
:103820002F420008013E00081D4100082F420008F9
:103830002F4200082F4200082F4200082F420008A4
:103840002F4200082F4200082F4200084F3E000878
:103850002F4200082F4200082F4200082F42000884
:103860002F4200082F4200082F4200082F42000874
:103870002F420008B93E00082F4200082F420008DE
:103880002F4200082F4200082F4200082F42000854
:103890002F4200082F4200082F420008094000086C
:1038A000634100082F4200082F4200082F42000801
:1038B0002F4200082F4200082F4200082F42000824
:1038C0002F420008D1400008AF41000897F821308E
:1038D000FE2B14D197F82230052B10D13B8D0C2BE9
:1038E0000DD17B6A1B78012B09D17B6A01330B2236
:1038F0004F49184619F0A7F80346002B13D097F844
:103900002130FE2B1AD197F82230002B16D13B8D97
:103910000B2B13D17B6A0B224549184619F093F8FB
:103920000346002B0AD1FB690A229A63FB69586C93
:1039300000230022002107F0DDFFFDE097F8213091
:10394000002B14D197F82230042B10D13B8D0A2B79
:103950000DD17B6A1B78022B09D17B6A01330922C6
:103960003449184619F06FF80346002B13D097F826
:103970002130002B1AD197F82230002B16D13B8D25
:10398000092B13D17B6A09222A49184619F05BF8E2
:103990000346002B0AD1FB690A229A63FB69586C23
:1039A00000230022002107F0A5FFC5E097F8213091
:1039B000FE2B14D197F82230052B10D13B8D0E2B06
:1039C0000DD17B6A1B78012B09D17B6A01330D2253
:1039D0001949184619F037F80346002B13D097F809
:1039E0002130FE2B2AD197F82230002B26D13B8D97
:1039F0000D2B23D17B6A0D220F49184619F023F8AD
:103A00000346002B1AD1FB691B6C591CFA6911641F
:103A1000D9B200230193002300930223FE22F86908
:103A200000F04EFC88E000BFD0DE0108E4DE0108B3
:103A3000E8DE0108F4DE010800DF010897F8213014
:103A4000FE2B14D197F82230052B10D13B8D0D2B76
:103A50000DD17B6A1B78012B09D17B6A01330C22C3
:103A60008F49184618F0EFFF0346002B13D097F844
:103A70002130FE2B1FD197F82230002B1BD13B8D1C
:103A80000C2B18D17B6A0C228549184618F0DBFFF5
:103A90000346002B0FD1FB691B6C591CFA6911649A
:103AA000D9B200230193002300930223FE22F86978
:103AB00000F006FC40E097F82130002B14D197F875
:103AC0002230042B10D13B8D0B2B0DD17B6A1B7840
:103AD000022B09D17B6A01330A227249184618F079
:103AE000B2FF0346002B17D097F82130002B40F08F
:103AF000828397F82230002B40F07D833B8D0A2B88
:103B000040F079837B6A0A226649184618F09BFFC9
:103B10000346002B40F06F83FB691B6C591CFA694C
:103B20001164D9B2002301930023009303230022E0
:103B3000F86900F0C5FB5EE35DE397F82130FE2BEA
:103B400014D197F82230052B10D13B8D0C2B0DD1C1
:103B50007B6A1B78012B09D17B6A01330B22524906
:103B6000184618F070FF0346002B13D097F8213049
:103B7000FE2B1FD197F82230002B1BD13B8D0B2B36
:103B800018D17B6A0B224849184618F05CFF03469F
:103B9000002B0FD1FB691B6C591CFA691164D9B257
:103BA00000230193002300930323FE22F86900F011
:103BB00087FB00E197F82130002B14D197F82230D1
:103BC000042B10D13B8D0A2B0DD17B6A1B78022B65
:103BD00009D17B6A013309223449184618F033FFB2
:103BE0000346002B13D097F82130002B1FD197F8F4
:103BF0002230002B1BD13B8D092B18D17B6A092267
:103C00002A49184618F01FFF0346002B0FD1FB6905
:103C10001B6C591CFA691164D9B20023019300236B
:103C2000009303230022F86900F04AFBC3E097F8F1
:103C30002130FE2B14D197F82230052B10D13B8D6B
:103C40000E2B0DD17B6A1B78012B09D17B6A0133C6
:103C50000D221749184618F0F6FE0346002B13D024
:103C600097F82130FE2B25D197F82230002B21D157
:103C70003B8D0D2B1ED17B6A0D220D49184618F085
:103C8000E2FE0346002B15D1FB6914229A63FB69FF
:103C9000586C00230022002107F02CFE8BE000BFAF
:103CA00010DF010820DF0108E8DE0108F4DE01086A
:103CB00000DF010897F82130FE2B14D197F822304D
:103CC000052B10D13B8D0D2B0DD17B6A1B78012B61
:103CD00009D17B6A01330C227449184618F0B3FEEF
:103CE0000346002B13D097F82130FE2B1AD197F8FA
:103CF0002230002B16D13B8D0C2B13D17B6A0C226A
:103D00006A49184618F09FFE0346002B0AD1FB694A
:103D100014229A63FB69586C00230022002107F0EB
:103D2000E9FD48E097F82130002B14D197F82230B4
:103D3000042B10D13B8D0B2B0DD17B6A1B78022BF2
:103D400009D17B6A01330A225949184618F07BFED3
:103D50000346002B17D097F82130002B40F04D82FE
:103D600097F82230002B40F048823B8D0A2B40F020
:103D700044827B6A0A224E49184618F064FE0346C4
:103D8000002B40F03A82FB691F229A63FB691833CB
:103D90004849184618F0CCFDFB6900225A61FB69BE
:103DA000032283F83420FB69586C00230022002191
:103DB00007F0A0FD21E220E297F82130012B40F02E
:103DC0001E8297F82230042B40F019823B8D022B83
:103DD00040F015827B6A1B78012B40F010827B6AD1
:103DE00001331A78FB6983F83420FB691E229A6339
:103DF000FB69586C00230022002107F07BFDFEE1E7
:103E000097F82130012B40F0FC8197F82230042BE9
:103E100040F0F7813B8D0A2B40F0F3817B6A1B78E1
:103E2000012B40F0EE81FB6903F131007B6A013325
:103E30000322194618F0FCF9FB6928229A63FB69F2
:103E4000586C00230022002107F054FDD9E197F8B7
:103E50002130022B40F0D78197F82230062B40F01A
:103E6000D2813B8D042B40F0CE817B6A1B78012BE5
:103E700040F0C9817B6A01331B781A047B6A0233E4
:103E80001B781B0213437A6A0332127813431A46D3
:103E9000FB695A61FB6932229A63FB69586C002303
:103EA0000022002107F026FDADE100BF10DF010870
:103EB00020DF01082CDF010897F82130FE2B40F0AD
:103EC000AB8197F82230052B40F0A6813B8D0D2B5E
:103ED00040F0A2817B6A1B78012B40F09D81FB6939
:103EE00003F118007B6A01331B789C467B6A02331E
:103EF0001B789E467B6A03331B781A467B6A043321
:103F00001B7819467B6A05331B781C467B6A06338F
:103F10001B781D467B6A07331B781E467B6A083375
:103F20001B783B617B6A09331B78FB607B6A0A3331
:103F30001B78BB607B6A0B331B787B607B6A0C331E
:103F40001B780993D7F80480CDF82080D7F8088033
:103F5000CDF81C80D7F80C80CDF818803B6905930C
:103F60000496039502940191009273466246A74914
:103F700018F0DEFCFB6993F83430012B01D0042BE0
:103F800036D17B6A0B331B781B0243F47F037A6ABA
:103F90000C32127813431A46FB691A61FB691B69DC
:103FA0006FF07F42934202D1FB69994A1A61FB6923
:103FB000181D7B6A08331B781C467B6A09331B7803
:103FC0001D467B6A0A331B781A467B6A0B331B78C3
:103FD00019467B6A0C331B780293019100922B46A1
:103FE00022468C4918F0A4FCFB693C229A6303E04A
:103FF000FB693C229A6300BFFB69586C00230022D6
:10400000002107F077FC07E197F82130032B37D127
:1040100097F82230012B33D13B8D042B30D17B6AB2
:104020001B78012B2CD17B6A01331B781A047B6A25
:1040300002331B781B0213437A6A0332127813434C
:10404000FB62FB6A002B08D0FB6A9BB24FF6FF7243
:10405000934202D0FB69FA6A1A61FB6993F8343023
:10406000032B01D0462200E0FF22FB699A63FB6923
:10407000586C00230022002107F03CFC00BFCDE07B
:1040800097F82130032B40F0C98097F82230012B9C
:1040900040F0C4803B8D012B40F0C0807B6A1B78D0
:1040A000002B40F0BB80FB6993F83430042B04D024
:1040B000FB6993F83430012B02D1FB69FF229A632C
:1040C000FB69586C00230022002107F013FCA5E0D7
:1040D00097F82130032B40F0A38097F82230012B72
:1040E00040F09E803B8D0B2B40F09A807B6A1B78C2
:1040F000012B40F09580FB69181D7B6A01330A2271
:10410000194618F095F8FB69FF229A63FB69586C11
:1041100000230022002107F0EDFB81E097F8213019
:10412000002B7FD197F82230042B7BD13B8D072BBE
:1041300078D17B6A1B78022B74D1FB6903F13100C3
:104140007B6A04330322194618F072F8FB693D229A
:104150009A63FB69586C00230022002107F0CAFB18
:1041600060E097F82130012B5ED197F82230042BC4
:104170005AD13B8D062B57D17B6A03331B781A0427
:104180007B6A04331B781B0213437A6A0532127868
:1041900013431A46FB691A61FB6947229A63FB695C
:1041A000586C00230022002107F0A4FB3CE097F8A4
:1041B0002130002B3AD197F82230042B36D13B8D99
:1041C0000B2B33D17B6A1B78022B2FD1FB69181D77
:1041D0007B6A01330A22194618F02AF8FB69FF228C
:1041E0009A63FB69586C00230022002107F082FBD0
:1041F0001CE000BF1BE000BF19E000BF17E000BFDC
:1042000015E000BF13E000BF11E000BF30DF010880
:10421000FEFFFF0064DF010800BF08E000BF06E00A
:1042200000BF04E000BF02E000BF00E000BF303785
:10423000BD46BDE8F08100BF80B483B000AF7860B8
:104240007B68043318460C37BD4680BC704780B489
:1042500083B000AF78607B681B6918460C37BD4699
:1042600080BC704780B483B000AF78607B685B69C6
:1042700018460C37BD4680BC704780B483B000AF91
:1042800078607B68183318460C37BD4680BC704791
:1042900080B483B000AF78607B68313318460C3748
:1042A000BD4680BC704780B483B000AF78607B6847
:1042B00093F8343018460C37BD4680BC7047000078
:1042C0002DE9F04389B000AF7860084611461A46E0
:1042D0000346FB700B46BB7013467B706B461E4655
:1042E00007F108031846FCF7DBF97B6C113319461C
:1042F000F9610B4601330022984691464FF00002C7
:104300004FF000034FEAC90343EA58734FEAC8026B
:104310000B46013300221C4615464FF000024FF0B9
:104320000003EB0043EA5473E2000B46013307330A
:10433000DB08DB00ADEB030D6B460033BB61FB78A4
:104340003B72BB787B727B78BB723B6CFB607B6C97
:104350009BB23B828BB201339AB207F10800012372
:10436000B969FCF7AAF90346FB827B68D86C4FF663
:10437000FF7311220F4905F006FB7B68D86CFA8A9F
:104380004FF6FF73B96905F0FEFA7B68D86C4FF6FB
:10439000FF730122084905F0F6FA7B689B6CFA8AE4
:1043A000B9691846FEF73CF8B54600BF2437BD464C
:1043B000BDE8F0837CDF0108E4DE010880B588B049
:1043C00000AFF8600B467A60FB72FB68FB61FB7A1A
:1043D000FB767B687B614FF6FF717869FDF7FBFE2A
:1043E0003861FB69FA7EBFF35B8F1A70BFF35B8F96
:1043F00000BF00BF2037BD4680BD80B586B000AF8E
:10440000786039607B687B613B683B614FF6FF7188
:104410003869FDF7E0FEF8607B69BFF35B8F1B78BE
:10442000BFF35B8FDBB2002B14BF01230023DBB291
:1044300018461837BD4680BD80B584B000AF78609F
:104440007B68FB60FB685868FB689968FB689B8920
:104450001A4612F02BFC03461A46FB681A75FB68D5
:1044600093F9143018461037BD4680BD80B58AB028
:1044700000AFF860B9601346FB80FB687B61BB68E6
:10448000BB61FB88BB8307F110031946044809F0A0
:10449000DFFB97F9243018462837BD4680BD00BFA2
:1044A0003944000880B584B000AF78607B68FB6059
:1044B000FB685868FB681969FB689A68FB689B8908
:1044C00012F0C0FA03461A46FB681A75FB6893F9A6
:1044D000143018461037BD4680BD000080B58AB044
:1044E00000AFF860B9607A607B80FB687B617B68B5
:1044F000BB617B88BB83BB683B6207F11003194635
:10450000044809F0A5FB97F9243018462837BD4622
:1045100080BD00BFA544000880B582B000AF7860C0
:10452000786800F0E3FA00BF0837BD4680BD80B56B
:1045300086B000AFF860B9607A603B607B68002BA2
:1045400017D07B687B617B681B687B607B6900227E
:104550001A603B8C3A687969F86800F035FB0346CD
:1045600083F00103DBB2002BE8D078690CF04CFA41
:10457000E4E700BF1837BD4680BD000080B582B0BB
:1045800000AF786039607B681846FCF7A7FD0F4ADA
:104590007B681A600E4A3B68136000210D4800F0EA
:1045A0005BFB00210C4800F067FB00210B4800F08A
:1045B00081FB00210A4800F09AFB0121094800F024
:1045C00096FB7B6818460837BD4680BDA00E0208E2
:1045D000CC010020D8010020D4010020D00100200F
:1045E000DC010020E001002090B589B000AFF86048
:1045F000B9607A607B80BB685B89BB61BB685B68C4
:104600007B61BB69032B04D8B969A64817F01CFF6E
:1046100086E17B691B78002B10D07C68A24800F0F3
:1046200083FB03469C4207D1A04800F08AFB034667
:104630001A467B88934201D0012300E00023002B1F
:1046400003D09B4817F086FF6AE1BB69023B7A6999
:1046500013441C88BB699BB2023B9BB21946786924
:10466000FBF77CFF034618460AF0C2FE03469C4255
:1046700014BF01230023DBB2002B03D08D4817F0B9
:1046800069FF4DE108F0A6F803468B4A13607B6989
:104690001B78072B00F23C8101A252F823F000BFE7
:1046A000C1460008D74700081F490008FF47000817
:1046B00055480008714800088B480008E148000888
:1046C000BB69052B2ED17B6902331B78012B29D1C5
:1046D00002217A4800F042FB0021744800F04DFBB3
:1046E0000021774800F059FB7B6819466E4800F0BE
:1046F00064FB7B8819466D4800F03FFB714B1868DE
:10470000002301220121FDF73BFE01233B747B695D
:104710005B787B7407F1100202230021F86800F037
:104720000BF957E0BB69062B4FD17B6902331B782D
:10473000022B4AD1614800F04EFBF8617B690333DC
:104740001B78002B0BD1FB690233FB61F9695B48D5
:1047500000F04EFB00215A4800F01FFB10E07B697F
:1047600003331B781A46FB69DBB29A4208D07B6997
:1047700003331B78FA691946534817F065FECFE0FA
:1047800000214A4800F0F9FA7B681946464800F0D3
:1047900014FB7B881946454800F0EFFA494B18682E
:1047A000002301220121FDF7EBFD02233B747B690D
:1047B0005B787B74FB69DBB2BB7407F110020323E7
:1047C0000021F86800F0B8F804E0B9693F4817F034
:1047D0003BFEA5E0A4E00021344800F0CEFA002121
:1047E000374800F0DAFA00212F4800F0E6FA354B9E
:1047F0001868002300220021FDF7C2FD90E0BB698C
:10480000052B04D0B969324817F01EFE88E02D4B05
:1048100018687B6902331B7803F00103002B14BF77
:1048200001230023D9B27B6902331B7803F0020312
:10483000002B14BF01230023DAB27B6902331B78FB
:1048400003F00403002B14BF01230023DBB2FDF7A8
:1048500097FD65E0BB69042B04D0B9691D4817F0CA
:10486000F3FD5DE0174B1B681846FDF7BFFD57E0F1
:10487000BB69042B04D0B969174817F0E5FD4FE078
:1048800001210F4800F089FA4AE0BB69042B04D0EB
:10489000B969124817F0D8FD42E00021084800F03D
:1048A0007CFA3DE0A0DF0108D0010020D401002007
:1048B000D0DF010800E00108E4010020E001002051
:1048C000D8010020CC0100202CE0010884E0010880
:1048D000BCE00108F0E0010824E101085CE1010806
:1048E000BB69042B04D8B9690F4817F0ADFD17E078
:1048F000B9690E4817F0A8FD0D4B18687B69991C23
:10490000BB699BB2043B9BB21A46FDF789FD07E0E9
:104910007B691B781946074817F096FD00E000BF39
:104920002437BD4690BD00BF94E10108C8E10108ED
:10493000CC010020D0E1010890B58BB000AFF86049
:104940007A603B600B46FB72294800F0FAF9034697
:10495000FB84284800F0E8F938623B689BB20433D6
:104960009BB20022194600200BF0D6FCF861FB69CF
:104970005B68BB613B6A7B61FB8C002B34D0BB69FD
:10498000FA7A1A7001211C4800F0E8F90246BB6966
:104990000133D2B21A703B68002B06D0BB690233D8
:1049A0003A687968184617F043FC3B689BB20233BB
:1049B0009BB21946B869FBF7D1FD034619463B681F
:1049C0000233BA69D41808460AF012FD0346238060
:1049D0000A4B1868FB8C07F11402F969FFF77EFD9A
:1049E000F8690CF011F800E000BF2C37BD4690BD0F
:1049F000D4010020D0010020DC010020E8010020CB
:104A000080B584B000AFF860B9601346FB801248EF
:104A100000F0FCF9034683F00103DBB2002B16D152
:104A2000FB8840F2BC52934205D9FB8819460B48DB
:104A300017F00AFD0CE0FB881946094817F004FD41
:104A4000FB88BA680721F868FFF776FF00E000BF2F
:104A50001037BD4680BD00BFD801002008E2010824
:104A600040E2010880B582B000AF786000220421E6
:104A7000202006F020FE0346144A1360144A012148
:104A8000144805F0D7FF0346134A136012F024FAC6
:104A90000346124A1360114B1B687A681049184686
:104AA00012F0D6F90D4B1B684FF43C620D491846C5
:104AB000FFF7DCFC0C4B1B68796800221846FDF7F9
:104AC00045FC00BF0837BD4680BD00BFF001002097
:104AD000740E020819450008EC010020E8010020CE
:104AE0002F45000804150208CC01002080B586B0CF
:104AF00000AF78600023FB6007F06CFE78612C4B00
:104B00001B6807F10C016422184607F04BF80346B6
:104B1000012B0CBF01230023DBB2002B11D0FB685B
:104B20001968FA68FB681B8952687868FFF75CFDB2
:104B3000FB681B6818460BF067FFFB68184617F008
:104B40005FFB1C4800F0FDF80346002B14BF012357
:104B50000023DBB2002BD2D007F03CFE3861164BAD
:104B60001B6803F59C5308333A699A4211D9002116
:104B7000104800F002F90021104800F01EF9104B17
:104B80001868002300220121FDF7FAFB0D4817F0F9
:104B9000E1FC3A697B699A42B1D93B6903F57A73C2
:104BA0007B610023002202217868FFF7C5FEA6E79B
:104BB000F0010020D4010020E4010020D0010020F9
:104BC000CC01002048E2010890B589B000AFF86040
:104BD000B9607A607B800C2017F00AFB03467B618A
:104BE0007B69002B01D100232FE07B69BA681A6032
:104BF000BB685B681C3BFB617B69FA69D2685A60E1
:104C0000BB685B68083BBB61BB691B889BB27C6966
:104C100018460AF0EDFB034623810E4B186807F196
:104C2000140100234FF0FF3206F064FE0346012B0F
:104C300014BF01230023DBB2002B05D07B6918468B
:104C400017F0DEFA002300E0012318462437BD46A2
:104C500090BD00BFF001002080B582B000AF786049
:104C60000B46FB70FB78002219467868FFF7A6FB1D
:104C700000BF0837BD4680BD80B586B000AF786004
:104C80000B467B807B687B617B887B820023FB609B
:104C90004FF6FF71F868FDF79EFAB8607B69BFF3C5
:104CA0005B8F7A8A1A80BFF35B8F00BF00BF183713
:104CB000BD4680BD80B586B000AF786039607B6846
:104CC0007B613B683B610023FB604FF6FF71F86836
:104CD000FDF781FAB8607B69BFF35B8F3A691A60B0
:104CE000BFF35B8F00BF00BF1837BD4680BD80B5E6
:104CF00086B000AF786039607B687B613B683B6160
:104D00000023FB604FF6FF71F868FDF764FAB860A6
:104D10007B693A69BFF35B8F1A60BFF35B8F00BF9B
:104D200000BF1837BD4680BD80B582B000AF786047
:104D30000521786800F077F8034618460837BD4625
:104D400080BD80B582B000AF78600521786800F042
:104D500084F8034618460837BD4680BD80B582B04A
:104D600000AF7860396005223968786800F090F803
:104D7000034618460837BD4680BD80B582B000AFF7
:104D800078600B467B807B8805221946786800F0A6
:104D9000A0F800BF0837BD4680BD80B582B000AF27
:104DA00078600B46FB70FB7805221946786800F0A6
:104DB000AFF800BF0837BD4680BD80B582B000AFF8
:104DC0007860396005223968786800F0B2F800BF71
:104DD0000837BD4680BD80B582B000AF7860052140
:104DE000786800F0C4F8034618460837BD4680BD11
:104DF00080B582B000AF7860396005223968786884
:104E000000F0CEF800BF0837BD4680BD80B582B047
:104E100000AF78600521786800F0E0F80346184696
:104E20000837BD4680BD80B586B000AF7860396078
:104E30007B687B613B683B614FF6FF713869FDF72A
:104E4000CAF9F8607B69BFF35B8F1B68BFF35B8FA8
:104E500000BF18461837BD4680BD80B586B000AF8C
:104E6000786039607B687B613B683B614FF6FF711E
:104E70003869FDF7B0F9F8607B69BFF35B8F1B8879
:104E8000BFF35B8F9BB200BF18461837BD4680BD8D
:104E900080B489B000AFF860B9607A60FB68FB61EC
:104EA000BB68BB617B687B61FB69BA69BFF35B8FE1
:104EB00053E8001F01EB020043E8000CBCF1000FB7
:104EC000F6D1BFF35B8F0B4618462437BD4680BC36
:104ED000704780B588B000AFF8600B467A607B8180
:104EE000FB68FB617B897B837B687B614FF6FF718D
:104EF0007869FDF770F93861FB69BFF35B8F7A8BD6
:104F00001A80BFF35B8F00BF00BF2037BD4680BD56
:104F100080B584B000AFF8600B467A60FB72FB7A14
:104F20007A681946F868FFF749FA00BF1037BD469E
:104F300080BD80B588B000AFF860B9607A60FB686A
:104F4000FB61BB68BB617B687B614FF6FF71786971
:104F5000FDF741F93861FB69BFF35B8FBA691A60ED
:104F6000BFF35B8F00BF00BF2037BD4680BD80B55B
:104F700086B000AF786039607B687B613B683B61DD
:104F80004FF6FF713869FDF726F9F8607B69BFF3CA
:104F90005B8F1B68BFF35B8F18461837BD4680BD1B
:104FA00080B588B000AFF860B9607A60FB68FB61DB
:104FB000BB68BB617B687B614FF6FF717869FDF769
:104FC0000AF93861FB69BA69BFF35B8F1A60BFF3F6
:104FD0005B8F00BF00BF2037BD4680BD80B582B06B
:104FE00000AF7860396039687868FFF706FA0346E1
:104FF00018460837BD4680BD80B582B000AF7860E6
:10500000074A7B681360074B1B68986800230222DD
:10501000002117F04FFB00BF0837BD4680BD00BF21
:10502000F40100204000002080B483B000AF78601D
:1050300000BF074B1B6803F04003002BF9D07B68CF
:10504000DAB2034B5A6000BF0C37BD4680BC7047D4
:105050000038014080B483B000AF78603960054B00
:105060006FF025021A604FF0FF3318460C37BD462B
:1050700080BC70478C9F002080B586B000AFF86080
:10508000B9607A6000237B6109E0BB685A1CBA6092
:105090001B781846FFF7C8FF7B6901337B617A698B
:1050A0007B689A42F1DB7B6818461837BD4680BDA5
:1050B00080B483B000AF78607B68002B04DB7B6832
:1050C000022B01DC012303E0044B09221A600023B8
:1050D00018460C37BD4680BC704700BF8C9F00202F
:1050E00080B483B000AF78607B68002B04DB7B6802
:1050F000022B01DC002304E0044B09221A604FF06C
:10510000FF3318460C37BD4680BC70478C9F00208B
:1051100080B485B000AFF860B9607A60044B0922B2
:105120001A604FF0FF3318461437BD4680BC7047F5
:105130008C9F002080B586B000AFF860B9607A60BF
:10514000FB68002B10D10D4B18684FF0FF33012284
:10515000B96804F0AAFC0346FB75FB7D002B01D166
:10516000012306E0052304E0054B09221A604FF0F5
:10517000FF3318461837BD4680BD00BFF40100203C
:105180008C9F002080B483B000AF786039607B686A
:105190003A681A607B6818460C37BD4680BC704779
:1051A00080B582B000AF78607B681B68184600F05D
:1051B000B6FA034618460837BD4680BD80B582B0B2
:1051C00000AF78607868FFF7EBFF034618460837B2
:1051D000BD4680BD80B582B000AF78600B46FB70E5
:1051E0007B681B681A46FB781946104600F0A5FA42
:1051F0007B6818460837BD4680BD80B582B000AFD9
:1052000078600B46FB707868FFF7D8FF03461A46B4
:10521000FB78934206D0FB7819467868FFF7DAFFEF
:10522000034600E07B6818460837BD4680BD80B461
:1052300083B000AF786039607B683A681A607B6839
:1052400018460C37BD4680BC704780B584B000AFAF
:1052500078607B681A6807F10C0311461846FFF75F
:1052600091FFFB6818461037BD4680BD80B483B0FF
:1052700000AF78607B681B685A1C7B681A607B688B
:1052800018460C37BD4680BC704780B584B000AF6F
:105290007860396007F10C0339681846FFF772FF30
:1052A00007F10C031846FFF789FF0346184610372D
:1052B000BD4680BD80B586B000AFF860B9601346CA
:1052C000FB7107F11403B9681846FFF75BFFFA7921
:1052D00007F1140311461846FFF77CFF00BF18378B
:1052E000BD4680BD80B582B000AF78607B6818464F
:1052F00021231A46002116F0C3FF7B6821332122A7
:105300000021184616F0BCFF7B6850334122002173
:10531000184616F0B5FF786800F006F87B68184666
:105320000837BD4680BD000080B582B000AF786010
:1053300000212348FFF7A9FF03469E2B14BF01233A
:105340000023DBB2002B06D01E4817F003F9786863
:1053500000F072F831E091211948FFF796FF0346FB
:10536000002B14BF01230023DAB27B6883F84220AC
:1053700090211348FFF789FF03461A467B68C3F85C
:1053800094207B6821331A4601210D4800F0FBF878
:105390007B6844331A468421094800F028F97B6869
:1053A00048331A468821064800F021F97B684C33BF
:1053B0001A468C21024800F01AF90837BD4680BD14
:1053C000F801002060E2010880B582B000AF78608B
:1053D0007B6893F842301A4691211648FFF76AFF1E
:1053E0007B68D3F89430DBB21A4690211148FFF75E
:1053F00061FF7B6844331A4684210E4800F02BF984
:105400007B6848331A4688210A4800F024F97B68F3
:105410004C331A468C21074800F01DF97B68213374
:105420001A460121034800F048F900BF0837BD467D
:1054300080BD00BFF801002080B582B000AF786069
:105440009E2200211248FFF735FF7B68012283F876
:1054500042207B68FF22C3F894207B6800225A64B4
:105460007B6800229A647B680022DA647B682133BF
:10547000084A2021184617F027FA7868FFF7A4FF9A
:105480007868FFF751FF00BF0837BD4680BD00BFF9
:10549000F801002074E2010880B483B000AF7860A6
:1054A0007B68213318460C37BD4680BC704780B4FA
:1054B00083B000AF78607B6893F8423018460C37B1
:1054C000BD4680BC704780B483B000AF78607B6815
:1054D0005B6C18460C37BD4680BC704780B483B007
:1054E00000AF78607B689B6C18460C37BD4680BC6B
:1054F000704780B483B000AF78607B68DB6C18467F
:105500000C37BD4680BC704780B584B000AFF860F2
:10551000B9603B601346FB71FB6821332022B968F8
:10552000184617F0A4FAFB79002B14BF01230023BF
:10553000DAB2FB6883F84220FB683A685A64FB6879
:10554000BA699A64FB68FA69DA6400BF1037BD462D
:1055500080BD80B483B000AF78607B68D3F89430AE
:1055600018460C37BD4680BC704780B483B000AF8E
:10557000786039607B683A68C3F8942000BF0C37C4
:10558000BD4680BC704780B588B000AFF860B96098
:105590007A6007F11003B9681846FFF748FE7B6888
:1055A000FB612123BB61BB69002B1BD007F11003FA
:1055B0001846FFF74AFE03467B6107F114031846BD
:1055C000FFF7FCFD03461946FB695A1CFA610A46BF
:1055D0001A70BB69013BBB6107F110031846FFF766
:1055E00045FEE0E77B6818462037BD4680BD80B5A4
:1055F00088B000AFF860B9607A6007F11003B9684D
:105600001846FFF714FE7B68FB610423BB61BB698E
:10561000002B1BD007F110031846FFF716FE0346B8
:105620007B6107F114031846FFF7C8FD03461946CE
:10563000FB695A1CFA610A461A70BB69013BBB61DF
:1056400007F110031846FFF711FEE0E77B681846E4
:105650002037BD4680BD80B588B000AFF860B96026
:105660007A6007F11003B9681846FFF7E0FD7B6820
:10567000FB610423BB61BB69002B19D007F1100348
:105680001846FFF7E2FD03467B61FB695A1CFA618D
:105690001A7807F1140311461846FFF7AEFDBB69EF
:1056A000013BBB6107F110031846FFF7DFFDE2E79E
:1056B0007B6818462037BD4680BD80B588B000AFF6
:1056C000F860B9607A6007F11003B9681846FFF70F
:1056D000AEFD7B68FB612123BB61BB69002B19D048
:1056E00007F110031846FFF7B0FD03467B61FB6925
:1056F0005A1CFA611A7807F1140311461846FFF78D
:105700007CFDBB69013BBB6107F110031846FFF745
:10571000ADFDE2E77B6818462037BD4680BD80B509
:1057200082B000AF786000F03BF8786800F016F8BF
:10573000034618460837BD4680BD80B582B000AF2D
:1057400078600B46FB70FB781946786800F016F815
:1057500000F038F800BF0837BD4680BD80B483B084
:1057600000AF7860044A7B6813441B7818460C37F6
:10577000BD4680BC704700BF0002002080B483B0EB
:1057800000AF78600B46FB70044A7B681344FA78DC
:105790001A7000BF0C37BD4680BC70470002002065
:1057A00080B500AF054A064B104619464FF400631A
:1057B0001A4616F03DFD00BF80BD00BF000200206C
:1057C00000F8030880B58CB000AF0023FB622D4BBE
:1057D000BB622D4B7B6200237B604FF000024FF0D9
:1057E0000003C7E906230023BB600123FB60254BB0
:1057F0003B6101237B6102F02FF80346002B0CBFB5
:1058000001230023DBB2002B38D0204B40F21512CD
:10581000DA603A1D07F108031146184602F004F950
:105820000346002B0CBF01230023DBB2002B23D047
:10583000BA6A7B6A9A421FD8FB6A154A1344D3E9B5
:105840000023C7E90623D7E90623B96A032001F03C
:1058500093FF0346002B0CBF01230023DBB2002B78
:1058600006D0BB6A0833BB62FB6A0833FB62DFE722
:105870007B6A0133BB62DBE702F014F800BF30370C
:10588000BD4680BD00F80308FFFF0308002002406A
:105890000002002080B584B000AF1C4B9B691B4AFE
:1058A00043F001039361194B9B6903F00103BB6053
:1058B000BB68164BDB69154A43F08053D361134B29
:1058C000DB6903F080537B607B6800220F216FF05F
:1058D000010000F0CCFD00220521052000F0C7FDED
:1058E000052000F0E0FD0A4B5B68FB60FB6823F0DD
:1058F000E063FB60FB6843F00073FB60044AFB68F5
:10590000536000BF1037BD4680BD00BF001002408D
:105910000000014080B584B000AF78607B681B68F0
:105920000D4A934213D10D4BDB690C4A43F002033D
:10593000D3610A4BDB6903F00203FB60FB680022C2
:1059400005211D2000F093FD1D2000F0ACFD00BFDF
:105950001037BD4680BD00BF00040040001002406B
:1059600080B588B000AF786007F10C0300221A60A0
:105970005A609A60DA607B681B68194A93422AD1A0
:10598000184B9B69174A43F010039361154B9B69B1
:1059900003F01003BB60BB684FF4E073FB600223AD
:1059A0003B610223BB6107F10C0319460E4802F06C
:1059B000E3F80E4B5B68FB61FB6923F44063FB611A
:1059C000FB6943F0E063FB61FB6943F44063FB6107
:1059D000064AFB69536000BF2037BD4680BD00BF4B
:1059E000000400400010024000100140000001408F
:1059F00080B58CB000AF786007F1200300221A60F8
:105A00005A609A60DA607B681B683E4A93423DD1D7
:105A10003D4BDB693C4A43F48013D3613A4BDB696D
:105A200003F48013FB61FB69374B9B69364A43F0F3
:105A300010039361344B9B6903F01003BB61BB6996
:105A4000314B9B69304A43F0200393612E4B9B6995
:105A500003F020037B617B694FF480533B62022398
:105A60007B620323FB6207F120031946274802F0FB
:105A700083F804233B6200237B620023BB6207F1AF
:105A800020031946224802F077F836E07B681B684D
:105A9000204A934231D11C4B9B691B4A43F48043FB
:105AA0009361194B9B6903F480433B613B69164B3F
:105AB0009B69154A43F004039361134B9B6903F000
:105AC0000403FB60FB684FF400733B6202237B62BC
:105AD0000323FB6207F1200319460F4802F04CF83C
